:020000040800F2
:10000000F020002001010008D7310008AB290008CA
:10001000D53100081B120008573B00080000000003
:100020000000000000000000000000005D37000834
:100030001D120008000000004D3500085F37000861
:100040001B0100081B0100081B0100081B01000820
:100050001B0100081B0100081B0100081B01000810
:10006000211200081B0100081B0100081B010008E9
:100070001B0100081B0100081B0100081B010008F0
:100080001B0100081B0100081B0100081B010008E0
:100090001B0100081B0100081B0100081B010008D0
:1000A0001B0100081B0100081B0100081B010008C0
:1000B000C13700081B0100081B0100081B010008D4
:1000C0001B0100081B0100081B0100081B010008A0
:1000D0001B0100081B0100081B0100081B01000890
:1000E0001B0100081B0100081B010008DFF80CD0F1
:1000F00000F04EFD00480047F9530008F0200020B2
:100100000648804706480047FEE7FEE7FEE7FEE7B1
:10011000FEE7FEE7FEE7FEE7FEE7FEE7BD37000885
:10012000ED0000082DE9F0410024061B254671F181
:10013000000605DA01240027D0EB070067EB010178
:10014000161E73F1000605DA0027D2EB070201251F
:1001500067EB030300F090FB86460E4617469C466D
:10016000AC4204D00025D0EB050E65EB010624B1AE
:100170000020D2EB000760EB030C704631463A4694
:100180006346BDE8F081202A04DB203A21FA02F020
:100190000021704721FA02F3D040C2F120029140C1
:1001A000084319467047D2B201E000F8012B491EFE
:1001B000FBD270470022F6E710B513460A46044604
:1001C0001946FFF7F0FF204610BDF0B480EA0102A7
:1001D000D40F4200B2EB410F02D20246084611464C
:1001E0004A0042D0C30DDDB2C1F3C752AD1A202D73
:1001F00035DAC1F3160141F4000204B15242C5F1EF
:10020000200602FA06F12A411044B3EBD05F23D056
:10021000C4B1012DA0EBC35009DCF0BC4FF000428B
:1002200002EAC352DBB200F5000000F080BB4000E0
:1002300000F1807000EBC350A0F1807040EAD170F3
:10024000490009E0490841EAC071A0EBC35000F53C
:100250000000400800EBC350F0BC00F05FBB6142FF
:10026000012202EB4101001BF6E7F0BC704781F070
:100270000041AAE780F00040A7E780EA010210B53C
:1002800002F00043400022D04A001FD0010E01EBD3
:100290001261C0F35600C2F3560240F4000042F46B
:1002A0000002A0FB022000047F39140400D0401C8F
:1002B00050EA124001D44000491EC2B20C0604EBC1
:1002C000D010401C4008802A02D003E0002010BD5E
:1002D00020F00100002900DA0020184310BD30B4DE
:1002E00080EA010202F0004530F0004221F00040B7
:1002F00013D090B1C30DD40DC2F31601C0F3160094
:10030000E41A41F4000140F400027D34914201D32B
:10031000641C00E04900002C02DA30BC0020704769
:100320004FF400000023914201D3891A034340088F
:100330004FEA4101F7D151B1914202D14FF0004152
:1003400005E002D24FF0010101E06FF0010103EB83
:10035000C450284430BC00F0E1BA420005D0C0F3DC
:10036000C7525242914201DC0020704700EBC1505D
:1003700070472DE9FE4F804681EA0300C00F0C460E
:10038000009021F0004123F00045B8EB0200A941A4
:1003900005D24046214690461C460B46024623F0B5
:1003A0000040104347D0270DC7F30A00C3F30A519A
:1003B0000290401A019040286BDAC3F3130040F416
:1003C000801B0098924620B10023D2EB030A63EB16
:1003D0000B0B01985946C0F14002504600F07DFADF
:1003E00006460D4650465946019A00F085FA10EB34
:1003F00008006141002487EA115284EAE7731A4336
:1004000040D0009A62B3019A012A4FEA075215DCE4
:10041000001B61EB02014FF0004202EA0752CDE9F6
:100420000042001C41F5801132462B4600F009FBCA
:1004300003B0BDE8F08F40462146F9E7001B61EBB1
:100440000201001C41F5801300185B412018A2F541
:10045000001747EB030140EAD570B6196D4111E072
:100460006D084FEA360645EAC0754FEA0752001B91
:1004700061EB0201001C41F5801149084FEA300090
:100480000019514132462B4603B0BDE8F04F00F051
:10049000C9BA0098012240000023D0EB020263EBAE
:1004A000E073009821464FEAE074B8EB000061EB7E
:1004B0000401E9E783F000435BE781F0004158E77E
:1004C0002DE9FE4F81EA030404F0004421F00041CD
:1004D00000944FF0000B23F0004350EA01045ED07B
:1004E00052EA03045BD0C3F30A54C1F30A552C4407
:1004F000A4F2F3340194A0FB0254C1F3130141F4BC
:100500008011C3F3130343F4801301FB024400FB87
:10051000034E840A970A44EA815447EA8357A4FBAE
:10052000076802958D0A05FB07854FEA932C04FBAB
:100530000C542705029D4FEA065847EA1637B5EBDB
:1005400008056EEB070C870E920E47EA811742EA08
:100550008312A7FB0201B6EB0B0164EB00042B0D29
:1005600043EA0C335E1844EB1C50DA465146E7FB75
:100570000201C5F313044FEA0B3343EA14534FEA65
:100580000432019C43EA0603A4F10C040294009C8B
:10059000CDE900B400F055FA03B0BDE8F08F0020BB
:1005A0000146F9E72DE9F04D81EA030404F0004B20
:1005B00021F0004514464FF0000A23F0004150EAB4
:1005C000050220D054EA01021DD0C5F30A570246A5
:1005D000C5F31303C1F31300C1F30A5640F48015A9
:1005E00043F48013A7EB0608101BD64608F2FD382B
:1005F00073EB050002D308F1010801E092185B419A
:10060000B8F1000F03DA00200146BDE8F08D0020AC
:100610004FF48011064684460EE0171B73EB050766
:1006200005D3121B63EB050306434CEA010C490892
:100630004FEA300092185B4150EA0107EDD152EACF
:10064000030012D082EA040083EA0501084305D0C2
:10065000101BAB4106D20122002306E000224FF01E
:10066000004302E06FF0010253101AEB06004CEB5E
:10067000085110EB0A0041EB0B01BDE8F04D00F012
:10068000D1B970B521F0004303430CD0C1F30A5532
:100690000024D5EB040564EB0403D617AD1AB3416F
:1006A00002DB0020014670BD201841EB025170BDF5
:1006B000C10F80EAE0700844CA079623002100F0C9
:1006C00036B996230022114600F031B9F0B4CA17AA
:1006D000CB0F50405140C61841F100054FEAC3729C
:1006E000314628004FF0960303D0B623F0BC00F04B
:1006F0001EB930460021F9E70EB5C10F80EAE0705F
:100700000844CA07002140F233438DE80E000A4630
:100710000B4600F096F903B000BD0EB540F2334130
:1007200002910021CDE900110A460B4600F089F93B
:1007300003B000BD00F0004220F00040C10DC0F346
:10074000160040F400007F2901DA00207047962946
:1007500003DCC1F19601C84001E096398840002AC7
:10076000F4D04042704720F00040C10DC0F31600A5
:1007700040F400007F2901DA00207047962903DC4D
:10078000C1F19601C840704796398840704770B5EE
:10079000C1F30A5201F000450024C1F3130140F2F5
:1007A000FF3341F480119A4201DA002070BD40F21B
:1007B00033439A42A2F2334203DC5242FFF7E3FC96
:1007C00000E090402C43F1D0404270BD00F0004268
:1007D00030F000400AD0C10D01F56071C0F3160081
:1007E00042EA0151C2084007114370470020014608
:1007F0007047000030B5041E71F1000404DB4FF0B7
:100800000044404264EB0101141E73F1000405DB57
:100810001C464FF00043524263EB04038B4208BF77
:10082000824230BD002801DBC0F10040002901DB1D
:10083000C1F1004181427047002801DBC0F1004056
:10084000002901DBC1F100418842704730B50B46F9
:10085000014600202022012409E021FA02F59D42F0
:1008600005D303FA02F5491B04FA02F52844151EC4
:10087000A2F10102F1DC30BD2DE9F05F0546002058
:1008800092469B4688460646814640241BE0284601
:10089000414647462246FFF776FC53465A46C01A61
:1008A000914110D311461846224600F016F82D1A31
:1008B00067EB01084F4622460120002100F00DF8A9
:1008C00017EB00094E41201EA4F10104DFDC48466D
:1008D00031462A464346BDE8F09F202A04DB203AF1
:1008E00000FA02F1002070479140C2F1200320FA83
:1008F00003F3194390407047202A06DBCB17203AB8
:1009000041FA02F043EAE07306E041FA02F3D04014
:10091000C2F1200291400843194670470029A8BF40
:100920007047401C490008BF20F00100704710B418
:10093000B0FA80FC00FA0CF050EA010404BF10BCCD
:10094000704749B1CCF1200421FA04F411FA0CF1FA
:1009500018BF012121430843A3EB0C01CB1D4FEA33
:1009600000614FEA102042BF002010BC704700EB2E
:10097000C35010440029A4BF10BC7047401C49005C
:1009800008BF20F0010010BC7047F0B4002802DC62
:10099000F0BC00207047C0F3C751C0F3160040F40C
:1009A0000000CA0701D14000491E3F2202EB610549
:1009B000002211464FF4000626FA01F31344D4181E
:1009C000844201D8001B1A464000491C1729F3DD58
:1009D0005100814202D24FF0FF3100E0002102EBD2
:1009E000C550F0BCFFF79ABF10B541000CD0C0F362
:1009F000C751962908DC7E2909DC06DB410204D0B8
:100A000000F0004040F07E5010BD002010BDC1F14C
:100A10009604C4F1200100FA01F1E040FFF77EFFE7
:100A2000A04010BD10B5141E73F1000408DA401C7C
:100A300041F1000192185B411A4301D120F00100FD
:100A400010BD2DE9F04D92469B4611B1B1FA81F2ED
:100A500002E0B0FA80F220329046FFF73EFF0446F3
:100A60000F4640EA0A0041EA0B0153465A46084342
:100A700013D0114653EA010019D0C8F14002504684
:100A8000FFF781FB05460E46504659464246FFF7A2
:100A900024FF084305D0012004E020463946BDE884
:100AA000F08D0020054346EAE0762C4337430A9850
:100AB0006305E40AA0EB08000022FD0A44EA47545B
:100AC0000A3002D500200146E9E701051019694105
:100AD000DDE9084500196941BDE8F04DA2E7C1F321
:100AE0000A52C1F3130140F2FF3341F480119A42DC
:100AF00002DA00200146704740F233439A42A2F2E4
:100B0000334202DC5242FFF73EBBFFF7E6BE10B5B0
:100B100000F0004420F00040C20DC0F3160040F485
:100B200000007F2A07DA7D2A00DA7D22763A00FA71
:100B300002F1002008E0962A09DCA2F1760100FA11
:100B400001F1C2F19602D040FFF7E8FE01E0963ACB
:100B50009040002C00D0404210BD000030B5041E73
:100B600071F1000404DB4FF00044404264EB0101EA
:100B7000141E73F1000405DB1C464FF00043524283
:100B800063EB0403994208BF904230BD00207047D8
:100B9000064C074D06E0E06840F0010394E80700CA
:100BA00098471034AC42F6D3FFF7A4FA286F000838
:100BB000486F00082DE9F04D00231A461B1A8A41A0
:100BC00003DB00200146BDE8F08DC1F30A52C1F3FA
:100BD000130141F480154FF0000BD10702D100182A
:100BE0006D41521E0027044640F2FF11384601EBCA
:100BF000620A3E468046024600204FF48011FFF70D
:100C0000C2FAC2197141BB1846EB0100B4EB030CE8
:100C100075EB000C04D3E41A65EB000517460E468D
:100C2000241908F101006D4180463428E3DDF919EB
:100C300046EB0600091BA84103D24FF0FF321346D2
:100C400001E0002213461BEB070046EB0A51BDE80A
:100C5000F04DFFF7E7BE000030B50478A500641C36
:100C600004704A51047804F0070404700C4C207896
:100C7000182803D8401C1A60207030BD002018606E
:100C800051F820401A68401C2244C0B21A6008285B
:100C9000F6D3D11702EB5170C010186030BD0000C0
:100CA0002400002070B586B00D460646144602A901
:100CB00004A800F0A5F9DDE90201FFF768FD12497B
:100CC00002462B46081FFFF7C7FF6846296800F059
:100CD0001DF80D4923462431081F009AFFF7BCFF79
:100CE000DDE90401FFF753FD074900EB80004200F6
:100CF00048313346081FFFF7AFFF206842F21071FA
:100D00000844206006B070BD5002002070B5054652
:100D10000E480E464068FFF7CBFC04463046FFF70E
:100D2000C7FC2146FFF7DBFAFFF750FD084A094BE5
:100D300004F0FEFB0022084BFFF7BFFB0022074B2D
:100D4000FFF7BEFBFFF723FD286070BD24000020E5
:100D5000EBE2361AC05BC83F0000F03F1AE9504191
:100D60002DE9F14F724EB069FFF7C6FC4FF0FF322C
:100D7000FFF787FC00226F4BFFF79CFB04460D46F4
:100D8000B6F91000FFF7B8FC0746884622462B4606
:100D900010461946FFF794FB3A464346FFF790FB8F
:100DA0006FF00E02FFF76DFC07468946B6F90E009C
:100DB000FFF7A2FC22462B46FFF782FB0122FFF73A
:100DC00060FC3A464B46FFF7D4FA82468846B6F9AD
:100DD0000C00FFF791FC1022FFF753FC07468946F1
:100DE0006FF0010250464146FFF74BFC3A464B4636
:100DF000FFF7BFFA82468B46B6F90800FFF77CFC86
:100E000022462B46FFF75CFB07468946B6F90A00E7
:100E1000FFF772FC22462B46FFF752FB22462B4679
:100E2000FFF74EFB6FF012042246FFF72AFC3A460A
:100E30004B46FFF79EFA2246FFF723FC05460F4676
:100E4000F088FFF76AFC06460C466FF00E02284653
:100E50003946FFF716FC0022374BFFF78AFA324675
:100E60002346FFF72DFB002204460D461346FFF7ED
:100E7000C1FC03D100200146BDE8F88F0098FFF7C0
:100E80003BFC00222D4BFFF718FB0E4607466FF088
:100E90000B0250465946FFF7F4FB3A463346FFF73C
:100EA0000CFB0022264BFFF70BFB22462B46FFF7DD
:100EB00079FB1F4D04460E46B5F91600FFF71CFCE2
:100EC00022463346FFF7FCFA22463346FFF7F8FA8C
:100ED0006FF01E02FFF7D5FB82468B46B5F9140072
:100EE000FFF70AFC22463346FFF7EAFA6FF00E02DC
:100EF000FFF7C7FB80468946B5F91200FFF7FCFBF8
:100F000005460F4642464B4650465946FFF731FAD2
:100F10002A463B46FFF72DFA6FF00302FFF7B1FBBD
:100F200001B022463346BDE8F04FFFF722BA000079
:100F3000B80200200040EF400000F03F00003041C8
:100F4000006AB8402DE9FC5F2B4C0646B4F902005C
:100F5000FFF7D2FB804689462088FFF7DEFB074675
:100F60006FF009020191FFF78CFB05468A46304677
:100F7000FFF7C2FB06466FF00D020091FFF781FB01
:100F80002A465346FFF796FA42464B46FFF798FA31
:100F900080468946B4F90400FFF7AEFB05468B4650
:100FA00038466FF00C020199FFF76BFB07468A4643
:100FB00030466FF010020099FFF763FB3A46534644
:100FC000FFF778FA02460B46FFF77AFA2A465B46A5
:100FD000FFF776FA42464B46FFF7CBF90E46054639
:100FE000FFF7D5FBA06102B028463146BDE8F05FAF
:100FF0000022024BFFF7D6BAB80200200000B4402E
:101000002DE9F04107460E46FC2000F051F8044659
:10101000FB2000F04DF80546FA2000F049F80003E7
:1010200040EA051040EA1410FFF78CFFC7E9000101
:10103000F92000F03DF80446F82000F039F80546A4
:10104000F72000F035F8000340EA051040EA1410DC
:10105000FFF786FEC6E90001BDE8F08170B5D0203B
:1010600000F026F80446F42000F022F80546F320AC
:1010700000F01EF80346582C2A46214604D0BDE84D
:101080007040094802F068BD084802F065FDFF2184
:10109000F42000F0A9F80C21F52000F0A5F8BDE837
:1010A000704000F023B80000906E0008DC6E00086D
:1010B00070B50546EC2401F04DFD204601F01CFD05
:1010C00001F094FD284601F017FD01F08FFD01F0BD
:1010D00041FDED2001F010FD01F088FD002001F040
:1010E000DBFC044601F05EFD204670BD70B5882033
:1010F000FFF7DEFF04468920FFF7DAFF44EA00200D
:10110000384C20808A20FFF7D3FF05468B20FFF75D
:10111000CFFF45EA002060808C20FFF7C9FF05461D
:101120008D20FFF7C5FF45EA0020A0808E20FFF745
:10113000BFFF05468F20FFF7BBFF45EA0020E08098
:101140009020FFF7B5FF05469120FFF7B1FF45EA74
:10115000002020819220FFF7ABFF05469320FFF788
:10116000A7FF45EA002060819420FFF7A1FF054614
:101170009520FFF79DFF45EA0020A0819620FFF70C
:1011800097FF05469720FFF793FF45EA0020E0818F
:101190009820FFF78DFF05469920FFF789FF45EA64
:1011A000002020829A20FFF783FF05469B20FFF74F
:1011B0007FFF45EA002060829C20FFF779FF05460B
:1011C0009D20FFF775FF45EA0020A0829E20FFF7D3
:1011D0006FFF05469F20FFF76BFF45EA0020E08286
:1011E00070BD0000B802002070B50E460546EC2424
:1011F00001F0B0FC204601F07FFC01F0F7FC28462E
:1012000001F07AFC01F0F2FC304601F075FC01F0CF
:10121000EDFCBDE8704001F0C5BCFEE77047000082
:1012200010B51D4C0221204600F03EF9002832D0B6
:1012300000220121204600F044F9072002F00EF9B7
:10124000044680060AD50F2002F050F920212720FD
:1012500002F02CF9FF21E12002F028F9600608D500
:101260000E4802F055F84021272002F01FF902F045
:101270006FF9E0060AD50F2002F038F91021272077
:1012800002F014F9FF21E12002F010F9BDE810404E
:10129000082000F071B910BD000C01402C020020A4
:1012A00072B6704770B5044600F010F90546601C30
:1012B00002D004480078044400F008F9401BA04222
:1012C000FAD370BD080000202DE9F84FDFF8B8917F
:1012D000002409F1040A0AF1040B23460F270BF13D
:1012E000040EC9E00125A5402A40AA427DD1674EDF
:1012F000D1F804C0ACEB0608B44532D014DCBCF124
:10130000030F3AD009DCBCF1000F2AD0BCF1010F69
:101310001CD0BCF1020F31D11DE0BCF1110F17D070
:10132000BCF1120F2AD119E0B8F5881F19D006DCDC
:10133000B8F5803F15D0B8F5801F1FD111E0B8F582
:10134000001F0ED0B8F5041F18D10AE0CB6815E0D5
:10135000CB681B1D12E0CB6808330FE0CB680C3361
:101360000CE08B682BB1012B4FF0080303D04561D3
:1013700004E0042302E0056100E00023FF2A01D815
:10138000064601E000F104064FEA840501D9A5F103
:101390002005D6F8008007FA05FC28EA0C0803FAB5
:1013A00005F548EA0508C6F800804D68ED0062D5ED
:1013B000374DAE6946F00106AE61AD6924F0030613
:1013C00005F001050095334D06EB050CDCF80850DF
:1013D000A607360F07FA06F825EA0805DFF8B880F1
:1013E000404503D14FF0000817E044E0DFF8AC803F
:1013F000404502D14FF001080FE0DFF8A4804045DE
:1014000002D14FF0020808E0DFF89880404502D191
:101410004FF0030801E04FF0040808FA06F848EA24
:101420000508CCF808804D68D9F80060ED034D46FA
:1014300001D5164300E096432E604D68DAF800604F
:10144000AD03554601D5164300E096432E604D6826
:10145000DBF80060ED025D4601D5164300E09643DF
:101460002E604D68DEF80060AD02754601D516436A
:1014700000E096432E60641C0D682A46E5407FF428
:1014800031AFBDE8F88F00000004014000001110EA
:10149000001002400000014000080140000C014023
:1014A00000100140001401408068084000D0012075
:1014B0007047C26821EA02030A4043EA024101611F
:1014C00070470AB1016170470904FBE70148806871
:1014D000704700000800002002488168027811442B
:1014E0008160704708000020074810B5016841F08E
:1014F00010010160032000F079F80F2000F006F8D9
:1015000000F024F8002010BD0020024070B50D4D01
:1015100004464FF47A712878B1FBF0F00A49096863
:10152000B1FBF0F000F0E1FD48B9102C07D2002229
:101530002146501E00F03AF800206C6070BD01207A
:1015400070BD00000800002014000020094808B504
:10155000816941F001018161816901F0010100911E
:10156000C16941F08051C161C06900F080500090B4
:1015700008BD000000100240002809DB00F01F0237
:10158000012191404009800000F1E020C0F8801264
:101590007047002809DB00F01F020121914040093B
:1015A000800000F1E020C0F800117047F0B40E4B4D
:1015B0001B680C46C3F30223C3F10705042D00D9B1
:1015C0000425191D072901D2002300E0DB1E012696
:1015D00006FA05F1491E214099409E40761E1640AC
:1015E0003143F0BC02F0EFBA0CED00E0064900F028
:1015F000070208684FF6FF03184040EA0220034A3A
:1016000010430860704700000CED00E00000FA0590
:101610002DE9F0470F46050061D0434E306800F0D9
:101620000700B84209D2306820F007003843306024
:10163000306800F00700B84251D128683B4C810760
:1016400012D5400703D5606840F4E06060602878F8
:10165000000703D5606840F4605060606068A96866
:1016600020F0F000084360602878C00728D0686840
:10167000012810D02168022810D0890700292EDA0D
:10168000616821F0030101436160FFF71FFF80469D
:1016900041F288390DE021688903EFE78901EDE720
:1016A000FFF714FFA0EB0801494502D90320BDE86C
:1016B000F0876068696800F00C00B0EB810FEFD133
:1016C000306800F00700B8420BD9306820F00700FE
:1016D00038433060306800F00700B84201D0012084
:1016E000E5E72878400705D56068E96820F4E06000
:1016F000084360602878000706D56068296920F4EF
:10170000605040EAC100606000F03EF86168084A3D
:10171000C1F30311515CC8400649086006480068DF
:10172000FFF7F4FE0020C2E7002002400010024054
:10173000846C0008140000200C00002001480068A0
:1017400070470000140000200448054900684968FB
:10175000044AC1F30221515CC840704714000020C4
:1017600000100240946C000804480549006849686C
:10177000044AC1F3C221515CC840704714000020E4
:1017800000100240946C000812A185B00FC98DE8CA
:101790000F0014A0144A006804905168134801F027
:1017A0000C03042B10D0082B0ED1C1F38343C903C3
:1017B0001DF803000AD5516804AAC1F34041515CE9
:1017C0000A4A5043B0FBF1F005B07047084948435E
:1017D000FAE7000002030405060708090A0B0C0DCE
:1017E0000E0F1010010200000010024000127A00DB
:1017F00000093D002DE9F84F040070D02078C04D5D
:10180000C00749D06868C0F38100012807D0686824
:10181000C0F38100022809D16868C00306D5286892
:10182000800339D560680028E7D035E06068B0F5FE
:10183000803F0BD010B1B0F5A02F11D0286820F454
:1018400080302860286820F4802002E0286840F476
:1018500080302860606890B1FFF738FE06460AE0E5
:10186000286840F480202860F0E700BFFFF72EFED4
:10187000801B642873D828688003F7D50CE0FFF735
:1018800025FE064605E000BFFFF720FE801B64280A
:10189000F0D828688003F7D420789A4E80074FF05C
:1018A00001094FF0000839D5686810F00C0F07D017
:1018B0006868C0F38100022809D16868C00306D4B3
:1018C0002868800714D52069012808D110E0206914
:1018D000B0B1C6F80090FFF7F9FD074605E00AE150
:1018E000FFF7F4FDC01B0228C4D828688007F7D58D
:1018F0002868616920F0F80040EAC10028600DE026
:10190000C6F80080FFF7E2FD074604E0FFF7DEFDC2
:10191000C01B022823D828688007F7D42078000746
:101920002CD57948A169D9B1C0F80090FFF7CEFD58
:10193000074604E0FFF7CAFDC01B02280FD8686AFB
:101940008007F7D571484FF4FA510068B0FBF1F009
:10195000009000BF0098411E0091FAD20EE080E096
:10196000C0F80080FFF7B2FD074604E0FFF7AEFDC8
:10197000C01B022875D8686A8007F7D42078400712
:1019800060D5E8690027C00008D4E86940F08050BD
:10199000E861E869012700F0805000905C48016828
:1019A000C90513D40168834641F480710160FFF7D3
:1019B0008DFD824606E000BFFFF788FDA0EB0A0020
:1019C00064284ED8DBF80000C005F5D5E068012892
:1019D0000AD008B1052813D0286A20F00100286237
:1019E000286A20F0040002E0286A40F00100286222
:1019F000E06841F2883B98B1FFF768FD82460BE052
:101A0000286A40F004002862EEE700BFFFF75EFDA1
:101A1000A0EB0A0159455AD8286A8007F6D50CE090
:101A2000FFF754FD824605E0FFF750FDA0EB0A01E9
:101A300059454CD8286A8007F6D41FB1E86920F0D0
:101A40008050E861E06988B36968C1F381010229C7
:101A500044D00228C6F8608004D0FFF737FD044662
:101A600038E034E0FFF732FD074604E0FFF72EFDD3
:101A7000C01B02282BD828688001F7D4206AB0F553
:101A8000803F05D16868A16820F400300843686091
:101A9000D4E908010843696821F4741108436860B7
:101AA000C6F86090FFF712FD044606E025E000BF8F
:101AB000FFF70CFD001B022809D828688001F7D524
:101AC0001BE000BFFFF702FD001B022802D9032024
:101AD000BDE8F88F28688001F4D40EE00128F7D023
:101AE0006868226A00F48031914204D1616A00F48E
:101AF0007010884201D00120EAE70020E8E70000EA
:101B000000100240000042428004424214000020C3
:101B10000070004070B5040009D0606A002540B133
:101B200025616561A56294F8510040B10CE0012087
:101B300070BD6068B0F5827FF4D0E561F2E784F8AB
:101B40005050204600F040F8022084F851002068F0
:101B5000016821F040010160A088218900F48270B1
:101B600001F404410843A18901F400610843217C88
:101B700001F002010843217D01F001010843218B9E
:101B800001F400710843217F01F03801084394F803
:101B9000201001F080010843218D01F40051084319
:101BA00021680860A069042101EA104021684860AA
:101BB0002068C16921F40061C1616565012084F874
:101BC0005100002070BD000030B585B000240094A5
:101BD00001940294039400681549884226D115A007
:101BE00001F0BAFF1648816941F480518161816931
:101BF00001F480510491816941F00401816180699F
:101C0000104D00F004000490A020009002200190EC
:101C10000320039069462846FFF756FB4020CDE994
:101C20000004694628460294FFF74EFB05B030BD1C
:101C30000030014073706920696E69740000000013
:101C400000100240000801402DE9F84F04464068AA
:101C50000025984616460F464FF0040BB0F5827FDC
:101C600001D1A06888B194F85000012818D0012053
:101C700084F85000FFF72AFC814694F851004FF099
:101C8000000A01280ED0022582E084F851B01346E4
:101C90000A462046CDF8008000F036F9BDE8F88FFE
:101CA0000220FBE7002F72D0002E70D084F851B0D4
:101CB000C4F854A0A763A687E687C4F830A0A4F8A8
:101CC00034A0A4F836A0C4F840A0C4F844A0A0688A
:101CD000B0F5004F09D12068016821F04001016092
:101CE0002068016821F4804101602068016849068C
:101CF00003D4016841F040010160E068D8B139E0E7
:101D000020688168C90709D0007BA16B0870A06BAF
:101D1000401CA063E08F401EE0870CE0FFF7D6FB7D
:101D2000A0EB0901414503D3B8F1FF3F03D036E0F2
:101D3000B8F1000F33D0E08F0028E1D11DE020681A
:101D40008168C90709D0C068A16B0880A06B801C9E
:101D5000A063E08F401EE0870CE0FFF7B7FBA0EB2D
:101D60000901414503D3B8F1FF3F03D017E0B8F1B3
:101D7000000F14D0E08F0028E1D14A4641462046AA
:101D800001F052FC08B120206065606D00B10125B2
:101D9000012084F8510084F850A028467EE70325EE
:101DA000F6E72DE9F84F044690F8500000271D464D
:101DB0001646894601280DD04FF0010B84F850B02B
:101DC000FFF784FB804694F85100BA46012804D0FE
:101DD000022793E00220BDE8F88FB9F1000F73D01D
:101DE000002E71D0032084F85100C4F854A0C4F828
:101DF0003090A686E686C4F838A0A4F83CA0A4F8E3
:101E00003EA0C4F844A0C4F840A0A068B0F5004FBC
:101E100009D12068016821F0400101602068016853
:101E200041F48041016020680168490603D40168DB
:101E300041F040010160E068B0F5006F606803D0D8
:101E400030B3012E24D041E008B1012E1CD1206B0B
:101E500021680088C86006E020688168890709D584
:101E6000216B0988C160206B801C2063E08E401EBE
:101E7000E08609E0FFF72AFBA0EB0800A84202D3A6
:101E8000681C01D031E07DB3E08E0028E4D120E071
:101E9000206B21680078087306E020688168890754
:101EA00009D5216B09780173206B401C2063E08EFB
:101EB000401EE0860AE0FFF709FBA0EB0800A842FD
:101EC00003D3681C02D010E017E06DB1E08E00284B
:101ED000E3D142462946204601F0D4FB08B1202038
:101EE0006065A06818B106E0FFE7032706E02068F8
:101EF000C16880680090606D00B1012784F851B01E
:101F000084F850A0384666E72DE9F84F044690F86B
:101F1000500000270A9E1D4692468B464FF001094D
:101F200001280ED0012084F85000FFF7CFFA804638
:101F300094F85100616801280CD0B1F5827F07D177
:101F400002E00220BDE8F88FA16809B9042801D099
:101F50000227C2E0BBF1000F27D0BAF1000F24D056
:101F60001DB394F85100042802D0052084F85100D4
:101F700000206065C4F838A0E587A587C4F830B0B4
:101F8000E586A5862064606420680168490603D45C
:101F9000016841F040010160E068B0F5006F6068E1
:101FA00005D0E8B3012D46D07FE0012795E008B1C8
:101FB000012D39D1206B21680088C860206B801CFE
:101FC0002063E08E401EE0862EE02068816889074D
:101FD0000FD5E18E69B1B9F1010F0AD1216B0988E2
:101FE000C160206B801C2063E08E401EE0864FF0B5
:101FF000000920688168C9070CD0E18F51B1C06821
:10200000A16B0880A06B801CA063E08F401EE0875E
:102010004FF00109FFF75AFAA0EB0800B04200E0C8
:1020200009E001D3701C50D1E08E0028CDD1E08FA3
:102030000028CAD13FE0206B216800780873206B2C
:10204000401C2063E08E401EE0862EE02068816800
:1020500089070FD5E18E69B1B9F1010F0AD1216B62
:1020600009780173206B401C2063E08E401EE086DF
:102070004FF0000920688168C9070CD0E18F51B189
:10208000C068A16B0870A06B401CA063E08F401E6D
:10209000E0874FF00109FFF719FAA0EB0800B04202
:1020A00002D3701C01D010E07EB1E08E0028CDD1AB
:1020B000E08F0028CAD142463146204601F0E2FABC
:1020C00028B101272020606507E0032705E0A0680C
:1020D00018B92068C16880680090012084F8510018
:1020E000002084F8500038462CE710B5401EB0F1AF
:1020F000807F01D3012010BD4FF0E02460610F21EB
:10210000601701F060FD0020A06107202061002021
:1021100010BD7047704710B590F83C20012A22D0BE
:10212000012280F83C20CA688C6822F44072224365
:102130004C6822F4806222430C6822F4006222433D
:102140000C6922F4805222434C6922F4005222434B
:10215000C969002322F480420A4301684A6480F876
:102160003C30002010BD022010BD000070B590F87A
:102170003C20012A26D0012480F83C40022280F82D
:102180003D2003685A689D6822F070060A68324351
:102190005A600D4B02689A4208D0B2F1804F05D0C8
:1021A0000A4B9A4202D00A4B9A4204D1496825F060
:1021B00080031943916080F83D40002180F83C1075
:1021C000084670BD022070BD002C01400004004094
:1021D0000008004010B5040003D094F83D0010B191
:1021E00007E0012010BD002084F83C00204600F0EC
:1021F0001FF8022084F83D00211D206801F0E6FA56
:10220000012084F8460084F83E0084F83F0084F8FA
:10221000400084F8410084F8420084F8430084F8C8
:10222000440084F8450084F83D00002010BD000003
:1022300038B505460068104CB0F1804F0FD1E06909
:1022400040F00100E061E069002200F00100009030
:1022500011461C20FFF7AAF91C20FFF79AF907493D
:102260002868884207D1A06940F40060A061A06995
:1022700000F40060009038BD00100240002C0140C6
:1022800090F83D10012901D001207047022180F80B
:102290003D1000680B49884208D0B0F1804F05D04E
:1022A0000949884202D00949884204D1816801F075
:1022B0000701062903D0016841F0010101600020F7
:1022C00070470000002C014000040040000800405E
:1022D00090F83D10012901D001207047022180F8BB
:1022E0003D100168CA6842F00102CA6000680B49EB
:1022F000884208D0B0F1804F05D00949884202D009
:102300000849884204D1816801F00701062903D0F9
:10231000016841F00101016000207047002C01407C
:10232000000400400008004070B5044690F83C00EE
:10233000012817D0012584F83C50022084F83D0084
:102340002068826822F0770222F47F428260086867
:10235000502830D00DDC20284DD005DC98B3102853
:102360003BD148E0022070BD302844D0402834D111
:1023700039E0602828D0702806D0B0F5805F2CD0D6
:10238000B0F5005F29D10AE0CB68D1E901212068CE
:1023900001F05FFA2068816841F0770109E0CB68BD
:1023A000D1E90121206801F054FA2068816841F4E4
:1023B0008041816011E0CA684968206801F0FEFA36
:1023C0005021206807E016E0CA684968206801F0DB
:1023D00006FB6021206801F046FA84F83D50002099
:1023E00084F83C0070BDCA684968206801F0E6FACC
:1023F00040212068EFE7226801461046EBE770476E
:1024000070B50446006801694FF00005C9438907AB
:1024100015D4C168C943890711D4E91E016101209F
:102420002077206880698007204602D0FFF7E7FF09
:1024300004E000F0CDF8204600F05CF92577206834
:102440000169C943490717D4C168C943490713D46F
:102450006FF004010161022020772068806910F488
:10246000407F204602D0FFF7CAFF04E000F0B0F83A
:10247000204600F03FF9257720680169C943090724
:1024800016D4C168C943090712D46FF0080101616D
:10249000042020772068C0698007204602D0FFF71B
:1024A000AEFF04E000F094F8204600F023F9257711
:1024B00020680169C943C90617D4C168C943C90660
:1024C00013D46FF010010161082020772068C069E3
:1024D00010F4407F204602D0FFF791FF04E000F0A7
:1024E00077F8204600F006F9257720680169C9438E
:1024F000C90708D1C168C943C90704D1891E016150
:10250000204600F047F920680169C943090609D44B
:10251000C168C943090605D46FF0800101612046F6
:10252000FFF7F7FD20680169C943490609D4C1686E
:10253000C943490605D46FF040010161204600F00F
:1025400043F920680169C94389060BD4C168C943AE
:10255000890607D46FF0200101612046BDE8704074
:10256000FFF7D8BD70BD000010B586B00021009106
:10257000019102910391134C0368134902221348FD
:10258000A3420AD18B6943F004038B61896901F08E
:10259000040104914FF410610BE0B3F1804F0ED1B0
:1025A0008B6943F004038B61896901F00401049194
:1025B0000C21CDE9001269460392FEF785FE06B0B4
:1025C00010BD0000002C0140001002400008014036
:1025D000704770B5044690F83C000D4601280AD0BB
:1025E000012084F83C0042B1042A18D0082A2AD0DD
:1025F0000C2A4DD139E0022070BD206801F03CF971
:102600002068816941F0080181612068816921F0B9
:1026100004018161206881692A69114311E0206801
:1026200001F052F92068816941F4006181612068FC
:10263000816921F480618161206881692A6941EAA8
:102640000221816124E0206801F06AF92068C169F3
:1026500041F00801C1612068C16921F00401C16134
:102660002068C1692A69114311E0206801F084F9EA
:102670002068C16941F40061C1612068C16921F429
:102680008061C1612068C1692A6941EA0221C16192
:10269000002084F83C0070BD10B5040003D094F80D
:1026A0003D0010B107E0012010BD002084F83C007F
:1026B000204600F01EF8022084F83D00211D20680D
:1026C00001F084F8012084F8460084F83E0084F884
:1026D0003F0084F8400084F8410084F8420084F808
:1026E000430084F8440084F8450084F83D0000204D
:1026F00010BD70477047000010B50446022249B172
:1027000004290ED0082913D094F84100012816D0CE
:10271000012010BD94F83E000128F9D184F83E2034
:102720000FE094F83F000128F2D184F83F2008E040
:1027300094F840000128EBD184F8402001E084F8AF
:1027400041200122206801F077F80F492068884273
:1027500003D1426C42F4004242642068884208D0AF
:10276000B0F1804F05D00949884202D0084988421B
:1027700004D1816801F00701062903D0016841F006
:1027800001010160002010BD002C01400004004048
:10279000000800400068B0F1804F12D1094801687C
:1027A000491C01604168491C41608168491C816085
:1027B000C168491CC1600169491C01614169491C2A
:1027C0004161704788000020704710F83D1F407835
:1027D0000843704770B5040004D094F83D0000250C
:1027E00010B106E0012070BD84F83C50204600F096
:1027F00023F8242084F83D002068C16821F40051AA
:10280000C160204601F0FEF82068016921F4904182
:1028100001612068416921F02A0141612068C16895
:1028200041F40051C1602564202084F83D0084F803
:102830003E00002070BD000030B585B0002400943B
:1028400001940294039400681B49884231D11B48CB
:10285000816941F480418161816901F48041049181
:10286000816941F0040181618069154D00F0040027
:1028700004904FF400700090022001900320039018
:1028800069462846FEF720FD2815CDE90004694673
:1028900028460294FEF718FD002211462520FEF777
:1028A00085FE2520FEF775FE01220649064800F048
:1028B0000DF805B030BD00000038014000100240A6
:1028C00000080140020000207001002090F83E3016
:1028D000202B0ED159B152B190F83C30012B08D0C9
:1028E000012380F83C300023036301F0E7B80120A6
:1028F00070470220704700002DE9F843044690F825
:102900003D001F4616460D4620284CD1C5B1BEB12C
:1029100094F83C00012846D0012084F83C004FF098
:102920000008C4F84080212084F83D00FEF7CEFD69
:10293000A6848146E684A068B0F5805F03D004E0F9
:102940000120BDE8F883206928B12E465FF000051C
:1029500084F83C800EE00026FAE78021204601F052
:10296000C8F8A0B9AEB116F8010B21684860E08C38
:10297000401EE084E08C4B464FF000020097002898
:10298000EBD14FF04001204601F0B3F830B1032005
:10299000D7E735F8020BC0F30800E6E7202084F8FB
:1029A0003D000020CDE70220CBE7FEE77CB51446D2
:1029B0000D4606466B4606223B21682000F0BAF918
:1029C00000280BD1BDF8001049BA3180BDF80210C3
:1029D00049BA2980BDF8041049BA21807CBD7CB574
:1029E00014460D4606466B4606224321682000F039
:1029F000A1F900280BD1BDF8001049BA3180BDF80B
:102A0000021049BA2980BDF8041049BA21807CBD62
:102A100010B50F4C002240212046FEF752FD00F079
:102A2000F3FD002280212046FEF74BFD022002F03C
:102A300085F9012240212046FEF743FD022002F0E5
:102A40007DF920460022BDE810404021FEF739BD47
:102A5000000C014010B50F4C002240212046FEF72B
:102A600030FD00F0D1FD012280212046FEF729FD36
:102A7000022002F063F9012240212046FEF721FDE9
:102A8000022002F05BF920460022BDE81040402100
:102A9000FEF717BD000C01402DE9F0410746002468
:102AA00000F0A2FD134E0025002240213046FEF723
:102AB00008FD022002F042F9012240213046FEF7D3
:102AC00000FD6006040E80213046FEF7EDFC08B1E3
:102AD000641CE4B2022002F031F96D1CEDB2082D45
:102AE000E2D327B1FFF794FF2046BDE8F081FFF75E
:102AF000B1FFF9E7000C014070B5054600F084FD18
:102B0000134E002240213046FEF7DBFC002428064D
:102B100001D5012200E0002280213046FEF7D1FCE1
:102B20006806050E012240213046FEF7CAFC02204D
:102B300002F004F9002240213046FEF7C2FC0220D8
:102B400002F0FCF8641CE4B2082CE0D370BD000075
:102B5000000C014010B500F057FD00F035FD104CA1
:102B6000012280212046FEF7ACFC012240212046B4
:102B7000FEF7A7FC022002F0E1F8002280212046A7
:102B8000FEF79FFC022002F0D9F8002240212046E7
:102B9000FEF797FCBDE81040022002F0CFB800001D
:102BA000000C014010B500F02FFD00F00DFD0E4CA3
:102BB000002240212046FEF784FC0022802120468E
:102BC000FEF77FFC022002F0B9F8012240212046E6
:102BD000FEF777FC012280212046FEF772FCBDE85B
:102BE0001040022002F0AAB8000C014070B5002489
:102BF00000F0FAFC124D012280212846FEF761FC0C
:102C0000022002F09BF8012240212846FEF759FCE1
:102C1000022002F093F880212846FEF745FC0128A7
:102C200006D0002240212846FEF74BFC002070BD54
:102C3000641CE4B2FA2CFBD9FFF7B4FF012070BD8D
:102C4000000C014010B500F0DFFC00F0BDFC80215D
:102C50006B2000F0DEF86420FEF724FB00216B20DF
:102C600000F0D7F8032000F0A0F8032000F098F857
:102C70004FF47A7000F0B6F80021382000F0C9F85F
:102C800000216A2000F0C5F80021232000F0C1F8DF
:102C90008021372000F0BDF8752000F02DF80446A3
:102CA00001460AA000F058FF682C01D0012010BD99
:102CB00001216B2000F0ADF800216C2000F0A9F894
:102CC00006A000F049FF002010BD00006D707520C7
:102CD00069642069732025752E2E2E00736574207B
:102CE0007261746520666F72206D70752069732043
:102CF000313030300000000010B50446FFF72AFFE5
:102D0000D020FFF7F9FEFFF771FF2046FFF7F4FE32
:102D1000FFF76CFFFFF71EFFD120FFF7EDFEFFF777
:102D200065FF0020FFF7B8FE0446FFF73BFF204693
:102D300010BD00002DE9F0411D4614460F46064621
:102D4000FFF708FF7006000EFFF7D6FEFFF74EFFF5
:102D500020B1FFF727FF0120BDE8F0813846FFF7DB
:102D6000CBFEFFF743FFFFF7F5FE012000EB460027
:102D7000C0B2FFF7C1FEFFF739FF09E0012C0DD00B
:102D80005FF00100FFF788FE641E05F8010BE4B256
:102D9000002CF3D1FFF706FF0020DDE70020F1E76C
:102DA000C006010E1C2000F034B8C006010E1B2026
:102DB00000F02FB8BC2801D3012110E0622801D314
:102DC00002210CE02A2801D3032108E0142801D3B2
:102DD000042104E00A2801D3052100E006211A207D
:102DE00000F017B810B504464FF47A70844201D948
:102DF000044602E0042C00D20424B0FBF4F0401E90
:102E0000C1B2192000F005F86008BDE81040FFF7D6
:102E1000D1BF70B50C460546FFF79CFED020FFF7EA
:102E20006BFEFFF7E3FE50B92846FFF765FEFFF79C
:102E3000DDFE2046FFF760FEFFF7D8FE18B1FFF772
:102E4000B1FE012070BDFFF7ADFE002070BD000097
:102E50002DE9F047444886B0816941F0080181615D
:102E6000816901F008010491816941F010018161DB
:102E7000816901F010010491816941F020018161B3
:102E8000816901F020010491816941F004018161AF
:102E90008069DFF8D8A000F00400012204901146F8
:102EA0005046FEF70EFBDFF8C8904FF40068012291
:102EB00041464846FEF705FB012403250027009400
:102EC000694650460194CDE90245FEF7FDF9CDE98A
:102ED000008469464846CDE90245FEF7F5F901222E
:102EE00010215046FEF7EDFA012211464846FEF742
:102EF000E8FA102003958DE8910069465046FEF7E8
:102F0000E3F903950094CDE9014769464846FEF789
:102F1000DBF902260096CDE9017469464846FEF7C2
:102F2000D3F90420CDE90006694603955046FEF723
:102F3000CBF90820CDE90006694603955046FEF717
:102F4000C3F92002CDE90006694603955046FEF715
:102F5000BBF9CDE90086694650460395FEF7B4F902
:102F600006B0BDE8F08700000010024000080140F4
:102F7000000C0140124810B5104901604FF48271F5
:102F8000416000218160C1604FF400720161C0E9BD
:102F900005122822C0E90721416281620A21C1622B
:102FA000FEF7B8FD20B107A000F0D6FDFEF778F9D6
:102FB000BDE8104008A000F0CFBD00000030014087
:102FC000B401002073706920696E697420657272A3
:102FD0006F72200D0A00000073706920696E6974B9
:102FE0002073756363657373200D0A0010B596B086
:102FF00000240F9410941194129413941C21684689
:103000001494FDF7D7F8202107A8FDF7D3F832482C
:10301000304901604721C0E9011440F2E731C0E9BD
:1030200003148021C0E90541FFF7D4F808B1FEF789
:1030300037F94FF480500F900FA92748FFF774F924
:1030400008B1FEF72DF92448FFF726FB08B1FEF77B
:1030500027F9139413A920481494FFF787F808B1AF
:10306000FEF71EF96020CDE9000402940494059453
:103070000022694618480694FFF7ABFA08B1FEF73C
:103080000FF90C2269461448FFF7A3FA08B1FEF7BE
:1030900007F90794089409944FF400500A94CDE975
:1030A0000B4007A90C480E94FFF735F808B1FEF75E
:1030B000F7F80948FFF758FA0748FFF7E1F8002149
:1030C0000548FFF719FB0C210348FFF715FB16B065
:1030D00010BD0000002C01405C1C002010B58EB01B
:1030E00000240794089409940A940B941C216846C0
:1030F0000C94FDF75FF825484FF0804101604721AF
:10310000C0E9011440F2E731C0E903148021816174
:10311000FFF760F808B1FEF7C3F84FF4805007904E
:1031200007A91A48FFF700F908B1FEF7B9F80B94A0
:103130000BA916480C94FFF719F808B1FEF7B0F880
:103140006020CDE900040294082269460F480494E7
:10315000FFF73FFA08B1FEF7A3F80C2269460B48C7
:10316000FFF737FA08B1FEF79BF80848FFF7FCF9BC
:103170000648FFF7ADF808210448FFF7BDFA0C2117
:103180000248FFF7B9FA0EB010BD0000A41C0020E1
:103190000E4810B50C4901604FF4E1314160002147
:1031A00081600C22C160C0E904128161C161FFF736
:1031B00011FB08B1FEF774F8BDE810400122044984
:1031C0000248FFF783BB0000003801407001002077
:1031D00002000020FEE7FEE710B505E06420FEF7E0
:1031E00061F804A000F0B8FC00F0ECF80028F5D07D
:1031F00010BD00000D4E524632343031206E6F202B
:10320000636F6E6E6563742E2E2E0D0A0000000033
:1032100010B51E4C002201212046FEF752F9032171
:10322000232000F043F905221949302000F08AF8E4
:10323000052217492A2000F085F81A21242000F0E1
:1032400035F90121222000F031F90121212000F07F
:103250002DF92021312000F029F90D490522491DC1
:103260002A2000F06FF81E21252000F01FF92721E9
:10327000262000F01BF90F2000F038F9204601222B
:10328000BDE810401146FEF71CB90000000C0140DB
:103290001A0000202DE9F743DFF8589016468846BB
:1032A000002210214846FEF70CF94FF0FF373B464D
:1032B000012269461048FEF774FD054600240EE021
:1032C0003B46012241460C48FEF7BEFC050003D0F8
:1032D0000AA000F041FC04E008F10108641CB442BB
:1032E000EEDB012210214846FEF7EBF82846BDE848
:1032F000FE83000000080140B401002048414C5FFB
:103300004F4B206E6F742073756363657373200079
:1033100070B50B4D0446002201212846FEF7D1F876
:10332000202221466120FFF7B5FFFF21E22000F0B7
:10333000BDF82846BDE8704001221146FEF7C1B82D
:10334000000C01402DE9F743DFF8589016468846F7
:10335000002210214846FEF7B4F84FF0FF373B46F5
:10336000012269461048FEF71CFD054600240EE0C8
:103370003B46012241460C48FEF713FD050003D0F1
:103380000AA000F0E9FB04E008F10108641CB44263
:10339000EEDB012210214846FEF793F82846BDE8EF
:1033A000FE83000000080140B401002048414C5F4A
:1033B0004F4B206E6F742073756363657373322097
:1033C000000000001CB512A10522D1E90001CDE9E1
:1033D000000169463020FFF7B5FF0522694610203D
:1033E000FFF758FF00216846425CA52A03D1491C1B
:1033F000C9B20529F8D3052904D007A000F0ACFB19
:1034000000201CBD06A000F0A7FB01201CBD000091
:10341000A5A5A5A5A5000000692069732025640065
:1034200032343031207375636365737300000000BC
:1034300010B5FFF7D1FE012210210648FEF741F832
:10344000002201210448FEF73CF8BDE81040FFF7D8
:10345000DFBE000000080140000C014031B5114DF5
:1034600084B0002210212846FEF72BF8FF208DF8AB
:1034700004004FF0FF342346012204A90A48FEF756
:1034800090FC012302AA01A907480094FEF73CFD25
:10349000012210212846FEF714F89DF8080005B017
:1034A00030BD000000080140B401002073B50D4C90
:1034B000002210212046FEF704F84FF0FF352B467E
:1034C000012269460848FEF76CFC2B46012201A93F
:1034D0000548FEF766FC012210212046FDF7F1FFAA
:1034E00030467CBD00080140B401002010B5164CE8
:1034F0000E284FF000024FF00101204613D0FDF7D7
:10350000E0FF0F212020FFF7D1FF7E212720FFF7CA
:10351000CDFF012211462046FDF7D3FFBDE8104044
:10352000C82001F00BBCFDF7CCFF0E212020FFF7D7
:10353000BDFF7E212720FFF7B9FF20460122BDE80D
:1035400010401146FDF7BDBF000C01407047000060
:1035500010B51B481B4C017804F8021B417804F895
:10356000011C81782170C17861700179A170407966
:10357000E0700621124801F0A7FA60600A211048A5
:1035800001F0A2FAA0600E210D4801F09DFAE06062
:1035900012210B4801F098FA20611621084801F029
:1035A00093FA60611A21064801F08EFAA0611E218B
:1035B000034801F089FAFDF7D6F8207710BD000026
:1035C0002C020020040300201FB5402000900120A1
:1035D000019002900220039069460248FDF774FEB4
:1035E0001FBD0000000C01401FB58020009000208E
:1035F0000190012002900220039069460148FDF7E6
:1036000063FE1FBD000C01401FB58020009001200B
:10361000019002900220039069460248FDF754FE93
:103620001FBD0000000C0140F8B5044640684FF48F
:103630008273984217D1A0684FF48065B0F5004FAF
:1036400001D0A8420FD12068066826F04006066027
:103650006068984207D1A068A84204D100920B4646
:103660000022012103E000920B4600228021204627
:1036700000F018F8002804D0606D40F0200060656C
:103680000320F8BD38B50B46009204460022802185
:1036900000F008F8002804D0606D40F0200060655C
:1036A000032038BD2DE9F8431E469146884604465E
:1036B000089DFDF70BFF401B351AFDF707FF074676
:1036C00025480068C0F3CB30684338E0701C37D021
:1036D000FDF7FCFEC01BA84203D215B1009860B3F1
:1036E0002CE02068416821F0E00141606068B0F59D
:1036F000827F0BD1A068B0F5004F02D0B0F5806F8B
:1037000004D12068016821F040010160A06AB0F591
:10371000005F09D12068016821F400510160206830
:10372000016841F400510160012084F8510000203B
:1037300084F850000320BDE8F8830025401E009067
:103740002068816838EA010004D000214945BDD1D4
:103750000020F0E70121F9E7140000207047FDF791
:10376000BBBE30B58FB028216846FCF723FD14217D
:103770000AA8FCF71FFD01210804CDE90010002470
:10378000029402250491CDE907504FF4E01009900E
:103790006846FEF72FF800B172B60F20CDE90A0592
:1037A0004FF48060CDE90C4002210AA80E94FDF789
:1037B0002FFF002800D072B60FB030BD7047000058
:1037C0000148FEF71DBE0000A41C0020F0B50268F1
:1037D000164B174C174D4FF08047984205D0B84212
:1037E00003D0A04201D0A84203D122F070064A685B
:1037F0003243984205D0B84203D0A04201D0A8423B
:1038000003D122F44074CA6822434C6922F080023A
:10381000224302608A68C2620A688262984201D1C9
:103820000969016301214161F0BD0000002C0140E4
:10383000000400400008004010B501F01F03012102
:10384000046A99408C430462016A9A401143016200
:1038500010BD10B5846842EA032224F47F440A4371
:103860002243826010BD826822F070020A4342F057
:10387000070181607047000030B5026A22F0010242
:103880000262026A4368846924F073050C682C4361
:1038900022F002058A682A430A4DA8420BD122F081
:1038A0000805CA6823F440732A434D6922F00402D4
:1038B0001D438B692B434360846149684163026205
:1038C00030BD0000002C014030B5026A22F0100229
:1038D0000262026A436884690D6824F4E64444EA9B
:1038E00005248D6822F0200242EA05120B4DA84201
:1038F0000ED1CD6822F0800242EA05124D6923F410
:10390000406343EA85038D6922F0400243EA850360
:103910004360846149688163026230BD002C0140CC
:1039200030B5026A22F480720262036A4268C46996
:1039300023F4007324F073050C682C438D6843EA6C
:1039400005230C4DA8420ED1CD6823F4006343EA51
:1039500005234D6922F4405242EA05128D6923F491
:10396000806342EA05124260C4614968C163036230
:1039700030BD0000002C014030B5026A22F48052B4
:103980000262046A4268C3690D6823F4E64343EAAD
:1039900005238D6824F4005444EA0534064DA842FA
:1039A00004D14D6922F4804242EA85124260C3612B
:1039B00049680164046230BD002C014010B5036AFF
:1039C000046A24F001040462846924F0F00444EAE7
:1039D000021423F00A020A438461026210BD10B58A
:1039E000036A23F0100303628369046A23F47043BB
:1039F00043EA023224F0A00343EA0111826101622A
:103A000010BD000070B5044600680169E26821F449
:103A10004051114301612169A0680843616908436D
:103A20002168CA6841F20C639A430243CA60206865
:103A30004169A26921F44071114341611E49206826
:103A4000884202D1FDF790FE01E0FDF77DFE00EB1C
:103A5000C00101EB0012606864218000B2FBF0F34A
:103A6000B3FBF1F36FF018067343B2FBF0F5B2FB52
:103A7000F0F605EB8305322303EB0515B5FBF1F5F5
:103A8000B6FBF1F605F0F00505EB0615B2FBF0F616
:103A9000B2FBF0F0B0FBF1F06FF01802504306EB10
:103AA000800003EB0010B0FBF1F0216800F00F0084
:103AB0002844886070BD0000003801408162828522
:103AC000C28500210164222280F83E2080F83C104B
:103AD0000168CA6842F48072CA6001684A6942F0AB
:103AE00001024A610068C16841F02001C160002004
:103AF00070472DE9F041984617460E460446069D4C
:103B00001DE0681C1BD02DB1FDF7E0FCA0EB080008
:103B1000A84214D92068C16821F4D071C16020681E
:103B2000416921F001014161202084F83D0084F8C1
:103B30003E00002084F83C000320BDE8F0812068AE
:103B4000006836EA000004D00020B842D9D0002036
:103B5000F3E70120F9E7FEE70FB4054B10B503A921
:103B6000044A029800F058FA10BC5DF814FB0000FB
:103B7000554D0008A0000020490050EAC12018BFA0
:103B800004204A0D18BF40F0010040F2FF72B2EB72
:103B9000515F08BF40F00200012808BF05207047B0
:103BA0004100080218BF04200A0E18BF40F00100AF
:103BB0004FF07F4232EA010108BF40F002000128C5
:103BC00008BF052070470907090E002804DB00F133
:103BD000E02080F80014704700F00F0000F1E020B2
:103BE00080F8141D70472DE9F0414F1E00EBC7010E
:103BF0000446D1E9000115461E4637F006020DD0F5
:103C00002A463346FCF75CFC7F1E04EBC703D3E96E
:103C10000023FCF7AEFB37F00602F1D1022F25D0CE
:103C2000042F13D0062F18BFBDE8F0812A46334673
:103C3000FCF746FCD4E90A23FCF79BFB2A463346F3
:103C4000FCF73EFCD4E90823FCF793FB2A463346F5
:103C5000FCF736FCD4E90623FCF78BFB2A463346F7
:103C6000FCF72EFCD4E90423FCF783FB2A463346F9
:103C7000FCF726FCD4E90223FCF77BFB2A463346FB
:103C8000FCF71EFCD4E90023BDE8F041FCF771BB52
:103C90000022134610460149FCF784BC0000F03FA7
:103CA000FCF767BB0022134610461146FCF77ABCAE
:103CB00040F2013200204FF0E041FCF7E2BC00008E
:103CC000024A00201107FCF7DCBC000001FDFFFFE9
:103CD00000214FF07E50FCF702BB0121FCF73DBBF9
:103CE000FCF773BA00210846FCF7F9BA61214FF0DE
:103CF000E040FCF732BB6FF05E010807FCF72DBB1C
:103D00002DE9F04D0D4614464FF07F41B1EB440FC5
:103D10009EBF4FF0FF312960BDE8F08D4FF00040AD
:103D200040EA0421C4F3C750783810F01F024A4B10
:103D30004FEA601CC2F120067B44C4F3C750A0F1D7
:103D400078004FEA601003EB800053F82C3008BF76
:103D5000D0E901C612D0D0F804C093402CFA06F77F
:103D60003B4387680CFA02FC27FA06F8C06807FA9A
:103D700002F2F0404CEA080C42EA0006A3FB0132D2
:103D8000ACFB01C0A6FB016101EB0C068E4234BF07
:103D90004FF0010C4FF0000CC1186144BCF1000F52
:103DA00002D0814202D903E0814201D2012000E029
:103DB0000020104400F120024FEA92188006CA0C3D
:103DC00040EA42304F03C5F80080FCF771FC8246A0
:103DD0003846FCF776FC6FF01201FCF7BEFA074696
:103DE0003046FCF76EFC6FF02501FCF7B6FA83460F
:103DF00039465046FCF7E9F95946FCF7E6F900F573
:103E000000666FF30B0651463046FCF730FA394630
:103E1000FCF72DFA5946FCF72DFA1049FCF72DFA5C
:103E200007460F493046FCF728FA3946FCF7CDF92A
:103E300007460C493046FCF720FA3946FCF7C5F92D
:103E400014F0004F08BFBDE8F08DC8F1805180F03C
:103E500000402960BDE8F08D34310000DB0FC92F30
:103E600022AAFD290000C92F02E008C8121F08C1BC
:103E7000002AFAD170477047002001E001C1121FEB
:103E8000002AFBD17047000001490860704700001C
:103E9000A40000202DE9FF5F82B00021DDE904309D
:103EA000020DDDF840B0034318D044F61050A2F2E2
:103EB000FF3242431514119801281FD0A5EB0B00C7
:103EC000401C5FEA000A4FF000064E4FDFF83891C1
:103ED000B046504615D5CAF1000413E011980124EC
:103EE0004AA3012801D16FEA0B010298119AC0E997
:103EF0000031C0E9024206B0BDE8F09FCBF10000FE
:103F0000DFE704460021404A491842EB0450CDE95E
:103F1000001012E0E00707D032463B4640464946D3
:103F2000FCF7CEFA8046894632463B461046194693
:103F3000FCF7C6FA06460F466410002CEAD1DDE90C
:103F40000401DDE90023BAF1000F06DAFCF7B8FA44
:103F500042464B46FCF7B4FA05E0FCF723FB424629
:103F60004B46FCF71FFB04460E460022284BFCF78D
:103F7000F5FD03D84FF0FF30014607E00022254B46
:103F800020463146FCF7F5F9FCF7A9FD102409E0BD
:103F9000002C0ADB0A220023FCF76EFC039B303264
:103FA0001A55641E50EA0102F2D1641C039AC4F14E
:103FB00011031444119A012A03D0012208430DD1A0
:103FC0000AE0084304D000204FF0110B119072E773
:103FD000A3EB0B056D1E0DE05B4504DD4FF0000209
:103FE00005F1010504E003DA4FF00002A5F1010537
:103FF000002AECD002981199C0E90231C0E90045CD
:1040000079E70000000014400000F03F300000009D
:104010000000F0430000E03F2DE9FF4F95B09B46C4
:104020008946064600250FE2252877D10024274639
:10403000F84A0121059400E0044316F8013F203BB3
:1040400001FA03F01042F7D130782A2811D06FF02E
:104050002F033078A0F13002092A16D8059A44F0CF
:10406000020402EB820203EB42021044761C05902C
:10407000EFE759F8042B0592002A03DA504244F482
:104080000054059044F00204761C30782E2816D196
:1040900016F8010F44F004042A280DD06FF02F0207
:1040A0003078A0F13003092B09D807EB870302EB26
:1040B0004303C718761CF3E759F8047B761C307865
:1040C0006C280FD006DC4C2817D068280DD06A2841
:1040D00014D104E0742810D07A280FD10DE044F4F4
:1040E00000140AE044F4801401E044F440147278AF
:1040F000824202D104F58014761C761C3078662842
:104100000BD013DC582877D009DC002875D045285F
:10411000F6D04628F4D047281AD19DE118E063284C
:1041200035D0642879D0652812D195E1702873D0F4
:1041300008DC6728F1D069286FD06E280DD06F2871
:1041400006D1B5E073282CD0752875D0782874D0A6
:104150005A46179990476D1C75E1C4F30250022826
:1041600009D003280DD0D9F8001004280DD00D6017
:1041700009F1040967E1D9F80010EA17C1E9005212
:10418000F6E7D9F800100D80F2E70D70F0E719F8A6
:10419000041B8DF8001000208DF80100EA46012074
:1041A00003E059F804AB4FF0FF3061074FF0000116
:1041B00002D40DE008F101018846B9420FDA8045CA
:1041C000F8DB1AF808100029F4D108E008F1010121
:1041D00088468142FADB1AF808100029F6D10598C2
:1041E0005B46A0EB080721463846179A00F094FA80
:1041F000284400EB080507E04DE029E10DE01AF83E
:10420000010B5A4617999047B8F10108F7D25B465F
:1042100021463846179A13E142E00A220092C4F37D
:1042200002524FF0000A022A08D059F804CB032AA0
:104230004FEAEC710AD00DE029E02AE009F107010C
:1042400021F00702F2E802C1914609E00FFA8CFC66
:104250004FEAEC71042A03D14FFA8CFC4FEAEC715F
:10426000002907DA0A460021DCF1000C61EB0201AB
:104270002D2202E0220504D52B228DF804200122F4
:1042800003E0E20701D02022F7E7904659E00A2137
:1042900002E010220DE010214FF0000A00910BE027
:1042A00010224FF0000A44F004040827009203E0B3
:1042B00008224FF0000A0092C4F30252022A05D0ED
:1042C00059F804CB0021032A08D009E009F10701BD
:1042D00021F00702F2E802C1914605E01FFA8CFCCA
:1042E000042A01D10CF0FF0C4FF00008220728D55A
:1042F000702806D0009B83F0100353EA0A0305D010
:104300000EE040228DF80420012208E05CEA010260
:1043100006D030228DF804208DF805000222904648
:10432000009B83F0080353EA0A030AD15CEA010206
:1043300001D1620705D530228DF804204FF0010825
:104340007F1E582804D034A003900EA802900DE0E0
:1043500036A0F9E753466046009AFCF78DFA84468A
:104360000398825C0298401E029002705CEA010091
:10437000F0D1029806A9081A00F1200A600702D5B8
:1043800024F4803400E00127574502DDA7EB0A0042
:1043900000E0002000EB0A01009005984144401A1B
:1043A0000590E00306D45B462146179A059800F075
:1043B000B3F90544002706E001A85A46C05D1799E5
:1043C00090476D1C7F1C4745F6DBE0030CD55B4630
:1043D0002146179A059800F09FF9054404E0302023
:1043E0005A46179990476D1C0099481E0090002965
:1043F000F5DC08E0029802995A460078491C0291BF
:10440000179990476D1CBAF10001AAF1010AF1DC7D
:1044100065E1000009280100303132333435363788
:104420003839616263646566000000003031323300
:1044300034353637383941424344454600000000A0
:1044400000F058F90544761C307800287FF4ECAD74
:1044500019B02846BDE8F08F620700D4062709F19D
:10446000070222F0070CFCE80223E14603F00048B3
:104470005FEA080C02D00FF2702C0DE05FEA045CDA
:1044800002D50FF2682C07E05FEAC47C02D00FF27D
:10449000602C01E0AFF2700C4FF0FF3823F00043C6
:1044A000CDF850C065280CD006DC452809D0462838
:1044B0001DD047283DD13DE0662818D067287ED121
:1044C00038E00021112F01DB112000E0781CCDE93C
:1044D000000106A90EA8FFF7DDFCDDE90F010E9A29
:1044E00003910021009207F1010A04914DE04FF081
:1044F00000400097CDE9011006A90EA8FFF7CAFCFD
:10450000DDE90F0203920E9B11990022DDF80CA049
:104510000093049211B9791C00EB010AB7EB0A0071
:1045200004D4C0F1FF3007F1010A0490AAEB0700A0
:10453000019044E0012F00DA01270021112F01DD55
:10454000112000E03846CDE9000106A90EA8FFF7CA
:10455000A1FCDDE90F010E9A039100210491009264
:10456000BA4621070CD40399514500DA8A46BAF1BC
:10457000010F05DD009AAAF10101515C302908D034
:10458000B84202DA10F1040F06DA0121CDE9011078
:1045900015E0AAF10101E9E7002805DC04990144CE
:1045A0000491AAEB000102E0411C514500DD8A465E
:1045B0000499401A401C01904FF0004002902007DF
:1045C00004D40198504501DBCDF8048000208DF81B
:1045D0004F0002980DF14F07B0F1004F25D02B206E
:1045E0000E9002984FF0020800280CDA4042029028
:1045F0002D200E9007E00A210298FCF727F93031B0
:10460000029007F8011DB8F10001A8F10108F2DCE1
:1046100002980028EFD1791E0E980870307800F0CB
:10462000200040F0450007F8020D12A8C01B00F161
:1046300007081498007800B1012000EB0A010198E6
:1046400001EBE07105984144401A401E0590E003DB
:1046500006D45B462146179A059800F05DF805449C
:104660001498007818B15A46179990476D1CE003CA
:1046700024D55B462146179A059800F04DF805446D
:104680001CE00498002807DBDDE90301884203DD14
:104690000098405C179901E0179930205A469047DE
:1046A000049805F10105401C04900198401E0190FA
:1046B00004D12E205A46179990476D1CBAF100017B
:1046C000AAF1010ADDDC05E017F8010B5A4617993B
:1046D00090476D1CB8F10001A8F10108F4DC5B46BD
:1046E0002146179A0598ABE62D0000002B0000002C
:1046F000200000002DE9F041044600251E46174623
:10470000880404D405E039462020B0476D1C641E9F
:10471000F9D52846BDE8F0812DE9F0410446002591
:104720001E469046C80301D5302700E020278804A4
:1047300004D505E041463846B0476D1C641EF9D5E6
:104740002846BDE8F08100002DE9F04104464FF015
:104750000E4000EB4400B0F1506F204655D84FF0AA
:10476000FC41B1EB440F1CD224F000404FF07E51CD
:10477000FBF780FD4FF0FF31FBF7EFFD054602F040
:10478000A3F914F0004F1DBF2F4F304E80F00040B2
:104790002F4F08BF2F4E4FF04041FBF76EFD0446F0
:1047A00005E000273E460146FBF767FD05462A491E
:1047B0002846FBF762FD2949FBF707FD2946FBF771
:1047C0005CFD2749FBF701FD2946FBF756FD25490E
:1047D000FBF7FBFC2946FBF750FD2349FBF7F5FCF3
:1047E000804629462046FBF748FD4146FBF745FD3C
:1047F000054631462046FBF7E8FC2946FBF7E5FC79
:104800003946BDE8F041FBF7E0BC4FF0E441B1EBC5
:10481000440F08D9FFF7C4F9042808BFFFF76BFA63
:104820002046BDE8F0814FF07F41B1EB440F03D249
:10483000BDE8F041FFF751BA0120FFF725FBBDE8C5
:10484000F041FFF74FBA00000000C9BF22AAFDB92E
:104850000000C93F22AAFD3924FE1C3DC78AD83C6E
:104860001E67383D1B93993DAFAA2A3E2DE9F047BC
:104870004FF0684202EB40030C460546B3F1654F2A
:104880003CBF02EB4102B2F1654F7CD2C0F3C7538B
:10489000C1F3C7529A1A1B2A06DD10F0004F14BF4D
:1048A00076487748BDE8F08712F11A0F17DA11F051
:1048B000004F06D010F0004F0CBF72487248BDE8A0
:1048C000F08721462846FBF70AFD0446FFF768F902
:1048D000042808BFFFF70FFA2046BDE8F087420022
:1048E000B2EB410F25D910F0004F19BF674F684E4A
:1048F000684F694E224685F0004415460A4680F00E
:10490000004110460A1A5200B2F1807F40D248405E
:104910006249DFF88CA110F0004F18D04FF03F48EB
:104920003846FBF7A4FC074651463046FBF79FFC90
:1049300017E011F0004F04BF00263746E2D010F018
:10494000004F19BF574F584E584F594EDAE74FF0A6
:104950007C583846FBF739FC074651463046FBF792
:1049600034FC064641462846FBF787FC2146FBF708
:104970002CFC824621464046FBF77FFC2946FBF78C
:1049800079FC514600E037E0FBF7A9FC044604E05F
:1049900021462846FBF7A3FC04460146FBF76DFCC5
:1049A00080464449FBF769FC4349FBF70EFC41464E
:1049B000FBF763FC4149FBF708FC4146FBF75DFC54
:1049C0003F49FBF702FC4146FBF757FC3D49FBF72B
:1049D000FCFB054641462046FBF74FFC2946FBF70A
:1049E0004CFC3146FBF7F1FB2146FBF7EEFB394669
:1049F000BDE8F047FBF7E9BB4FF07F42B2EB400F59
:104A000028BFB2EB410F03D2BDE8F047FFF768B90A
:104A100040EA01035B0008BF44F0FF410AD0B2EB5B
:104A2000400F08BFB2EB410F06D125F0804024F0C3
:104A3000804105460C4629E7B2EB400F12BF5FEA02
:104A4000410245F0FF4004F000413FF41FAF4A002F
:104A500092EA40033FF51AAF002AACBF4FF09F46E1
:104A60004FF03E563146FBF708FC054631462046DE
:104A7000FBF703FC04462846214607E7DB0FC9BFC6
:104A8000DB0FC93FDB0F4940DB0F49C00000C9BF46
:104A900022AAFDB90000C93F22AAFD390060ED3EFF
:104AA000C30ACE37000049C022AA7DBA000049409F
:104AB00022AA7D3A2DAD65BD8FB8D53D0FB511BE8B
:104AC00061C84C3EA8AAAABE18B56B4600228C1835
:104AD000045D9C54521C042AF9D3009818BD0000B0
:104AE0002DE9F047294D0746002600BF57F826104C
:104AF00055F82600FBF769FB45F82600761CF6B250
:104B0000234C032EF2D3B868E16AFBF78BFE01D287
:104B1000B868E062B868216BFBF78EFE01D2B86816
:104B200020636088401C80B26080B0F5AF7F2BD3DB
:104B300000276780D4E90B10FBF799FB4FF07F51FA
:104B4000C4E90A014FF07C5121631249884213DA0B
:104B5000DFF83C80DFF84090002608F1340800BF01
:104B600055F826004946FBF7BAFB48F82600761CA4
:104B7000F6B2032EF4D327705FF0000045F82070E2
:104B8000401CC0B20328F9D3BDE8F087D40200204E
:104B90002C0000208FC2753C0000AF432DE9F84384
:104BA000044602464F486946B0EB420F09D94FF020
:104BB000E640B0EB420F94BF00204FF0FF30009072
:104BC00030E0494B22F00040834271D947492046EA
:104BD000FBF753FBFBF708FF8046FBF7ABFD00F04C
:104BE0000300009042494046FBF747FB0546414918
:104BF0004046FBF742FB06463F494046FBF73DFB7C
:104C000007463E494046FBF738FB2146FBF732FB9F
:104C10003946FBF72CFB3146FBF729FB2946FBF70E
:104C200026FB04462546009C002C45DB294614F053
:104C3000010F08461CD0FBF720FB06463049FBF766
:104C40001CFB3049FBF716FB3146FBF716FB2E49E0
:104C5000FBF7BBFA3146FBF710FB2946FBF70DFBD0
:104C60002946FBF7B2FA14F0020F1CD0BDE8F88316
:104C7000FBF703FB05462549FBF7FFFA2449FBF741
:104C8000A4FA2946FBF7F9FA2249FBF79EFA2946CE
:104C9000FBF7F3FA4FF07E51FBF797FA14F0020F8F
:104CA00008BFBDE8F88380F00040BDE8F883FFE767
:104CB0001046FFF725F8B4E76800B0F17F4F3CBF1E
:104CC0004FF07E50BDE8F88307D14FF00100FFF7A9
:104CD000DBF8BDE8F843FFF705B82846BDE8F84320
:104CE000FEF7FBBFB61F927E490E494683F9223F6D
:104CF0001A61342C0020A23300A0FD390000C93F06
:104D0000336D4C39DA82083CA0AA2ABEB93AB2BA4D
:104D1000CA9F2A3DDDFFFFBE4FF0E02081690648B3
:104D2000006800EB4002C2EBC012C1EBC201B1FB54
:104D3000F0F0FCF7CBBB00000400002070B5054686
:104D4000FFF7EAFF4FEA0004FFF7E6FF001BA84267
:104D5000FAD870BD13B54FF6FF73012269460548B6
:104D6000FDF7CAFD0348FDF730FD2128FAD0009871
:104D70001CBD0000700100202DE9FF5F444CE1697B
:104D80000F463846FBF779FA0390216A00910846EE
:104D9000FBF773FA616A05468B465846FBF76DFAD6
:104DA0000646A06939460446FBF767FA029020469A
:104DB0000099FBF762FA814659462046FBF75DFAF7
:104DC000804638460099FBF758FA824659463846DD
:104DD000FBF753FA019059460098FBF74EFA8346C9
:104DE00001213046FBF7B9FA07463C460121284627
:104DF000FBF7B3FA4FF07E5605463146FBF73AFA19
:104E00002146FBF734FA234C414620605046FBF71D
:104E10002EFA0121FBF7A1FA606049460198FBF7E1
:104E2000D4F90121FBF799FAA06041465046FBF7FF
:104E3000CCF90121FBF791FAE06001210398FBF71F
:104E40008CFA3146FBF716FA06463946FBF70FFA9D
:104E5000206158460299FBF70AFA0121FBF77DFA17
:104E6000606149460198FBF702FA0121FBF775FAE8
:104E7000A06158460299FBF7A8F90121FBF76DFAEA
:104E8000E06129463046FBF7F2F92062BDE8FF9F5A
:104E90002C000020E00200202DE9F04F93B0804666
:104EA000DDE91C7589461E4614464FF0FF311F98F8
:104EB000FBF753FA009000201090DFF8C4A3CDE96F
:104EC0000A9411901290CDF8248030465146FBF799
:104ED000D4F9064638465146FBF7CFF9074628462F
:104EE0005146FBF7CAF9054618F0FF4F05D119F0F6
:104EF000FF4F02D114F0FF4F7ED021460846FBF74A
:104F0000BCF9834649460846FBF7B7F98246414655
:104F10000846FBF7B2F95146FBF757F95946FBF73C
:104F200054F900F0B7F9019040460199FBF7A5F953
:104F3000834648460199FBF7A0F98246204601992D
:104F4000FBF79BF9CF4C8146216A0491A06905903B
:104F5000FBF793F9616A80460391E0690290FBF7E1
:104F60008CF94146FBF783F90121FBF7F6F9DFF8ED
:104F70001883C8F81800019002990598FBF77DF98D
:104F80000590DDE90310FBF778F90599FBF71DF9AA
:104F90000121FBF7E2F9C8F81C00039001210498F5
:104FA000FBF7DBF90499FBF768F9049001210298FB
:104FB000FBF7D3F90299FBF760F94FF07E51FBF74D
:104FC00059F90499FBF753F9C8F820008046484680
:104FD0000399FBF752F9049050464146FBF74DF90F
:104FE0000499FBF744F9079058464146FBF745F909
:104FF00080464846019900E059E0FBF73EF94146FA
:10500000FBF735F9029050460199FBF736F98046D7
:1050100058460399FBF731F94146FBF728F98346D7
:10502000A06807998246FBF728F91F99FBF725F935
:10503000E168FBF7CAF8E060814650460299FBF749
:105040001CF91F99FBF719F92169FBF7BEF8804697
:10505000206159465046FBF710F91F99FBF70DF9EF
:105060006169FBF7B2F8824660616068079904469F
:10507000FBF703F94946FBF7A8F83146FBF7A5F81B
:10508000064620460299FBF7F8F84146FBF79DF8E3
:105090003946FBF79AF8074659462046FBF7EDF8E4
:1050A0005146FBF792F82946FBF78FF80546754CF9
:1050B0002946A06903908246D4E9078006900290B1
:1050C000606A05908146FBF7D8F80E903946029841
:1050D000FBF7D3F8834688F000403146FBF7CDF864
:1050E0005946FBF7C4F80E99FBF7C1F80099FBF796
:1050F000C4F85146FBF769F88346A0613946484633
:10510000FBF7BBF8089029460298FBF7B6F88246F1
:1051100031460398FBF7B1F85146FBF756F808996A
:10512000FBF7A5F80099FBF7A8F84146FBF74DF807
:105130008246E06131464846FBF79FF801902946D8
:105140004046FBF79AF8814639460398FBF795F8F5
:105150004946FBF78CF80199FBF737F80099FBF704
:105160008CF80699FBF731F88146206231460298A7
:10517000FBF783F8019039464046FBF77EF8064678
:1051800029460398FBF779F83146FBF71EF8019999
:10519000FBF76DF80099FBF770F80599FBF715F828
:1051A00001466062FBF769F8074649460846FBF787
:1051B00064F8054651460846FBF75FF8064659462F
:1051C0000846FBF75AF83146FAF7FFFF2946FAF787
:1051D000FCFF3946FAF7F9FF00F05CF80546014696
:1051E000A069FBF74AF8A0612946E069FBF745F89A
:1051F000E0612946206AFBF740F820622946606A90
:10520000FBF73BF86062FFF7B7FD1F4DA869FFF79A
:105210009BFA1E49FBF731F81E990861D5E9070191
:10522000FFF724FB1A4E3146FBF727F81E99486119
:105230002968E868FFF71AFB3146FBF71EF81E994C
:1052400088612078002817D1296A0B98FBF715F898
:105250000646E9690A98FBF710F80446A969099817
:10526000FBF70BF82146FAF7B0FF3146FAF7ADFF2E
:10527000129010A8FFF734FC13B0BDE8F08F0000C7
:1052800035FA8E3C2C000020E0020020E12E65C2A1
:10529000E12E654210B504464FF0FF31FBF75DF893
:1052A0000849A1EB64042146FAF7E7FF2146FAF723
:1052B000E4FF4FF07F51FAF7DDFF2146BDE81040D3
:1052C000FAF7DBBFDF59375F2DE9F0418846876980
:1052D000044641683846FAF7D0FF6669054630460D
:1052E0002168FAF7CAFF4146FAF7C4FF2946FAF7E0
:1052F000BEFF05466FEAD55010F0FF0F00D14546BE
:1053000038462169FAF7B9FF80463046E168FAF776
:10531000B4FF07462846A168FAF7AFFF3946FAF707
:1053200054FF4146FAF751FFC4E90556BDE8F08144
:10533000002804D0B2F5000F01DB00F001B870477F
:105340002DE9F0470B46044611461846FAF7C7FF09
:1053500001462748FAF7C3FF01F0CCFB0646014699
:10536000FAF78BFF8246DFF88C8055464046FFF700
:1053700015FC0121FAF7F1FF3146FAF77EFF4FF0F5
:105380007E594946FAF721FF2946FAF71EFF0746DC
:1053900050463946FAF7A3FF05460121A060FAF707
:1053A000DCFFC4E9030550464946FAF760FF0121D6
:1053B000FAF7D3FF3946FAF792FF20605546404688
:1053C000FFF7ECFB0121FAF7C8FF3146FAF755FF6A
:1053D0004946FAF74FFF2946FAF7F7FE3946FAF73A
:1053E0007EFF606000206061A061BDE8F087000082
:1053F000DB0F4940DB0F493F88B0FCF775F8FEF73B
:10540000B0F9FDF725FDFDF7C3FEFDF7EFFDFDF754
:1054100065FE01F029FCFDF7ADFD02E035A0FEF7C9
:105420009BFBFDF70FFC0028F8D1FBF717FEFDF7FB
:10543000FFFF34480025017841F00401017001F0BC
:10544000EBFADFF8C490314FDFF8C4A0DFF8C4B046
:10545000314EDFF8C8800024D9F80010022912D399
:10546000C9F8004001F0A2F93868FBF72AF92C4985
:10547000CDE902102B49D1E90401CDE90001294809
:105480000FC8FFF709FD3868052805D306AA04A947
:1054900005A83C60FBF706FCDAF800100A2901D3E6
:1054A000CAF80040DBF80010142901D3CBF8004003
:1054B0001D4801683229CFD3046014353068642D4B
:1054C00009D3046430684463D8F800100C64D8F839
:1054D0000000C46308E0056430684563D8F8001034
:1054E0000D64D8F80000C5634FF400610F48FBF766
:1054F000E0FFB1E77374617274206D70752065729E
:10550000726F7200000000208C00002090000020CC
:1055100094000020980000205C1C0020A41C0020A7
:1055200024030020841B00209C000020000C01406C
:105530002DE9F04D1D460C4698B0174621F000416C
:1055400023F00043002814BF4FF0010C4FF0000C73
:105550000CEB440CFE4A0CEB02064FEA620C66456B
:105560002BD33E0018BF012606EB45061644F94A28
:10557000964222D3F84A53EA070C02D0944205D14E
:1055800048B918B000201146BDE8F08D002808BFCA
:105590004FF0000C01D04FF0010C0CEB440212F55F
:1055A000001F0AD8002F14BF4FF0010C4FF0000C61
:1055B0000CEB450212F5001F07D918B03A462B46EE
:1055C0002146BDE8F04DFEF76BBB0022DFF88CA34F
:1055D000002CB8BF534526DADFF884C36345A8BF63
:1055E000022220DADFF870C39C451CDCDFF874C3AC
:1055F0000CEB235CBCF1140F08DDCCF1340627FA68
:1056000006FC0CFA06F6BE420DD108E05FB9CCF1FB
:10561000140623FA06FC0CFA06F69E4203D10CF09F
:105620000102C2F1020251EA000C19D1002D17DA71
:10563000002C18BF022A01D0012A07D00220FEF751
:1056400023FC18B0BDE8F04DFEF722BB0220FEF7A8
:105650001BFCFEF71DFB18B081F00041BDE8F08D8A
:10566000B7F1000C6CD1534525D104F1804212F5FD
:10567000801201BF00280020B74918B008BFBDE85C
:10568000F08DB548884207DC002DA1BF6046294651
:1056900018B0BDE8F08D07E0281E05DA80F0004163
:1056A00018B06046BDE8F08DAF497944D1E90001FA
:1056B00018B0BDE8F08DDFF8A0C2634525D1002DFC
:1056C0001FDA19B1514512D1D8B909E0002840F0CC
:1056D000EC82A24A214618B062F31E01BDE8F08DAB
:1056E0000020214618B060F31E01BDE8F08D08DAF5
:1056F00018B02346BDE8F04D024600206146FAF797
:1057000051BF18B02146BDE8F08D514518DAB5F10A
:10571000804F0DD0A5F1005CBCF1FF5C10D1B4F15D
:10572000000C0DDB18B06146BDE8F04D01F0A6B9E4
:10573000234618B00246BDE8F04D1946FAF7C0BE40
:10574000060024F0004C3BD1D9B1514533D1002C97
:1057500006DD002DA1BF0020514618B0BDE8F08D38
:10576000002C01DD002D1BDB002C13DA002D11DBDA
:10577000012A4FF0000014BF78497C4918B0BDE8F9
:10578000F08D022A18BF002C0AD0012A08D1002C63
:1057900006DA0AE0002CB8BF002D11DA012A04D085
:1057A000002018B00146BDE8F08D18B000204FF081
:1057B0000041BDE8F08DA1F14050B0F17F601AD0FA
:1057C000012000EBE47050EA020421D0624C521E2A
:1057D0004FF0000B104304BF4FF0000B644C6548C2
:1057E00083427CDD644A654893421FDD884217DBB3
:1057F000002D25DB37E0002C00DA4AB1022A0CBF6D
:1058000001204FF0FF3018B0BDE8F04DFAF774BF3B
:105810000120FEF739FB18B0BDE8F04DFEF742BAA3
:105820004D4A8A4202DC002D0ADC1CE0814202DA89
:10583000002D18DA04E0484B994220DD002D12DDDE
:105840000220FEF721FBFEF733FA05460E46002242
:10585000534658462146FAF733FE18B066F31E0148
:105860002846BDE8F08D0220FEF70EFBFEF728FA71
:105870000A46214618B062F31E01BDE8F08D0022F1
:1058800030466146FAF716FE80460E466FF001027A
:10589000FAF7F7FE4FF05532394BFAF70EFE424653
:1058A0003346FAF70DFE0022364BFAF706FE824623
:1058B00042463346049110461946FAF701FE524615
:1058C000049BFAF7FDFD8A4600904FF0C0422E4B34
:1058D00040463146FAF7F4FD2C4A2B4B00E027E016
:1058E000CDE9060151460098FAF7EAFD824601919A
:1058F000274A284B40463146FAF7E2FD5246019BC3
:10590000FAF7D8FD82460B4602460591DDE906010D
:10591000FAF72FFDDDE90623002688463046FAF720
:10592000C9FD5246059BFAF7C8FD024600F07EB954
:105930000020B1F5801F07DA352230466146FAF7BC
:10594000A0FE06466FF0340000EB215024E000007A
:10595000FFFF1F00FFFF0F000000F03F0000F07F7F
:105960000000404301FCFFFFBA1700000000F0FFF9
:105970000000F0BF0000E0410000F043FFFFEF3FF8
:105980005555D53F0000E03F4715F73FFE822B6598
:1059900044DF5DF80BAE543EA0F2FF300190C1F33E
:1059A000130040F07F6141F040510291FE4988426E
:1059B000D8BF002004DDFD498142C8BF012001DDC0
:1059C0000D9008E000200D900198401C0190029875
:1059D000A0F5801002900299F54878440B910D993A
:1059E00000EBC100D0E900230F9330460A920B99D7
:1059F000FAF760FDCDE90601DDE90A2130460F9B8B
:105A0000FAF7B7FC02460B460020EA49FAF7CAFD4E
:105A1000059102460B460090DDE90601FAF750FDBC
:105A20001490E5488A464FF00008784402990068CF
:105A300012904FF0005040EA61010D980F9B01EB6E
:105A4000804000F5002109910A9A1298FAF732FD78
:105A500032460B9BFAF731FD42465346FAF730FDCA
:105A60000646029140465146099B129AFAF728FDD4
:105A7000DDE90623FAF721FD3246029BFAF71AFD0B
:105A8000059B009AFAF71CFD0091149A0490534666
:105A900010461946FAF714FD06460246C7480B465B
:105AA000029106217844FEF79EF8CDE90510029B8D
:105AB000324610461946FAF703FDDDE90532FAF7DA
:105AC000FFFC05910646534640461946149AFAF7DC
:105AD00050FC009B049AFAF7F3FC3246059BFAF758
