:020000040800F2
:10000000E825002001010008B73200087B2A00081B
:10001000B5320008EB120008FF3D000800000000A8
:10002000000000000000000000000000053A000889
:10003000ED12000800000000A5360008073A00088D
:100040001B0100081B0100081B0100081B01000820
:100050001B0100081B0100081B010008F112000829
:100060001B0100081B0100081B0100081B01000800
:100070001B0100081B0100081B0100081B010008F0
:100080001B0100081B0100081B0100081B010008E0
:100090001B0100081B0100081B0100081B010008D0
:1000A0001B0100081B0100081B0100081B010008C0
:1000B000693A00081B0100081B0100081B01000829
:1000C0001B0100081B0100081B0100081B010008A0
:1000D0001B0100081B0100081B0100081B01000890
:1000E0001B0100081B0100081B010008DFF80CD0F1
:1000F00000F090FD00480047F9620008E825002064
:100100000648804706480047FEE7FEE7FEE7FEE7B1
:10011000FEE7FEE7FEE7FEE7FEE7FEE7653A0008DA
:10012000ED0000082DE9F0410024061B254671F181
:10013000000605DA01240027D0EB070067EB010178
:10014000161E73F1000605DA0027D2EB070201251F
:1001500067EB030300F0D2FB86460E4617469C462B
:10016000AC4204D00025D0EB050E65EB010624B1AE
:100170000020D2EB000760EB030C704631463A4694
:100180006346BDE8F081202A04DB203A21FA02F020
:100190000021704721FA02F3D040C2F120029140C1
:1001A000084319467047D2B201E000F8012B491EFE
:1001B000FBD270470022F6E710B513460A46044604
:1001C0001946FFF7F0FF204610BD30B50446002069
:1001D000034600E05B1C934203D2E05CCD5C401B15
:1001E000F8D030BDF0B480EA0102D40F4200B2EB87
:1001F000410F02D20246084611464A0042D0C30DC2
:10020000DDB2C1F3C752AD1A202D35DAC1F31601A4
:1002100041F4000204B15242C5F1200602FA06F18F
:100220002A411044B3EBD05F23D0C4B1012DA0EB21
:10023000C35009DCF0BC4FF0004202EAC352DBB20B
:1002400000F5000000F0B5BB400000F1807000EB4D
:10025000C350A0F1807040EAD170490009E049081C
:1002600041EAC071A0EBC35000F50000400800EB6C
:10027000C350F0BC00F094BB6142012202EB41018B
:10028000001BF6E7F0BC704781F00041AAE780F060
:100290000040A7E780EA010210B502F000434000E9
:1002A00022D04A001FD0010E01EB1261C0F35600AC
:1002B000C2F3560240F4000042F40002A0FB022008
:1002C00000047F39140400D0401C50EA124001D4CD
:1002D0004000491EC2B20C0604EBD010401C40087E
:1002E000802A02D003E0002010BD20F00100002988
:1002F00000DA0020184310BD30B480EA010202F099
:10030000004530F0004221F0004013D090B1C30D01
:10031000D40DC2F31601C0F31600E41A41F4000133
:1003200040F400027D34914201D3641C00E0490096
:10033000002C02DA30BC002070474FF4000000238C
:10034000914201D3891A034340084FEA4101F7D192
:1003500051B1914202D14FF0004105E002D24FF07D
:10036000010101E06FF0010103EBC450284430BCEF
:1003700000F016BB420005D0C0F3C7525242914272
:1003800001DC0020704700EBC15070472DE9FE4FA3
:10039000804681EA0300C00F0C46009021F0004126
:1003A00023F00045B8EB0200A94105D240462146A2
:1003B00090461C460B46024623F00040104347D0AF
:1003C000270DC7F30A00C3F30A510290401A0190A7
:1003D00040286BDAC3F3130040F4801B0098924668
:1003E00020B10023D2EB030A63EB0B0B01985946B3
:1003F000C0F14002504600F0B2FA06460D465046A3
:100400005946019A00F0BAFA10EB08006141002445
:1004100087EA115284EAE7731A4340D0009A62B324
:10042000019A012A4FEA075215DC001B61EB020119
:100430004FF0004202EA0752CDE90042001C41F5AC
:10044000801132462B4600F03EFB03B0BDE8F08F32
:1004500040462146F9E7001B61EB0201001C41F513
:10046000801300185B412018A2F5001747EB030129
:1004700040EAD570B6196D4111E06D084FEA3606B5
:1004800045EAC0754FEA0752001B61EB0201001CF0
:1004900041F5801149084FEA3000001951413246B8
:1004A0002B4603B0BDE8F04F00F0FEBA00980122E1
:1004B00040000023D0EB020263EBE073009821467A
:1004C0004FEAE074B8EB000061EB0401E9E783F068
:1004D00000435BE781F0004158E72DE9FE4F81EAD8
:1004E000030404F0004421F0004100944FF0000B9D
:1004F00023F0004350EA01045ED052EA03045BD0CB
:10050000C3F30A54C1F30A552C44A4F2F334019402
:10051000A0FB0254C1F3130141F48011C3F3130390
:1005200043F4801301FB024400FB034E840A970A44
:1005300044EA815447EA8357A4FB076802958D0A71
:1005400005FB07854FEA932C04FB0C542705029DFD
:100550004FEA065847EA1637B5EB08056EEB070C6D
:10056000870E920E47EA811742EA8312A7FB020127
:10057000B6EB0B0164EB00042B0D43EA0C335E1861
:1005800044EB1C50DA465146E7FB0201C5F3130465
:100590004FEA0B3343EA14534FEA0432019C43EA17
:1005A0000603A4F10C040294009CCDE900B400F011
:1005B0008AFA03B0BDE8F08F00200146F9E72DE983
:1005C000F04D81EA030404F0004B21F0004514468D
:1005D0004FF0000A23F0004150EA050220D054EA0F
:1005E00001021DD0C5F30A570246C5F31303C1F338
:1005F0001300C1F30A5640F4801543F48013A7EBAF
:100600000608101BD64608F2FD3873EB050002D32E
:1006100008F1010801E092185B41B8F1000F03DA1C
:1006200000200146BDE8F08D00204FF48011064601
:1006300084460EE0171B73EB050705D3121B63EB13
:10064000050306434CEA010C49084FEA30009218B2
:100650005B4150EA0107EDD152EA030012D082EA71
:10066000040083EA0501084305D0101BAB4106D204
:100670000122002306E000224FF0004302E06FF069
:10068000010253101AEB06004CEB085110EB0A0064
:1006900041EB0B01BDE8F04D00F006BA70B521F05A
:1006A000004303430CD0C1F30A550024D5EB0405E5
:1006B00064EB0403D617AD1AB34102DB00200146F8
:1006C00070BD201841EB025170BDC10F80EAE0708F
:1006D0000844CA079623002100F06BB99623002234
:1006E000114600F066B9F0B4CA17CB0F5040514024
:1006F000C61841F100054FEAC372314628004FF099
:10070000960303D0B623F0BC00F053B93046002165
:10071000F9E70EB5C10F80EAE0700844CA0700216E
:1007200040F233438DE80E000A460B4600F0CBF949
:1007300003B000BD0EB540F2334102910021CDE976
:1007400000110A460B4600F0BEF903B000BD00F0F0
:10075000004220F00040C10DC0F3160040F400003C
:100760007F2901DA00207047962903DCC1F1960148
:10077000C84001E096398840002AF4D040427047D2
:1007800020F00040C10DC0F3160040F400007F29A6
:1007900001DA00207047962903DCC1F19601C840B8
:1007A000704796398840704770B5C1F30A5201F01E
:1007B00000450024C1F3130140F2FF3341F48011DE
:1007C0009A4201DA002070BD40F233439A42A2F20D
:1007D000334203DC5242FFF7D6FC00E090402C434A
:1007E000F1D0404270BDC1F30A5210B5C1F31301FC
:1007F00040F2FF3341F480119A4201DA002010BD2B
:1008000040F233439A42A2F2334203DC5242FFF7F2
:10081000BAFC10BD904010BD00F0004230F0004026
:100820000AD0C10D01F56071C0F3160042EA015112
:10083000C20840071143704700200146704700007E
:1008400030B5041E71F1000404DB4FF00044404257
:1008500064EB0101141E73F1000405DB1C464FF02C
:100860000043524263EB04038B4208BF824230BD17
:1008700001F0004330B421F0004150EA010206D0FB
:100880000A0DA2F56072C1F31301002A02DC30BC2C
:1008900000207047440F44EAC104C100E01830BC96
:1008A00000EBC25000F07CB8002801DBC0F1004032
:1008B000002901DBC1F1004181427047002801DBC2
:1008C000C0F10040002901DBC1F1004188427047BE
:1008D00030B50B46014600202022012409E021FA10
:1008E00002F59D4205D303FA02F5491B04FA02F50D
:1008F0002844151EA2F10102F1DC30BD2DE9F05FA4
:100900000546002092469B4688460646814640247E
:100910001BE02846414647462246FFF734FC534633
:100920005A46C01A914110D311461846224600F08B
:1009300016F82D1A67EB01084F46224601200021C8
:1009400000F00DF817EB00094E41201EA4F1010440
:10095000DFDC484631462A464346BDE8F09F202A60
:1009600004DB203A00FA02F1002070479140C2F106
:10097000200320FA03F3194390407047202A06DB36
:10098000CB17203A41FA02F043EAE07306E041FA5D
:1009900002F3D040C2F1200291400843194670474B
:1009A0000029A8BF7047401C490008BF20F0010083
:1009B000704710B4B0FA80FC00FA0CF050EA010461
:1009C00004BF10BC704749B1CCF1200421FA04F4F3
:1009D00011FA0CF118BF012121430843A3EB0C01CC
:1009E000CB1D4FEA00614FEA102042BF002010BC2F
:1009F000704700EBC35010440029A4BF10BC7047DF
:100A0000401C490008BF20F0010010BC7047F0B442
:100A1000002802DCF0BC00207047C0F3C751C0F3CF
:100A2000160040F40000CA0701D14000491E3F22D1
:100A300002EB6105002211464FF4000626FA01F38D
:100A40001344D418844201D8001B1A464000491CA4
:100A50001729F3DD5100814202D24FF0FF3100E04F
:100A6000002102EBC550F0BCFFF79ABF10B5410062
:100A70000CD0C0F3C751962908DC7E2909DC06DBBF
:100A8000410204D000F0004040F07E5010BD002034
:100A900010BDC1F19604C4F1200100FA01F1E0405B
:100AA000FFF77EFFA04010BD10B5141E73F10004C7
:100AB00008DA401C41F1000192185B411A4301D150
:100AC00020F0010010BD2DE9F04D92469B4611B17A
:100AD000B1FA81F202E0B0FA80F220329046FFF7DC
:100AE0003EFF04460F4640EA0A0041EA0B01534626
:100AF0005A46084313D0114653EA010019D0C8F1F1
:100B000040025046FFF73FFB05460E465046594609
:100B10004246FFF724FF084305D0012004E02046A9
:100B20003946BDE8F08D0020054346EAE0762C43C7
:100B300037430A986305E40AA0EB08000022FD0A87
:100B400044EA47540A3002D500200146E9E701058E
:100B500010196941DDE9084500196941BDE8F04D0A
:100B6000A2E7C1F30A52C1F3130140F2FF3341F48B
:100B700080119A4202DA00200146704740F2334366
:100B80009A42A2F2334202DC5242FFF7FCBAFFF76C
:100B9000E6BE10B500F0004420F00040C20DC0F3E6
:100BA000160040F400007F2A07DA7D2A00DA7D2251
:100BB000763A00FA02F1002008E0962A09DCA2F158
:100BC000760100FA01F1C2F19602D040FFF7E8FE8B
:100BD00001E0963A9040002C00D0404210BD000049
:100BE00030B5041E71F1000404DB4FF000444042B4
:100BF00064EB0101141E73F1000405DB1C464FF089
:100C00000043524263EB0403994208BF904230BD57
:100C100000207047064C074D06E0E06840F00103F5
:100C200094E8070098471034AC42F6D3FFF762FA15
:100C3000F89F000818A000082DE9F04D00231A467F
:100C40001B1A8A4103DB00200146BDE8F08DC1F389
:100C50000A52C1F3130141F480154FF0000BD10784
:100C600002D100186D41521E0027044640F2FF11C8
:100C7000384601EB620A3E468046024600204FF4A9
:100C80008011FFF780FAC2197141BB1846EB0100D1
:100C9000B4EB030C75EB000C04D3E41A65EB000510
:100CA00017460E46241908F101006D41804634288C
:100CB000E3DDF91946EB0600091BA84103D24FF00A
:100CC000FF32134601E0002213461BEB070046EB00
:100CD0000A51BDE8F04DFFF7E7BE70B58C1810F86B
:100CE000015B15F0070301D110F8013B2A1106D171
:100CF00010F8012B03E010F8016B01F8016B5B1E8B
:100D0000F9D12B0705D40023521E0DD401F8013B65
:100D1000FAE710F8013BCB1A921C03E013F8015BD1
:100D200001F8015B521EF9D5A142D8D3002070BD55
:100D300030B50478A500641C04704A51047804F0AE
:100D4000070404700C4C2078182803D8401C1A6043
:100D5000207030BD0020186051F820401A68401CF7
:100D60002244C0B21A600828F6D3D11702EB5170A2
:100D7000C010186030BD00002400002070B586B09F
:100D80000C460646154602A904A800F0A1F9DDE9C3
:100D90000201FFF709FD104902462346081FFFF72D
:100DA000C7FF6846216800F019F80B492B4624312B
:100DB000081F009AFFF7BCFFDDE90401FFF7F4FC10
:100DC000054900EB8000420048313346081FFFF719
:100DD000AFFF06B070BD00000003002070B50546EF
:100DE0000E480E464068FFF770FC04463046FFF799
:100DF0006CFC2146FFF780FAFFF70EFD084A094B0D
:100E000006F02CFB0022084BFFF764FB0022074B87
:100E1000FFF763FBFFF7C8FC286070BD24000020CB
:100E2000EBE2361AC05BC83F0000F03F1AE95041C0
:100E30002DE9F14F724EB069FFF76BFC4FF0FF32B6
:100E4000FFF72CFC00226F4BFFF741FB04460D46D9
:100E5000B6F91000FFF75DFC0746884622462B4690
:100E600010461946FFF739FB3A464346FFF735FB74
:100E70006FF00E02FFF712FC07468946B6F90E0026
:100E8000FFF747FC22462B46FFF727FB0122FFF71F
:100E900005FC3A464B46FFF779FA82468846B6F992
:100EA0000C00FFF736FC1022FFF7F8FB07468946D7
:100EB0006FF0010250464146FFF7F0FB3A464B46C1
:100EC000FFF764FA82468B46B6F90800FFF721FC6B
:100ED00022462B46FFF701FB07468946B6F90A0072
:100EE000FFF717FC22462B46FFF7F7FA22462B4660
:100EF000FFF7F3FA6FF012042246FFF7CFFB3A46F2
:100F00004B46FFF743FA2246FFF7C8FB05460F465C
:100F1000F088FFF70FFC06460C466FF00E022846DD
:100F20003946FFF7BBFB0022374BFFF72FFA32465B
:100F30002346FFF7D2FA002204460D461346FFF778
:100F40007FFC03D100200146BDE8F88F0098FFF731
:100F5000E0FB00222D4BFFF7BDFA0E4607466FF06F
:100F60000B0250465946FFF799FB3A463346FFF7C6
:100F7000B1FA0022264BFFF7B0FA22462B46FFF7C4
:100F80001EFB1F4D04460E46B5F91600FFF7C1FBC8
:100F900022463346FFF7A1FA22463346FFF79DFA71
:100FA0006FF01E02FFF77AFB82468B46B5F91400FC
:100FB000FFF7AFFB22463346FFF78FFA6FF00E02C2
:100FC000FFF76CFB80468946B5F91200FFF7A1FBDD
:100FD00005460F4642464B4650465946FFF7D6F95E
:100FE0002A463B46FFF7D2F96FF00302FFF756FBA4
:100FF00001B022463346BDE8F04FFFF7C7B9000005
:10100000680300200040EF400000F03F0000304146
:10101000006AB8402DE9FC5F2B4C0646B4F902008B
:10102000FFF777FB804689462088FFF783FB07465A
:101030006FF009020191FFF731FB05468A46304601
:10104000FFF767FB06466FF00D020091FFF726FBE6
:101050002A465346FFF73BFA42464B46FFF73DFA16
:1010600080468946B4F90400FFF753FB05468B46DA
:1010700038466FF00C020199FFF710FB07468A46CD
:1010800030466FF010020099FFF708FB3A465346CE
:10109000FFF71DFA02460B46FFF71FFA2A465B468A
:1010A000FFF71BFA42464B46FFF770F90E4605461E
:1010B000FFF77AFBA06102B028463146BDE8F05F39
:1010C0000022024BFFF77BBA680300200000B44007
:1010D0002DE9F04107460E46FC2000F051F8044689
:1010E000FB2000F04DF80546FA2000F049F8000317
:1010F00040EA051040EA1410FFF78CFFC7E9000131
:10110000F92000F03DF80446F82000F039F80546D3
:10111000F72000F035F8000340EA051040EA14100B
:10112000FFF786FEC6E90001BDE8F08170B5D0206A
:1011300000F026F80546F42000F022F80646F320D9
:1011400000F01EF80446582D07D003460A483246E0
:101150002946BDE8704002F053BEFF21F42000F0A4
:10116000ABF80C21F52000F0A7F800F027F8234693
:10117000324629460148ECE7609F0008AC9F000812
:1011800070B50546EC2401F04DFD204601F01CFD34
:1011900001F094FD284601F017FD01F08FFD01F0EC
:1011A00041FDED2001F010FD01F088FD002001F06F
:1011B000DBFC044601F05EFD204670BD70B5882062
:1011C000FFF7DEFF04468920FFF7DAFF44EA00203C
:1011D000384C20808A20FFF7D3FF05468B20FFF78D
:1011E000CFFF45EA002060808C20FFF7C9FF05464D
:1011F0008D20FFF7C5FF45EA0020A0808E20FFF775
:10120000BFFF05468F20FFF7BBFF45EA0020E080C7
:101210009020FFF7B5FF05469120FFF7B1FF45EAA3
:10122000002020819220FFF7ABFF05469320FFF7B7
:10123000A7FF45EA002060819420FFF7A1FF054643
:101240009520FFF79DFF45EA0020A0819620FFF73B
:1012500097FF05469720FFF793FF45EA0020E081BE
:101260009820FFF78DFF05469920FFF789FF45EA93
:10127000002020829A20FFF783FF05469B20FFF77E
:101280007FFF45EA002060829C20FFF779FF05463A
:101290009D20FFF775FF45EA0020A0829E20FFF702
:1012A0006FFF05469F20FFF76BFF45EA0020E082B5
:1012B00070BD00006803002070B50E460546EC24A2
:1012C00001F0B0FC204601F07FFC01F0F7FC28465D
:1012D00001F07AFC01F0F2FC304601F075FC01F0FF
:1012E000EDFCBDE8704001F0C5BCFEE770470000B2
:1012F00070B52449022008604FF47A7004F038FA7F
:10130000214D0221284600F047F9002838D100225B
:101310000121284600F04DF9072002F04BF9044660
:1013200080060AD50F2002F08DF92021272002F037
:1013300069F9FF21E12002F065F960060CD5134838
:1013400002F05EF84021272002F05CF9FF21E22044
:1013500002F058F902F0A8F9E00611D50F2002F0CA
:1013600071F91021272002F04DF9FF21E12002F050
:1013700049F92846BDE870404FF4006100F011B90A
:1013800070BD000014040140000C0140DC0200208C
:1013900072B6704770B5044600F010F90546601C3F
:1013A00002D004480078044400F008F9401BA04231
:1013B000FAD370BD080000202DE9F84FDFF8B8918E
:1013C000002409F1040A0AF1040B23460F270BF14C
:1013D000040EC9E00125A5402A40AA427DD1674EEE
:1013E000D1F804C0ACEB0608B44532D014DCBCF133
:1013F000030F3AD009DCBCF1000F2AD0BCF1010F79
:101400001CD0BCF1020F31D11DE0BCF1110F17D07F
:10141000BCF1120F2AD119E0B8F5881F19D006DCEB
:10142000B8F5803F15D0B8F5801F1FD111E0B8F591
:10143000001F0ED0B8F5041F18D10AE0CB6815E0E4
:10144000CB681B1D12E0CB6808330FE0CB680C3370
:101450000CE08B682BB1012B4FF0080303D04561E2
:1014600004E0042302E0056100E00023FF2A01D824
:10147000064601E000F104064FEA840501D9A5F112
:101480002005D6F8008007FA05FC28EA0C0803FAC4
:1014900005F548EA0508C6F800804D68ED0062D5FC
:1014A000374DAE6946F00106AE61AD6924F0030622
:1014B00005F001050095334D06EB050CDCF80850EE
:1014C000A607360F07FA06F825EA0805DFF8B88000
:1014D000404503D14FF0000817E044E0DFF8AC804E
:1014E000404502D14FF001080FE0DFF8A4804045ED
:1014F00002D14FF0020808E0DFF89880404502D1A1
:101500004FF0030801E04FF0040808FA06F848EA33
:101510000508CCF808804D68D9F80060ED034D4609
:1015200001D5164300E096432E604D68DAF800605E
:10153000AD03554601D5164300E096432E604D6835
:10154000DBF80060ED025D4601D5164300E09643EE
:101550002E604D68DEF80060AD02754601D5164379
:1015600000E096432E60641C0D682A46E5407FF437
:1015700031AFBDE8F88F00000004014000001110F9
:10158000001002400000014000080140000C014032
:1015900000100140001401408068084000D0012084
:1015A0007047C26821EA02030A4043EA024101612E
:1015B00070470AB1016170470904FBE70148806880
:1015C000704700000800002002488168027811443A
:1015D0008160704708000020074810B5016841F09D
:1015E00010010160032000F06DF80F2000F006F8F4
:1015F00000F024F8002010BD0020024070B50D4D11
:1016000004464FF47A712878B1FBF0F00A49096872
:10161000B1FBF0F000F0CDFD48B9102C07D200224C
:101620002146501E00F02EF800206C6070BD012095
:1016300070BD00000800002014000020094808B513
:10164000816941F001018161816901F0010100912D
:10165000C16941F08051C161C06900F080500090C3
:1016600008BD000000100240002809DB00F01F0246
:10167000012191404009800000F1E020C0F80011F4
:1016800070470000F0B40E4B1B680C46C3F30223F6
:10169000C3F10705042D00D90425191D072901D21E
:1016A000002300E0DB1E012606FA05F1491E214059
:1016B00099409E40761E16403143F0BC02F0D7BBE5
:1016C0000CED00E0064900F0070208684FF6FF0342
:1016D000184040EA0220034A1043086070470000A7
:1016E0000CED00E00000FA052DE9F0470F4605007B
:1016F00061D0434E306800F00700B84209D230682C
:1017000020F0070038433060306800F00700B8422E
:1017100051D128683B4C810712D5400703D560683A
:1017200040F4E06060602878000703D5606840F40A
:10173000605060606068A96820F0F0000843606055
:101740002878C00728D06868012810D021680228AE
:1017500010D0890700292EDA616821F003010143C6
:101760006160FFF72BFF804641F288390DE0216868
:101770008903EFE78901EDE7FFF720FFA0EB080100
:10178000494502D90320BDE8F0876068696800F028
:101790000C00B0EB810FEFD1306800F00700B842C9
:1017A0000BD9306820F0070038433060306800F013
:1017B0000700B84201D00120E5E72878400705D5A9
:1017C0006068E96820F4E0600843606028780007FA
:1017D00006D56068296920F4605040EAC100606065
:1017E00000F03EF86168084AC1F30311515CC8403B
:1017F0000649086006480068FFF700FF0020C2E7BE
:101800000020024000100240209000081400002038
:101810000C00002001480068704700001400002000
:101820000448054900684968044AC1F30221515C33
:10183000C84070471400002000100240309000089B
:101840000448054900684968044AC1F3C221515C53
:10185000C84070471400002000100240309000087B
:1018600012A185B00FC98DE80F0014A0144A0068BA
:1018700004905168134801F00C03042B10D0082B7E
:101880000ED1C1F38343C9031DF803000AD5516883
:1018900004AAC1F34041515C0A4A5043B0FBF1F045
:1018A00005B0704708494843FAE700000203040501
:1018B000060708090A0B0C0D0E0F1010010200009C
:1018C0000010024000127A0000093D002DE9F84F97
:1018D000040070D02078C04DC00749D06868C0F3BC
:1018E0008100012807D06868C0F38100022809D16F
:1018F0006868C00306D52868800339D56068002869
:10190000E7D035E06068B0F5803F0BD010B1B0F59E
:10191000A02F11D0286820F480302860286820F497
:10192000802002E0286840F480302860606890B130
:10193000FFF744FE06460AE0286840F4802028604D
:10194000F0E700BFFFF73AFE801B642873D82868D1
:101950008003F7D50CE0FFF731FE064605E000BF37
:10196000FFF72CFE801B6428F0D828688003F7D48A
:1019700020789A4E80074FF001094FF0000839D5C2
:10198000686810F00C0F07D06868C0F38100022867
:1019900009D16868C00306D42868800714D5206977
:1019A000012808D110E02069B0B1C6F80090FFF717
:1019B00005FE074605E00AE1FFF700FEC01B02280E
:1019C000C4D828688007F7D52868616920F0F80036
:1019D00040EAC10028600DE0C6F80080FFF7EEFD88
:1019E000074604E0FFF7EAFDC01B022823D8286859
:1019F0008007F7D4207800072CD57948A169D9B1A0
:101A0000C0F80090FFF7DAFD074604E0FFF7D6FDC7
:101A1000C01B02280FD8686A8007F7D571484FF4B9
:101A2000FA510068B0FBF1F0009000BF0098411E31
:101A30000091FAD20EE080E0C0F80080FFF7BEFD12
:101A4000074604E0FFF7BAFDC01B022875D8686A94
:101A50008007F7D42078400760D5E8690027C000E8
:101A600008D4E86940F08050E861E869012700F097
:101A7000805000905C480168C90513D40168834612
:101A800041F480710160FFF799FD824606E000BFD6
:101A9000FFF794FDA0EB0A0064284ED8DBF80000A5
:101AA000C005F5D5E06801280AD008B1052813D093
:101AB000286A20F001002862286A20F0040002E071
:101AC000286A40F001002862E06841F2883B98B142
:101AD000FFF774FD82460BE0286A40F0040028629C
:101AE000EEE700BFFFF76AFDA0EB0A0159455AD89F
:101AF000286A8007F6D50CE0FFF760FD824605E016
:101B0000FFF75CFDA0EB0A0159454CD8286A800715
:101B1000F6D41FB1E86920F08050E861E06988B32D
:101B20006968C1F38101022944D00228C6F86080A7
:101B300004D0FFF743FD044638E034E0FFF73EFDF4
:101B4000074604E0FFF73AFDC01B02282BD828689F
:101B50008001F7D4206AB0F5803F05D16868A1689C
:101B600020F4003008436860D4E90801084369683C
:101B700021F4741108436860C6F86090FFF71EFDF9
:101B8000044606E025E000BFFFF718FD001B022811
:101B900009D828688001F7D51BE000BFFFF70EFDCC
:101BA000001B022802D90320BDE8F88F28688001B5
:101BB000F4D40EE00128F7D06868226A00F480317E
:101BC000914204D1616A00F47010884201D0012072
:101BD000EAE70020E8E7000000100240000042426F
:101BE00080044242140000200070004070B50400E0
:101BF00009D0606A002540B125616561A56294F84D
:101C0000510040B10CE0012070BD6068B0F5827FEA
:101C1000F4D0E561F2E784F85050204600F040F837
:101C2000022084F851002068016821F04001016021
:101C3000A088218900F4827001F404410843A1893D
:101C400001F400610843217C01F002010843217D79
:101C500001F001010843218B01F400710843217F49
:101C600001F03801084394F8201001F08001084386
:101C7000218D01F40051084321680860A069042106
:101C800001EA1040216848602068C16921F40061C0
:101C9000C1616565012084F85100002070BD00001D
:101CA00030B585B000240094019402940394006838
:101CB0001449884223D11448816941F480518161DB
:101CC000816901F480510491816941F004018161CD
:101CD00080690E4D00F004000490A02000900220C6
:101CE00001900320039069462846FFF765FB4020DA
:101CF000CDE90004694628460294FFF75DFB05B074
:101D000030BD0000003001400010024000080140DA
:101D10002DE9F84F044640680025984616460F46C0
:101D20004FF0040BB0F5827F01D1A06888B194F820
:101D30005000012818D0012084F85000FFF73EFC25
:101D4000814694F851004FF0000A01280ED0022578
:101D500082E084F851B013460A462046CDF8008050
:101D600000F036F9BDE8F88F0220FBE7002F72D0B3
:101D7000002E70D084F851B0C4F854A0A763A68791
:101D8000E687C4F830A0A4F834A0A4F836A0C4F8BC
:101D900040A0C4F844A0A068B0F5004F09D1206865
:101DA000016821F0400101602068016821F4804150
:101DB000016020680168490603D4016841F04001D0
:101DC0000160E068D8B139E020688168C90709D0AE
:101DD000007BA16B0870A06B401CA063E08F401ECD
:101DE000E0870CE0FFF7EAFBA0EB0901414503D3D4
:101DF000B8F1FF3F03D036E0B8F1000F33D0E08FE9
:101E00000028E1D11DE020688168C90709D0C068B9
:101E1000A16B0880A06B801CA063E08F401EE08750
:101E20000CE0FFF7CBFBA0EB0901414503D3B8F170
:101E3000FF3F03D017E0B8F1000F14D0E08F002867
:101E4000E1D14A464146204601F042FD08B120203A
:101E50006065606D00B10125012084F8510084F8AF
:101E600050A028467EE70325F6E72DE9F84F044603
:101E700090F8500000271D461646894601280DD0CF
:101E80004FF0010B84F850B0FFF798FB804694F8B0
:101E90005100BA46012804D0022793E00220BDE891
:101EA000F88FB9F1000F73D0002E71D0032084F8A1
:101EB0005100C4F854A0C4F83090A686E686C4F851
:101EC00038A0A4F83CA0A4F83EA0C4F844A0C4F8EC
:101ED00040A0A068B0F5004F09D12068016821F04A
:101EE000400101602068016841F480410160206880
:101EF0000168490603D4016841F040010160E068CF
:101F0000B0F5006F606803D030B3012E24D041E0FB
:101F100008B1012E1CD1206B21680088C86006E042
:101F200020688168890709D5216B0988C160206B09
:101F3000801C2063E08E401EE08609E0FFF73EFB38
:101F4000A0EB0800A84202D3681C01D031E07DB3A9
:101F5000E08E0028E4D120E0206B2168007808732F
:101F600006E020688168890709D5216B097801732B
:101F7000206B401C2063E08E401EE0860AE0FFF7E5
:101F80001DFBA0EB0800A84203D3681C02D010E0A0
:101F900017E06DB1E08E0028E3D142462946204685
:101FA00001F0C4FC08B120206065A06818B106E00B
:101FB000FFE7032706E02068C16880680090606D35
:101FC00000B1012784F851B084F850A0384666E784
:101FD0002DE9F84F044690F8500000270A9E1D4650
:101FE00092468B464FF0010901280ED0012084F85B
:101FF0005000FFF7E3FA804694F851006168012829
:102000000CD0B1F5827F07D102E00220BDE8F88F45
:10201000A16809B9042801D00227C2E0BBF1000F72
:1020200027D0BAF1000F24D01DB394F85100042832
:1020300002D0052084F8510000206065C4F838A063
:10204000E587A587C4F830B0E586A586206460647E
:1020500020680168490603D4016841F0400101602D
:10206000E068B0F5006F606805D0E8B3012D46D098
:102070007FE0012795E008B1012D39D1206B21685F
:102080000088C860206B801C2063E08E401EE086C4
:102090002EE02068816889070FD5E18E69B1B9F11A
:1020A000010F0AD1216B0988C160206B801C20635D
:1020B000E08E401EE0864FF0000920688168C90765
:1020C0000CD0E18F51B1C068A16B0880A06B801C5F
:1020D000A063E08F401EE0874FF00109FFF76EFA22
:1020E000A0EB0800B04200E009E001D3701C50D121
:1020F000E08E0028CDD1E08F0028CAD13FE0206BD0
:10210000216800780873206B401C2063E08E401E1D
:10211000E0862EE02068816889070FD5E18E69B1DD
:10212000B9F1010F0AD1216B09780173206B401CB2
:102130002063E08E401EE0864FF000092068816831
:10214000C9070CD0E18F51B1C068A16B0870A06BBA
:10215000401CA063E08F401EE0874FF00109FFF7AD
:102160002DFAA0EB0800B04202D3701C01D010E0A1
:102170007EB1E08E0028CDD1E08F0028CAD1424642
:102180003146204601F0D2FB28B1012720206065AE
:1021900007E0032705E0A06818B92068C1688068D7
:1021A0000090012084F85100002084F85000384647
:1021B0002CE710B5401EB0F1807F01D3012010BD87
:1021C0004FF0E02460610F21601701F050FE002005
:1021D000A06107202061002010BD7047704710B536
:1021E00090F83C20012A22D0012280F83C20CA68C5
:1021F0008C6822F4407222434C6822F480622243AD
:102200000C6822F4006222430C6922F480522243BB
:102210004C6922F400522243C969002322F480420F
:102220000A4301684A6480F83C30002010BD022057
:1022300010BD000070B590F83C20012A26D0012482
:1022400080F83C40022280F83D2003685A689D686F
:1022500022F070060A6832435A600D4B02689A42B7
:1022600008D0B2F1804F05D00A4B9A4202D00A4BF7
:102270009A4204D1496825F080031943916080F89F
:102280003D40002180F83C10084670BD022070BD22
:10229000002C0140000400400008004010B504007C
:1022A00003D094F83D0010B107E0012010BD0020DC
:1022B00084F83C00204600F01FF8022084F83D001E
:1022C000211D206801F0D6FB012084F8460084F827
:1022D0003E0084F83F0084F8400084F8410084F810
:1022E000420084F8430084F8440084F8450084F8F0
:1022F0003D00002010BD000038B505460068104CB8
:10230000B0F1804F0FD1E06940F00100E061E06979
:10231000002200F00100009011461C20FFF7B2F9E6
:102320001C20FFF7A1F907492868884207D1A06956
:1023300040F40060A061A06900F40060009038BD26
:1023400000100240002C014090F83D10012901D0FE
:1023500001207047022180F83D1000680B49884237
:1023600008D0B0F1804F05D00949884202D0094910
:10237000884204D1816801F00701062903D0016871
:1023800041F001010160002070470000002C014075
:10239000000400400008004090F83D10012901D0E1
:1023A00001207047022180F83D100168CA6842F0A0
:1023B0000102CA6000680B49884208D0B0F1804F22
:1023C00005D00949884202D00849884204D1816871
:1023D00001F00701062903D0016841F00101016005
:1023E00000207047002C014000040040000800401D
:1023F00070B5044690F83C00012817D0012584F8F8
:102400003C50022084F83D002068826822F0770268
:1024100022F47F4282600868502830D00DDC2028EA
:102420004DD005DC98B310283BD148E0022070BDA8
:10243000302844D0402834D139E0602828D0702892
:1024400006D0B0F5805F2CD0B0F5005F29D10AE04E
:10245000CB68D1E90121206801F04FFB2068816839
:1024600041F0770109E0CB68D1E90121206801F052
:1024700044FB2068816841F48041816011E0CA68B2
:102480004968206801F0EEFB5021206807E016E063
:10249000CA684968206801F0F6FB6021206801F0F5
:1024A00036FB84F83D50002084F83C0070BDCA68BB
:1024B0004968206801F0D6FB40212068EFE72268D8
:1024C00001461046EBE7704770B5044600680169A5
:1024D0004FF00005C943890715D4C168C94389076E
:1024E00011D4E91E016101202077206880698007EE
:1024F000204602D0FFF7E7FF04E000F0CDF82046C9
:1025000000F05CF9257720680169C943490717D4B1
:10251000C168C943490713D46FF004010161022067
:1025200020772068806910F4407F204602D0FFF7B2
:10253000CAFF04E000F0B0F8204600F03FF925772C
:1025400020680169C943090716D4C168C94309074E
:1025500012D46FF008010161042020772068C0695F
:102560008007204602D0FFF7AEFF04E000F094F8A9
:10257000204600F023F9257720680169C943C90680
:1025800017D4C168C943C90613D46FF010010161A3
:10259000082020772068C06910F4407F204602D0D0
:1025A000FFF791FF04E000F077F8204600F006F90D
:1025B000257720680169C943C90708D1C168C943A3
:1025C000C90704D1891E0161204600F047F920683F
:1025D0000169C943090609D4C168C943090605D47C
:1025E0006FF0800101612046FFF7F7FD2068016967
:1025F000C943490609D4C168C943490605D46FF0E7
:1026000040010161204600F047F920680169C94393
:1026100089060BD4C168C943890607D46FF020012D
:1026200001612046BDE87040FFF7D8BD70BD0000D5
:1026300010B586B000210091019102910391134CD5
:102640000368134902221348A3420AD18B6943F05D
:1026500004038B61896901F0040104914FF4106156
:102660000BE0B3F1804F0ED18B6943F004038B6113
:10267000896901F0040104910C21CDE90012694639
:102680000392FEF799FE06B010BD0000002C014039
:102690000010024000080140704770B5044690F8F1
:1026A0003C000D4601280AD0012084F83C0042B1CC
:1026B000042A18D0082A2AD00C2A4DD139E0022049
:1026C00070BD206801F02CFA2068816941F0080192
:1026D00081612068816921F004018161206881693C
:1026E0002A69114311E0206801F042FA20688169EB
:1026F00041F4006181612068816921F48061816118
:10270000206881692A6941EA0221816124E0206808
:1027100001F05AFA2068C16941F00801C1612068DE
:10272000C16921F00401C1612068C1692A691143AE
:1027300011E0206801F074FA2068C16941F4006179
:10274000C1612068C16921F48061C1612068C169EB
:102750002A6941EA0221C161002084F83C0070BD71
:1027600010B5040003D094F83D0010B107E001203B
:1027700010BD002084F83C00204600F01EF8022026
:1027800084F83D00211D206801F074F9012084F8CF
:10279000460084F83E0084F83F0084F8400084F846
:1027A000410084F8420084F8430084F8440084F82F
:1027B000450084F83D00002010BD704770470000C0
:1027C00010B50446022249B104290ED0082913D0BD
:1027D00094F84100012816D0012010BD94F83E0065
:1027E0000128F9D184F83E200FE094F83F00012839
:1027F000F2D184F83F2008E094F840000128EBD1A2
:1028000084F8402001E084F841200122206801F092
:1028100067F90F492068884203D1426C42F40042B4
:1028200042642068884208D0B0F1804F05D0094941
:10283000884202D00849884204D1816801F007012A
:10284000062903D0016841F001010160002010BD9C
:10285000002C014000040040000800400068B0F176
:10286000804F15D10B480168491C01604168491C23
:1028700041608168491C8160C168491CC16001696F
:10288000491C01614169491C41618169491C81619F
:102890007047000034010020704710F83D1F407859
:1028A0000843704770B5040004D094F83D0000253B
:1028B00010B106E0012070BD84F83C50204600F0C5
:1028C00023F8242084F83D002068C16821F40051D9
:1028D000C160204601F0EAF92068016921F49041C5
:1028E00001612068416921F02A0141612068C168C5
:1028F00041F40051C1602564202084F83D0084F833
:102900003E00002070BD000030B585B0002400946A
:1029100001940294039400681B49884231D11B48FA
:10292000816941F480418161816901F480410491B0
:10293000816941F0040181618069154D00F0040056
:1029400004904FF400700090022001900320039047
:1029500069462846FEF730FD2815CDE90004694692
:1029600028460294FEF728FD002211462520FEF796
:1029700089FE2520FEF778FE01220649064800F070
:102980000DF805B030BD00000038014000100240D5
:1029900000080140020000202002002090F83E3094
:1029A000202B0ED159B152B190F83C30012B08D0F8
:1029B000012380F83C300023036301F0D3B90120E8
:1029C00070470220704700002DE9F843044690F854
:1029D0003D001F4616460D4620284CD1C5B1BEB15C
:1029E00094F83C00012846D0012084F83C004FF0C8
:1029F0000008C4F84080212084F83D00FEF7DEFD89
:102A0000A6848146E684A068B0F5805F03D004E028
:102A10000120BDE8F883206928B12E465FF000054B
:102A200084F83C800EE00026FAE78021204601F081
:102A3000B4F9A0B9AEB116F8010B21684860E08C7A
:102A4000401EE084E08C4B464FF0000200970028C7
:102A5000EBD14FF04001204601F09FF930B1032047
:102A6000D7E735F8020BC0F30800E6E7202084F82A
:102A70003D000020CDE70220CBE7FEE77CB5144601
:102A80000D4606466B4606223B21682000F09CF965
:102A900000280BD1BDF8001049BA3180BDF80210F2
:102AA00049BA2980BDF8041049BA21807CBD7CB5A3
:102AB00014460D4606466B4606224321682000F068
:102AC00083F900280BD1BDF8001049BA3180BDF858
:102AD000021049BA2980BDF8041049BA21807CBD92
:102AE00010B50F4C002240212046FEF762FD00F099
:102AF000DFFE002280212046FEF75BFD022002F06F
:102B000037FE012240212046FEF753FD022002F04D
:102B10002FFE20460022BDE810404021FEF749BDAF
:102B2000000C014010B50F4C002240212046FEF75A
:102B300040FD00F0BDFE012280212046FEF739FD58
:102B4000022002F015FE012240212046FEF731FD51
:102B5000022002F00DFE20460022BDE81040402178
:102B6000FEF727BD000C01402DE9F0410746002487
:102B700000F08EFE134E0025002240213046FEF765
:102B800018FD022002F0F4FD012240213046FEF73C
:102B900010FD6006040E80213046FEF7FDFC08B1F2
:102BA000641CE4B2022002F0E3FD6D1CEDB2082DBE
:102BB000E2D327B1FFF794FF2046BDE8F081FFF78D
:102BC000B1FFF9E7000C014070B5054600F070FE5A
:102BD000134E002240213046FEF7EBFC002428066D
:102BE00001D5012200E0002280213046FEF7E1FC01
:102BF0006806050E012240213046FEF7DAFC02206D
:102C000002F0B6FD002240213046FEF7D2FC022041
:102C100002F0AEFD641CE4B2082CE0D370BD0000ED
:102C2000000C014010B500F043FE00F021FE104CF6
:102C3000012280212046FEF7BCFC012240212046D3
:102C4000FEF7B7FC022002F093FD0022802120460F
:102C5000FEF7AFFC022002F08BFD0022402120464F
:102C6000FEF7A7FCBDE81040022002F081BD000085
:102C7000000C014010B500F01BFE00F0F9FD0E4CF9
:102C8000002240212046FEF794FC002280212046AD
:102C9000FEF78FFC022002F06BFD0122402120464E
:102CA000FEF787FC012280212046FEF782FCBDE86A
:102CB0001040022002F05CBD000C014070B5002401
:102CC00000F0E6FD124D012280212846FEF771FC3E
:102CD000022002F04DFD012240212846FEF769FC4A
:102CE000022002F045FD80212846FEF755FC012810
:102CF00006D0002240212846FEF75BFC002070BD74
:102D0000641CE4B2FA2CFBD9FFF7B4FF012070BDBC
:102D1000000C014010B54FF4FA7400F0C9FD00F04A
:102D2000A7FD80216B2000F0BEF86420FEF732FB87
:102D300000216B2000F0B7F8032000F080F800209D
:102D400000F078F8204600F097F80021382000F0D5
:102D5000AAF800216A2000F0A6F80021232000F044
:102D6000A2F88021372000F09EF8752000F00EF8C0
:102D7000682801D0012010BD01216B2000F093F8DC
:102D800000216C2000F08FF8002010BD10B5044623
:102D9000FFF748FFD020FFF717FFFFF78FFF204610
:102DA000FFF712FFFFF78AFFFFF73CFFD120FFF785
:102DB0000BFFFFF783FF0020FFF7D6FE0446FFF767
:102DC00059FF204610BD00002DE9F0411D46144674
:102DD0000F460646FFF726FF7006000EFFF7F4FECB
:102DE000FFF76CFF20B1FFF745FF0120BDE8F08140
:102DF0003846FFF7E9FEFFF761FFFFF713FF0120F9
:102E000000EB4600C0B2FFF7DFFEFFF757FF09E017
:102E1000012C0DD05FF00100FFF7A6FE641E05F83F
:102E2000010BE4B2002CF3D1FFF724FF0020DDE713
:102E30000020F1E7C006010E1C2000F034B8C006E7
:102E4000010E1B2000F02FB8BC2801D3012110E097
:102E5000622801D302210CE02A2801D3032108E0D3
:102E6000142801D3042104E00A2801D3052100E03D
:102E700006211A2000F017B810B504464FF47A70F6
:102E8000844201D9044602E0042C00D20424B0FBA1
:102E9000F4F0401EC1B2192000F005F86008BDE84A
:102EA0001040FFF7D1BF70B50C460546FFF7BAFEDC
:102EB000D020FFF789FEFFF701FF50B92846FFF742
:102EC00083FEFFF7FBFE2046FFF77EFEFFF7F6FED0
:102ED00018B1FFF7CFFE012070BDFFF7CBFE002039
:102EE00070BD2DE9F0411E4615460F460446FFF71A
:102EF00099FE6006000EFFF767FEFFF7DFFE60B980
:102F00003846FFF761FEFFF7D9FE00240CE0305D84
:102F1000FFF75AFEFFF7D2FE20B1FFF7ABFE01200C
:102F2000BDE8F081641CE4B2AC42F0D3FFF7A2FE2E
:102F30000020F5E72DE9F043484885B0816941F06C
:102F400008018161816901F008010491816941F002
:102F500010018161816901F010010491816941F0E2
:102F600020018161816901F020010491816941F0B2
:102F7000040181618069DFF8E89000F0040001221B
:102F8000049011464846FEF714FB0122DFF8D48076
:102F9000D70239464046FEF70CFB012403250026E4
:102FA0000094694648460194CDE90245FEF704FACB
:102FB000CDE9007469464046CDE90245FEF7FCF9CB
:102FC000012210214846FEF7F4FA0122114640463C
:102FD000FEF7EFFA102003958DE851006946484648
:102FE000FEF7EAF903950094CDE9014669464046AB
:102FF000FEF7E2F902261C480096CDE90104694675
:103000004046FEF7D9F9002211460720FEF73AFBA9
:103010000720FEF729FB0420CDE900066946039549
:103020004846FEF7C9F90820CDE900066946039530
:103030004846FEF7C1F92002CDE90006694603952E
:103040004846FEF7B9F9CDE900766946484603954A
:10305000FEF7B2F905B0BDE8F083000000100240B1
:1030600000080140000C014000002110114810B57B
:103070000F4901604FF48271416000218160C1609D
:103080004FF400720161C0E905122822C0E907214E
:10309000416281620A21C162FEF7A8FD002806D0C4
:1030A00005A000F0ADFEBDE81040FEF771B910BDFF
:1030B000003001406402002073706920696E6974F9
:1030C000206572726F72200D0A00000010B596B074
:1030D00000240F9410941194129413941C216846A8
:1030E0001494FDF767F8202107A8FDF763F832482C
:1030F000304901604721C0E9011440F2E731C0E9DD
:1031000003148021C0E90541FFF7C8F808B1FEF7B4
:103110003FF94FF480500F900FA92748FFF768F947
:1031200008B1FEF735F92448FFF71AFB08B1FEF79E
:103130002FF9139413A920481494FFF77BF808B1D2
:10314000FEF726F96020CDE900040294049405946A
:103150000022694618480694FFF79FFA08B1FEF767
:1031600017F90C2269461448FFF797FA08B1FEF7E1
:103170000FF90794089409944FF400500A94CDE98C
:103180000B4007A90C480E94FFF729F808B1FEF789
:10319000FFF80948FFF74CFA0748FFF7D5F8002178
:1031A0000548FFF70DFB0C210348FFF709FB16B09C
:1031B00010BD0000002C01405421002010B58EB03D
:1031C00000240794089409940A940B941C216846DF
:1031D0000C94FCF7EFFF25484FF080410160472138
:1031E000C0E9011440F2E731C0E903148021816194
:1031F000FFF754F808B1FEF7CBF84FF48050079072
:1032000007A91A48FFF7F4F808B1FEF7C1F80B94C4
:103210000BA916480C94FFF70DF808B1FEF7B8F8A3
:103220006020CDE900040294082269460F48049406
:10323000FFF733FA08B1FEF7ABF80C2269460B48EA
:10324000FFF72BFA08B1FEF7A3F80848FFF7F0F9EB
:103250000648FFF7A1F808210448FFF7B1FA0C214E
:103260000248FFF7ADFA0EB010BD00009C2100200F
:103270000E4810B50C4901604FF4E1314160002166
:1032800081600C22C160C0E904128161C161FFF755
:1032900009FB08B1FEF77CF8BDE8104001220449A3
:1032A0000248FFF77BBB00000038014020020020ED
:1032B00002000020FEE7FEE710B505E06420FEF7FF
:1032C00069F804A000F09CFD00F028F90028F5D072
:1032D00010BD00000D4E524632343031206E6F204A
:1032E000636F6E6E6563742E2E2E0D0A0000000053
:1032F00010B51E4C002201212046FEF75AF9032189
:10330000232000F07FF905221949302000F0C0F891
:1033100017490522491D2A2000F0BAF81A21242055
:1033200000F070F90121222000F06CF90121212028
:1033300000F068F92021312000F064F90C490522E1
:10334000491D2A2000F0A4F82821252000F05AF970
:103350002721262000F056F90F2000F073F92046AF
:103360000122BDE810401146FEF723B9000C0140D0
:103370001A0000202DE9F743DFF8589016468846DA
:10338000002210214846FEF714F94FF0FF373B4664
:10339000012269461048FEF768FD054600240EE04C
:1033A0003B46012241460C48FEF7B2FC050003D023
:1033B0000AA000F025FD04E008F10108641CB442F5
:1033C000EEDB012210214846FEF7F3F82846BDE85F
:1033D000FE83000000080140640200204E52463285
:1033E000344C30315F526561645F427566206E6FA8
:1033F000742073756363657373200D0A09090900EE
:1034000070B50B4D0446002201212846FEF7D1F885
:10341000202221466120FFF7ADFFFF21E22000F0CE
:10342000F1F82846BDE8704001221146FEF7C1B808
:10343000000C014070B5144D0446002201212846BD
:10344000FEF7B7F805221149302000F021F80F49A6
:103450000522491D2A2000F01BF820222146A02029
:1034600000F016F80E21202000F0CCF87E21272055
:1034700000F0C8F8012211462846FEF79AF8BDE888
:1034800070400A2002F074B9000C01401A000020BC
:103490002DE9F743DFF858901646884600221021A0
:1034A0004846FEF786F84FF0FF373B460122694653
:1034B0001048FEF7DAFC054600240EE03B460122E8
:1034C00041460C48FEF7D1FC050003D00AA000F0ED
:1034D00097FC04E008F10108641CB442EEDB012211
:1034E00010214846FEF765F82846BDE8FE83000037
:1034F00000080140640200204E524632344C303104
:103500005F57726974655F427566206E6F742073D1
:103510007563636573733220000000001CB512A14F
:103520000522D1E90001CDE9000169463020FFF70D
:10353000AFFF052269461020FFF71CFF00216846F7
:10354000425CA52A03D1491CC9B20529F8D3052933
:1035500004D007A000F054FC00201CBD06A000F021
:103560004FFC01201CBD0000A5A5A5A5A5000000DD
:10357000692069732025640032343031207375630B
:10358000636573730000000010B5FFF795FE01221C
:1035900010210648FEF70DF8002201210448FEF72D
:1035A00008F8BDE81040FFF7A3BE00000008014086
:1035B000000C014031B5114D84B000221021284685
:1035C000FDF7F7FFFF208DF804004FF0FF3423468E
:1035D000012204A90A48FEF748FC012302AA01A916
:1035E00007480094FEF7F4FC012210212846FDF75D
:1035F000E0FF9DF8080005B030BD00000008014064
:103600006402002073B50D4C002210212046FDF706
:10361000D0FF4FF0FF352B46012269460848FEF7E0
:1036200024FC2B46012201A90548FEF71EFC0122BD
:1036300010212046FDF7BDFF30467CBD000801404B
:103640006402002010B5164C0E284FF000024FF017
:103650000101204613D0FDF7ACFF0F212020FFF71A
:10366000D1FF7E212720FFF7CDFF01221146204602
:10367000FDF79FFFC820BDE8104002F079B8FDF7C4
:1036800098FF0E212020FFF7BDFF7E212720FFF7A6
:10369000B9FF012211462046FDF78BFF0F20EAE714
:1036A000000C0140704700002DE9F04347484849AD
:1036B00090F800C001F802CB90F801C001F801CCED
:1036C00090F802C081F800C090F8038081F8018072
:1036D00090F804C0C14681F802C090F8058081F8D6
:1036E000038090F8068068F31F6290F8078068F303
:1036F000174290F8088068F30F2290F8098068F369
:10370000070290F80A8068F31F6390F80B8068F353
:10371000174390F80C8068F30F2390F80D8068F33E
:10372000070390F80E8068F31F6490F80F8068F329
:10373000174490F8108068F30F2490F8118068F314
:10374000070490F8128068F31F6590F8138068F3FF
:10375000174590F8148068F30F2590F8158068F3EA
:10376000070590F8168068F31F6690F8178068F3D5
:10377000174690F8188068F30F2690F8198068F3C0
:10378000070690F81A8068F31F6790F81B8068F3AB
:10379000174790F81C8068F30F2790F81D804A6047
:1037A0008B60CC600D6168F307074E618F61807F8D
:1037B00008770849087869F3010020F0180040F004
:1037C00004006CF345100870BDE8F083DC020020B3
:1037D0009007002000010020224923480A78027047
:1037E0004A7842708A788270CA78C2700A79027107
:1037F000497941711D4951F8062F130E8371130C3D
:10380000C371130A037242724A68130E8372130C57
:10381000C372130A037342738A68130E8373130C03
:10382000C373130A03744274CA68130E8374130CAF
:10383000C374130A037542750A69130E8375130C5A
:10384000C375130A037642764A69130E8376130C06
:10385000C376130A03774277097E81770621C17701
:10386000FFF7E8BDAF070020BC0200209007002052
:103870001FB540200090012001900290022003908B
:1038800069460248FDF798FD1FBD0000000C01408D
:103890001FB580200090002001900120029002209E
:1038A000039069460148FDF787FD1FBD000C0140EC
:1038B0001FB580200090012001900290022003900B
:1038C00069460248FDF778FD1FBD0000000C01406D
:1038D000F8B5044640684FF48273984217D1A06847
:1038E0004FF48065B0F5004F01D0A8420FD1206899
:1038F000066826F0400606606068984207D1A06816
:10390000A84204D100920B460022012103E000925C
:103910000B4600228021204600F018F8002804D031
:10392000606D40F0200060650320F8BD38B50B469F
:10393000009204460022802100F008F8002804D0FC
:10394000606D40F020006065032038BD2DE9F8432C
:103950001E46914688460446089DFDF72FFE401BF3
:10396000351AFDF72BFE074625480068C0F3CB301B
:10397000684338E0701C37D0FDF720FEC01BA8421A
:1039800003D215B1009860B32CE02068416821F0A3
:10399000E00141606068B0F5827F0BD1A068B0F5AE
:1039A000004F02D0B0F5806F04D12068016821F08B
:1039B00040010160A06AB0F5005F09D1206801688C
:1039C00021F4005101602068016841F40051016058
:1039D000012084F85100002084F850000320BDE845
:1039E000F8830025401E00902068816838EA0100B5
:1039F00004D000214945BDD10020F0E70121F9E7BD
:103A0000140000207047FDF7DFBD30B58FB02821CE
:103A10006846FCF7CFFB14210AA8FCF7CBFB012179
:103A20000804CDE900100024029402250491CDE998
:103A300007504FF4E01009906846FDF747FF00B1CA
:103A400072B60F20CDE90A054FF48060CDE90C4035
:103A500002210AA80E94FDF747FE002800D072B696
:103A60000FB030BD704700000148FEF72DBD0000CB
:103A70009C210020F0B50268164B174C174D4FF0F3
:103A80008047984205D0B84203D0A04201D0A84256
:103A900003D122F070064A683243984205D0B842FA
:103AA00003D0A04201D0A84203D122F44074CA68D6
:103AB00022434C6922F08002224302608A68C2627B
:103AC0000A688262984201D109690163012141615A
:103AD000F0BD0000002C0140000400400008004040
:103AE00010B501F01F030121046A99408C43046260
:103AF000016A9A401143016210BD10B5846842EA20
:103B0000032224F47F440A432243826010BD82686A
:103B100022F070020A4342F0070181607047000002
:103B200030B5026A22F001020262026A43688469C7
:103B300024F073050C682C4322F002058A682A439E
:103B40000A4DA8420BD122F00805CA6823F440733D
:103B50002A434D6922F004021D438B692B434360C5
:103B6000846149684163026230BD0000002C01405D
:103B700030B5026A22F010020262026A4368846968
:103B80000D6824F4E64444EA05248D6822F02002FE
:103B900042EA05120B4DA8420ED1CD6822F08002F8
:103BA00042EA05124D6923F4406343EA85038D69B7
:103BB00022F0400243EA85034360846149688163DF
:103BC000026230BD002C014030B5026A22F48072DE
:103BD0000262036A4268C46923F4007324F0730527
:103BE0000C682C438D6843EA05230C4DA8420ED186
:103BF000CD6823F4006343EA05234D6922F4405263
:103C000042EA05128D6923F4806342EA051242609C
:103C1000C4614968C163036230BD0000002C0140EB
:103C200030B5026A22F480520262046A4268C369B3
:103C30000D6823F4E64343EA05238D6824F4005419
:103C400044EA0534064DA84204D14D6922F480426D
:103C500042EA85124260C36149680164046230BD72
:103C6000002C014010B5036A046A24F001040462C8
:103C7000846924F0F00444EA021423F00A020A439F
:103C80008461026210BD10B5036A23F01003036261
:103C90008369046A23F4704343EA023224F0A003E8
:103CA00043EA01118261016210BD000070B5044653
:103CB00000680169E26821F4405111430161216902
:103CC000A0680843616908432168CA6841F20C632F
:103CD0009A430243CA6020684169A26921F4407195
:103CE000114341611E492068884202D1FDF7A8FDB9
:103CF00001E0FDF795FD00EBC00101EB00126068EB
:103D000064218000B2FBF0F3B3FBF1F36FF018060F
:103D10007343B2FBF0F5B2FBF0F605EB83053223FB
:103D200003EB0515B5FBF1F5B6FBF1F605F0F00573
:103D300005EB0615B2FBF0F6B2FBF0F0B0FBF1F0CC
:103D40006FF01802504306EB800003EB0010B0FB4D
:103D5000F1F0216800F00F002844886070BD000079
:103D60000038014081628285C285002101642222DF
:103D700080F83E2080F83C100168CA6842F48072E6
:103D8000CA6001684A6942F001024A610068C1687C
:103D900041F02001C160002070472DE9F0419846B4
:103DA00017460E460446069D1DE0681C1BD02DB12B
:103DB000FDF704FCA0EB0800A84214D92068C168F4
:103DC00021F4D071C1602068416921F00101416195
:103DD000202084F83D0084F83E00002084F83C0058
:103DE0000320BDE8F0812068006836EA000004D0B6
:103DF0000020B842D9D00020F3E70120F9E7FEE720
:103E00000FB4054B10B503A9044A029800F05AFA02
:103E100010BC5DF814FB0000195F00085001002081
:103E2000490050EAC12018BF04204A0D18BF40F0D5
:103E3000010040F2FF72B2EB515F08BF40F0020098
:103E4000012808BF052070474100080218BF042060
:103E50000A0E18BF40F001004FF07F4232EA010124
:103E600008BF40F00200012808BF0520704709077D
:103E7000090E002804DB00F1E02080F800147047F0
:103E800000F00F0000F1E02080F8141D70472DE9CC
:103E9000F0414F1E00EBC7010446D1E90001154671
:103EA0001E4637F006020DD02A463346FCF715FBB6
:103EB0007F1E04EBC703D3E90023FCF767FA37F052
:103EC0000602F1D1022F25D0042F13D0062F18BFE0
:103ED000BDE8F0812A463346FCF7FFFAD4E90A230D
:103EE000FCF754FA2A463346FCF7F7FAD4E90823DC
:103EF000FCF74CFA2A463346FCF7EFFAD4E90623DE
:103F0000FCF744FA2A463346FCF7E7FAD4E90423DF
:103F1000FCF73CFA2A463346FCF7DFFAD4E90223E1
:103F2000FCF734FA2A463346FCF7D7FAD4E90023E3
:103F3000BDE8F041FCF72ABA0022134610460149B9
:103F4000FCF73DBB0000F03F0122FCF7A7BBFCF7EC
:103F50001DBA0022134610461146FCF730BB40F252
:103F6000013200204FF0E041FCF798BB024A0020EC
:103F70001107FCF793BB000001FDFFFF00214FF08C
:103F80007E50FCF7B9B90121FCF7F4B9FCF72AB966
:103F900000210846FCF7B0B961214FF0E040FCF782
:103FA000E9B96FF05E010807FCF7E4B92DE9F04DBF
:103FB0000D4614464FF07F41B1EB440F9EBF4FF0CA
:103FC000FF312960BDE8F08D4FF0004040EA042148
:103FD000C4F3C750783810F01F024A4B4FEA601CF8
:103FE000C2F120067B44C4F3C750A0F178004FEA29
:103FF000601003EB800053F82C3008BFD0E901C6F5
:1040000012D0D0F804C093402CFA06F73B438768DF
:104010000CFA02FC27FA06F8C06807FA02F2F04030
:104020004CEA080C42EA0006A3FB0132ACFB01C0DB
:10403000A6FB016101EB0C068E4234BF4FF0010C70
:104040004FF0000CC1186144BCF1000F02D0814256
:1040500002D903E0814201D2012000E00020104497
:1040600000F120024FEA92188006CA0C40EA423062
:104070004F03C5F80080FCF728FB82463846FCF762
:104080002DFB6FF01201FCF775F907463046FCF77F
:1040900025FB6FF02501FCF76DF983463946504644
:1040A000FCF7A0F85946FCF79DF800F500666FF3A1
:1040B0000B0651463046FCF7E7F83946FCF7E4F8C2
:1040C0005946FCF7E4F81049FCF7E4F807460F49B5
:1040D0003046FCF7DFF83946FCF784F807460C4910
:1040E0003046FCF7D7F83946FCF77CF814F0004F5F
:1040F00008BFBDE8F08DC8F1805180F00040296014
:10410000BDE8F08D585F0000DB0FC92F22AAFD2902
:104110000000C92F02E008C8121F08C1002AFAD106
:1041200070477047002001E001C1121F002AFBD137
:1041300070470000014908607047000054010020EA
:104140002DE9FF5F82B00021DDE90430020DDDF8CA
:1041500040B0034318D044F61050A2F2FF3242435D
:104160001514119801281FD0A5EB0B00401C5FEA25
:10417000000A4FF000064E4FDFF83891B046504627
:1041800015D5CAF1000413E0119801244AA30128AF
:1041900001D16FEA0B010298119AC0E90031C0E920
:1041A000024206B0BDE8F09FCBF10000DFE7044615
:1041B0000021404A491842EB0450CDE9001012E0BA
:1041C000E00707D032463B4640464946FCF785F9B2
:1041D0008046894632463B4610461946FCF77DF933
:1041E00006460F466410002CEAD1DDE90401DDE942
:1041F0000023BAF1000F06DAFCF76FF942464B468E
:10420000FCF76BF905E0FCF7DAF942464B46FCF7A0
:10421000D6F904460E460022284BFCF7E1FC03D8F1
:104220004FF0FF30014607E00022254B2046314683
:10423000FCF7ACF8FCF795FC102409E0002C0ADB35
:104240000A220023FCF75AFB039B30321A55641EE6
:1042500050EA0102F2D1641C039AC4F11103144420
:10426000119A012A03D0012208430DD10AE0084324
:1042700004D000204FF0110B119072E7A3EB0B0557
:104280006D1E0DE05B4504DD4FF0000205F10105F8
:1042900004E003DA4FF00002A5F10105002AECD09A
:1042A00002981199C0E90231C0E9004579E70000A0
:1042B000000014400000F03F300000000000F04318
:1042C0000000E03F2DE9FF4F95B09B46894606462A
:1042D00000250FE2252877D100242746F84A01213E
:1042E000059400E0044316F8013F203B01FA03F077
:1042F0001042F7D130782A2811D06FF02F03307890
:10430000A0F13002092A16D8059A44F0020402EB03
:10431000820203EB42021044761C0590EFE759F845
:10432000042B0592002A03DA504244F4005405900D
:1043300044F00204761C30782E2816D116F8010FAE
:1043400044F004042A280DD06FF02F023078A0F139
:104350003003092B09D807EB870302EB4303C71887
:10436000761CF3E759F8047B761C30786C280FD064
:1043700006DC4C2817D068280DD06A2814D104E038
:10438000742810D07A280FD10DE044F400140AE00C
:1043900044F4801401E044F440147278824202D163
:1043A00004F58014761C761C307866280BD013DC5C
:1043B000582877D009DC002875D04528F6D0462843
:1043C000F4D047281AD19DE118E0632835D064283D
:1043D00079D0652812D195E1702873D008DC672860
:1043E000F1D069286FD06E280DD06F2806D1B5E0C6
:1043F00073282CD0752875D0782874D05A46179910
:1044000090476D1C75E1C4F30250022809D00328BF
:104410000DD0D9F8001004280DD00D6009F1040961
:1044200067E1D9F80010EA17C1E90052F6E7D9F8B8
:1044300000100D80F2E70D70F0E719F8041B8DF8FD
:10444000001000208DF80100EA46012003E059F831
:1044500004AB4FF0FF3061074FF0000102D40DE0D4
:1044600008F101018846B9420FDA8045F8DB1AF8F5
:1044700008100029F4D108E008F1010188468142C2
:10448000FADB1AF808100029F6D105985B46A0EB74
:10449000080721463846179A00F094FA284400EBA2
:1044A000080507E04DE029E10DE01AF8010B5A4636
:1044B00017999047B8F10108F7D25B462146384674
:1044C000179A13E142E00A220092C4F302524FF01D
:1044D000000A022A08D059F804CB032A4FEAEC71EB
:1044E0000AD00DE029E02AE009F1070121F00702D6
:1044F000F2E802C1914609E00FFA8CFC4FEAEC7138
:10450000042A03D14FFA8CFC4FEAEC71002907DA38
:104510000A460021DCF1000C61EB02012D2202E0D1
:10452000220504D52B228DF80420012203E0E207A6
:1045300001D02022F7E7904659E00A2102E010223C
:104540000DE010214FF0000A00910BE010224FF017
:10455000000A44F004040827009203E008224FF008
:10456000000A0092C4F30252022A05D059F804CB83
:104570000021032A08D009E009F1070121F0070210
:10458000F2E802C1914605E01FFA8CFC042A01D131
:104590000CF0FF0C4FF00008220728D5702806D039
:1045A000009B83F0100353EA0A0305D00EE040227B
:1045B0008DF80420012208E05CEA010206D03022D6
:1045C0008DF804208DF8050002229046009B83F0B0
:1045D000080353EA0A030AD15CEA010201D1620727
:1045E00005D530228DF804204FF001087F1E582891
:1045F00004D034A003900EA802900DE036A0F9E795
:1046000053466046009AFCF779F984460398825C29
:104610000298401E029002705CEA0100F0D10298FC
:1046200006A9081A00F1200A600702D524F4803494
:1046300000E00127574502DDA7EB0A0000E000205B
:1046400000EB0A01009005984144401A0590E003F0
:1046500006D45B462146179A059800F0B3F9054445
:10466000002706E001A85A46C05D179990476D1CC7
:104670007F1C4745F6DBE0030CD55B462146179AC5
:10468000059800F09FF9054404E030205A46179938
:1046900090476D1C0099481E00900029F5DC08E049
:1046A000029802995A460078491C0291179990473E
:1046B0006D1CBAF10001AAF1010AF1DC65E100000C
:1046C00009280100303132333435363738396162E8
:1046D00063646566000000003031323334353637AC
:1046E00038394142434445460000000000F058F983
:1046F0000544761C307800287FF4ECAD19B02846CC
:10470000BDE8F08F620700D4062709F1070222F006
:10471000070CFCE80223E14603F000485FEA080CBE
:1047200002D00FF2702C0DE05FEA045C02D50FF2AC
:10473000682C07E05FEAC47C02D00FF2602C01E035
:10474000AFF2700C4FF0FF3823F00043CDF850C0AB
:1047500065280CD006DC452809D046281DD04728FE
:104760003DD13DE0662818D067287ED138E0002191
:10477000112F01DB112000E0781CCDE9000106A912
:104780000EA8FFF7DDFCDDE90F010E9A0391002171
:10479000009207F1010A04914DE04FF000400097AC
:1047A000CDE9011006A90EA8FFF7CAFCDDE90F024A
:1047B00003920E9B11990022DDF80CA00093049245
:1047C00011B9791C00EB010AB7EB0A0004D4C0F15F
:1047D000FF3007F1010A0490AAEB0700019044E0C2
:1047E000012F00DA01270021112F01DD112000E047
:1047F0003846CDE9000106A90EA8FFF7A1FCDDE9C6
:104800000F010E9A0391002104910092BA462107EC
:104810000CD40399514500DA8A46BAF1010F05DD3F
:10482000009AAAF10101515C302908D0B84202DA9D
:1048300010F1040F06DA0121CDE9011015E0AAF10B
:104840000101E9E7002805DC049901440491AAEB81
:10485000000102E0411C514500DD8A460499401ADE
:10486000401C01904FF000400290200704D40198B2
:10487000504501DBCDF8048000208DF84F000298F0
:104880000DF14F07B0F1004F25D02B200E9002986C
:104890004FF0020800280CDA404202902D200E90C2
:1048A00007E00A210298FCF713F83031029007F86C
:1048B000011DB8F10001A8F10108F2DC02980028FE
:1048C000EFD1791E0E980870307800F0200040F08B
:1048D000450007F8020D12A8C01B00F10708149844
:1048E000007800B1012000EB0A01019801EBE071B2
:1048F00005984144401A401E0590E00306D45B46EB
:104900002146179A059800F05DF805441498007840
:1049100018B15A46179990476D1CE00324D55B46A1
:104920002146179A059800F04DF805441CE00498BC
:10493000002807DBDDE90301884203DD0098405CC5
:10494000179901E0179930205A469047049805F1CD
:104950000105401C04900198401E019004D12E20B6
:104960005A46179990476D1CBAF10001AAF1010A45
:10497000DDDC05E017F8010B5A46179990476D1CCE
:10498000B8F10001A8F10108F4DC5B462146179A52
:104990000598ABE62D0000002B0000002000000071
:1049A0002DE9F041044600251E461746880404D42C
:1049B00005E039462020B0476D1C641EF9D5284615
:1049C000BDE8F0812DE9F041044600251E469046E1
:1049D000C80301D5302700E02027880404D505E06E
:1049E00041463846B0476D1C641EF9D52846BDE8DF
:1049F000F081000070B50E4D0E460446A84201D36A
:104A000084F00040FBF750FF01D200240EE0B4F523
:104A1000000F04DB31462046FBF736FC05E0AC42D4
:104A200004D331462046FBF7DDFB0446204670BD2B
:104A3000000080802DE9F04D8D4F21F0004A86B0B6
:104A400005460C46BA452ADBAAEB070028430AD0E4
:104A50008848824501DC1AD1CDB106B02846BDE8B0
:104A6000F04DFFF771BA844A844B2846FBF735FDB9
:104A700007460E46824A834B28462146FBF72DFD0A
:104A800006B03A463346BDE8F04DFBF77FBC012047
:104A9000FFF750FB06B0BDE8F04DFFF75ABA7A4871
:104AA000824542DABAF1795F0BDA2846FFF7B8F9A6
:104AB000042808BFFFF75AFA284606B02146BDE889
:104AC000F08D2A460B461046FBF707FD834602464B
:104AD0006E480E460B4606217844FFF7D8F95A4631
:104AE0003346FBF7FAFC804669488A465A46334605
:104AF00004217844FFF7CBF95A463346FBF7EDFC27
:104B000000223B46FBF742FC02460B46404651461C
:104B1000FBF755FD2A462346FBF7DFFC06B02A4685
:104B20002346BDE8F04DFBF731BC284624F0004198
:104B300000223D463B46FBF7CDFC4FF0FF32FBF732
:104B4000ADFD0646024653480F460B460621784403
:104B5000FFF79DF932463B46FBF7BFFCCDE900016C
:104B60004D4832463B4604217844FFF790F93246DF
:104B70003B46FBF7B2FC00222B46FBF707FC8346C3
:104B800002913046394604F045F8804643480D46C8
:104B9000504517DCDDE900015A46029BFBF70FFD8B
:104BA00042462B46FBF799FC42462B46FBF7EEFBB1
:104BB0000122FBF773FD304A304BFBF788FC304A8B
:104BC000304B4CE04FF0000A52460B464046FBF794
:104BD000DDFBCDE9031052462B4610461946FBF784
:104BE0007CFC32463B46FBF775FCDDE90332FBF704
:104BF000E6FC06460F46DDE900015A46029BFBF73C
:104C0000DEFC83460091012230463946FBF746FD23
:104C1000194A1A4BFBF75EFC06460F460122404636
:104C20002946FBF73BFD5A46009BFBF756FC3246F4
:104C30003B46FBF74CFC06460F46012250462946F0
:104C4000FBF72CFD0E4DDFF858802A464346FBF754
:104C500041FC32463B46FBF73DFC2A464346FBF708
:104C600039FC002CD8BF81F0004106B0BDE8F08DC2
:104C70000000F03F0000F07F075C143326A6913C53
:104C8000182D4454FB21F93F0000E03FAC510000D7
:104C9000C2510000365100004C5100003333EF3F49
:104CA000FB21E93F2DE9F84F04460D4621F0004075
:104CB00000917349814211DC7249884201DC06D1BE
:104CC0002CB120462946BDE8F84FFFF73DB96E48A4
:104CD000002DCCBF6D496E49BDE8F88F6D4981420A
:104CE00011DD6D498142D8BF4FF0FF366DDD2046A2
:104CF0002946FFF795F8042808BFFFF737F9204643
:104D00002946BDE8F88F6549654F25F00045814289
:104D100033DD6449814219DD002632464FF080437D
:104D200020462946FBF732FB80468A460122204670
:104D30002946FBF7B3FC00223B46FBF7C8FB424683
:104D40005346FBF73CFC04460D463EE0012600229C
:104D5000BA463B4620462946FBF718FB80460F46DD
:104D60000022534620462946FBF7B1FB42463B460C
:104D7000FBF725FC04460D4627E04B4981421BDD2D
:104D8000DFF828A102260022534620462946FBF7D9
:104D9000A4FB00223B46FBF7F9FA80460F460022AF
:104DA000534620462946FBF792FB42463B46FBF71B
:104DB00006FC04460D4608E0032622462B4600204A
:104DC0003B49FBF7FCFB04460D4622462B461046AA
:104DD0001946FBF782FB8B46824602460B46FBF7E1
:104DE0007CFB07460246334888460B46062178443A
:104DF000FFF74DF852465B46FBF76FFB82462E48A5
:104E00008B463A46434605217844FFF740F83A4638
:104E10004346FBF762FB02460B46002E50465946BE
:104E20000CDAFBF7B3FA22462B46FBF756FB01B030
:104E300022462B46BDE8F04FFBF74CBBFBF7A6FA2A
:104E400022462B46FBF749FB1C4A7A4402EBC60379
:104E5000D3E90023FBF73BFB22462B46FBF737FB4E
:104E6000174A7A4402EBC603D3E90023FBF732FB6F
:104E7000009A002AB8BF81F00041BDE8F88F000019
:104E8000000010440000F07F182D4454FB21F93F2E
:104E9000FB21F9BF0000DC3F0000203E0000F33F93
:104EA0000000F03F0000E63F008003400000F83FB4
:104EB0000000F0BF16510000D450000072500000F6
:104EC0003A5000002DE9F04D9446CCF1000423F057
:104ED00000464CEA0404524F46EAD4749A46884687
:104EE00021F00042BC4206D8454240EA050442EAAD
:104EF000D474BC4204D9BDE8F04D6246FFF727B830
:104F0000AAF14055A5F17F6555EA0C040BD00224A7
:104F100004EAAA74434DDFF810E144EAD87452EA77
:104F2000000B04D00CE0BDE8F04DFFF7BBBE002C39
:104F300014BF012CBDE8F08D022C30D0032C32D0F0
:104F400056EA0C0B0AD0BE4220D1BA4209D126F053
:104F5000804622F080423346114617E000291ADBD2
:104F600025E0DFF8C8B0FB44002C04BFDBE90001FA
:104F7000BDE8F08D012C02BFDBE9000181F00041AA
:104F8000BDE8F08D022C0AD0032C0CD0BA4212D10D
:104F9000B8F1000F0BDA23482549BDE8F08D28460B
:104FA0002449BDE8F08D28467146BDE8F08D1D48C6
:104FB0002149BDE8F08D921B12153C2AC4BF194847
:104FC0001D490EDCBAF1000FBEBF12F13C0F0020EC
:104FD000014606DB6246FBF7F2FA21F00041FFF7DB
:104FE00061FE002C08BFBDE8F08D012C04BF81F0EC
:104FF0000041BDE8F08D114A114B022C07D0FBF7A0
:1050000066FA2A46BDE8F04D0A4BFBF760BAFBF79B
:105010005EFA2A46BDE8F04D064BFBF75BBA00008E
:105020000000F07F182D4454FB2109C0CE4F000032
:10503000FB21F9BFFB210940FB21F93F075C143339
:1050400026A6A13C2DE9F0474FF0684202EB400351
:105050000C460546B3F1654F3CBF02EB4102B2F18D
:10506000654F7CD2C0F3C753C1F3C7529A1A1B2AAB
:1050700006DD10F0004F14BF76487748BDE8F08792
:1050800012F11A0F17DA11F0004F06D010F0004F8E
:105090000CBF72487248BDE8F08721462846FBF7EE
:1050A0002BF90446FEF7D0FE042808BFFEF779FF6F
:1050B0002046BDE8F0874200B2EB410F25D910F041
:1050C000004F19BF674F684E684F694E224685F002
:1050D000004415460A4680F0004110460A1A520064
:1050E000B2F1807F40D248406249DFF88CA110F0D5
:1050F000004F18D04FF03F483846FBF7C5F8074639
:1051000051463046FBF7C0F817E011F0004F04BFDE
:1051100000263746E2D010F0004F19BF574F584EC7
:10512000584F594EDAE74FF07C583846FBF75AF89B
:10513000074651463046FBF755F806464146284695
:10514000FBF7A8F82146FBF74DF88246214640467A
:10515000FBF7A0F82946FBF79AF8514600E037E044
:10516000FBF7CAF8044604E021462846FBF7C4F8DA
:1051700004460146FBF78EF880464449FBF78AF85F
:105180004349FBF72FF84146FBF784F84149FBF709
:1051900029F84146FBF77EF83F49FBF723F84146E3
:1051A000FBF778F83D49FBF71DF8054641462046D8
:1051B000FBF770F82946FBF76DF83146FBF712F85C
:1051C0002146FBF70FF83946BDE8F047FBF70AB870
:1051D0004FF07F42B2EB400F28BFB2EB410F03D23A
:1051E000BDE8F047FEF7D2BE40EA01035B0008BF0E
:1051F00044F0FF410AD0B2EB400F08BFB2EB410FC1
:1052000006D125F0804024F0804105460C4629E770
:10521000B2EB400F12BF5FEA410245F0FF4004F0DD
:1052200000413FF41FAF4A0092EA40033FF51AAF36
:10523000002AACBF4FF09F464FF03E563146FBF779
:1052400029F8054631462046FBF724F8044628464F
:10525000214607E7DB0FC9BFDB0FC93FDB0F494022
:10526000DB0F49C00000C9BF22AAFDB90000C93F39
:1052700022AAFD390060ED3EC30ACE37000049C0C6
:1052800022AA7DBA0000494022AA7D3A2DAD65BD13
:105290008FB8D53D0FB511BE61C84C3EA8AAAABEB5
:1052A00070B50D460646016814462868FAF7ECFF0B
:1052B0000146124801F0A0FE206071686868FAF7A4
:1052C000E3FF01460D483C3001F096FE6060B16896
:1052D000A868FAF7D9FF0A4A0A49904202DDFAF7AC
:1052E000D3FF04E0084A904201D9FAF77BFF014658
:1052F0000248783001F080FEA06070BD9403002069
:10530000000034430000B443000034C37CB50546BC
:10531000304801912F4CC0680090D4E901230E461B
:1053200000212D4801F03AFE204601968069009048
:105330002948D4E9042300213C3001F02FFE204607
:105340000196406A00902448D4E907230021783070
:1053500001F024FE214E2048314601F049FE1E484E
:1053600031463C3001F044FE1B481D49783001F0C5
:105370003FFE20460195006B00901748D4E90A23B0
:105380000021B43001F00AFE20460195C06B009068
:105390001148D4E90D230021F03001F0FFFD204633
:1053A0000195806C0090D4E9102300210D4801F094
:1053B000F5FD0D4C0B482146783801F019FE0948DF
:1053C00021463C3801F014FEBDE87C400749054801
:1053D00001F00EBEF0060020940300200000F04112
:1053E00000003443C00400200000FA43000048429B
:1053F00070B50D460646016814462868FAF744FF62
:1054000001460F4801F0F8FD01F0DCFD20607168F5
:105410006868FAF739FF014609483C3001F0ECFDB5
:1054200001F0D0FD6060B168A868FAF72DFF014671
:105430000348783001F0E0FD01F0C4FDA06070BDCC
:105440004804002070B50D46044600F05BF917488B
:10545000174E017821F03B0141F004010170B07852
:10546000287314484FF00005007881070AD14007DF
:1054700008D50120A56384F832000F48808AFBF725
:105480002DF9206256F8060F206070686060B068E1
:10549000A06084F83050074884F8315084F83350C5
:1054A000C01E84F83450057070BD0000000100205B
:1054B0009007002007010020D806002010B52148E1
:1054C0001F4A4FF07E5300F10C040021C0E9012374
:1054D00084E80E001C4C52028161C0E90A42C0E916
:1054E0000C248263C263C1614FF07F52C0E908128D
:1054F000C0E91031154A8164C0E92221154B436689
:10550000134AC0F89020144B8366144BC36647F6C9
:10551000FF73A0F89C30C0F898104FF08143C0F89A
:105520009410C0E91C310E4CC0E91E43C0E92014A0
:10553000C0E91321C0E91512C165016610BD000064
:105540000000A040F00600200000DC420000C04047
:10555000000090400000C8420000164300002041B7
:105560009A99193F70B514460D460646FBF79CF90B
:1055700001D2284670BD21463046FBF79FF901D283
:10558000204670BD304670BD2DE9F8430446024602
:105590004F486946B0EB420F09D94FF0E640B0EBF7
:1055A000420F94BF00204FF0FF30009030E0494B95
:1055B00022F00040834271D947492046FAF76AFE3B
:1055C000FBF754FA8046FBF7C2F800F003000090A6
:1055D00042494046FAF75EFE054641494046FAF721
:1055E00059FE06463F494046FAF754FE07463E49F3
:1055F0004046FAF74FFE2146FAF749FE3946FAF7D8
:1056000043FE3146FAF740FE2946FAF73DFE0446CE
:105610002546009C002C45DB294614F0010F084666
:105620001CD0FAF737FE06463049FAF733FE304908
:10563000FAF72DFE3146FAF72DFE2E49FAF7D2FD84
:105640003146FAF727FE2946FAF724FE2946FAF7EB
:10565000C9FD14F0020F1CD0BDE8F883FAF71AFE5A
:1056600005462549FAF716FE2449FAF7BBFD2946F7
:10567000FAF710FE2249FAF7B5FD2946FAF70AFEB5
:105680004FF07E51FAF7AEFD14F0020F08BFBDE8EF
:10569000F88380F00040BDE8F883FFE71046FEF78E
:1056A00085FCB4E76800B0F17F4F3CBF4FF07E50FF
:1056B000BDE8F88307D14FF00100FEF73BFDBDE8E0
:1056C000F843FEF765BC2846BDE8F843FEF75BBC2F
:1056D000B61F927E490E494683F9223F1A61342C47
:1056E0000020A23300A0FD390000C93F336D4C39C2
:1056F000DA82083CA0AA2ABEB93AB2BACA9F2A3DA9
:10570000DDFFFFBE10B50B4C0B4914F8020F4870BB
:105710002069FBF735F809498882A068486060680D
:105720000860E06888600648616940F8941FA169D4
:10573000416010BD9007002004010020D806002021
:10574000F006002010B54FF0E02041698069081A8A
:1057500006490968B0FBF1F4FBF730FF00EB4001AC
:10576000C1EBC01004EBC00010BD0000040000201D
:1057700070B50546FFF7E6FF4FEA0004FFF7E2FFCA
:10578000001BA842FAD370BD08B560B120208DF887
:10579000000028208DF8010030208DF8020038200C
:1057A0008DF8030004E0A32204216846FAF7FBFC0D
:1057B0006A46042140F69E2001F0C6FB01F066F91E
:1057C00008BD00003EB5044602208DF80000CA2046
:1057D0008DF80100E3208DF8020009208DF8030008
:1057E0006A460421682001F0AFFBA3208DF8000079
:1057F000610609D5C0218DF80110C8218DF802106D
:10580000C2218DF8031005E08DF801008DF802002B
:105810008DF8030014F4C07F09D0C4218DF8041062
:10582000CC218DF80510C6218DF8061005E08DF805
:1058300004008DF805008DF806008DF808008DF83D
:1058400007008DF809006A460A2140F6A72001F0FA
:105850007BFBA0074FF0D80503D020208DF8000077
:1058600001E08DF800506A46012140F6B62001F0B3
:105870006BFBA00601D5012000E0002000F08EF8AF
:1058800014F4C07F1ED0E0050AD5B2208DF80000C8
:105890008B208DF80100B6208DF802009B2009E0D6
:1058A000B0208DF8000080208DF80100B4208DF824
:1058B000020090208DF803006A46042140F6A220E1
:1058C00001F042FBE1074FF40B6022D0F8218DF884
:1058D00000106A46012101F037FBFA21072000F091
:1058E00067FA072000F032FA012000F04FFA642036
:1058F00000F0F2FA4FF4FA7000F0FEFAC8212548E1
:1059000000F0ECF9282000F001FA0A2000F00EFA6D
:1059100005E08DF800506A46012101F015FBA00753
:1059200003D5D9208DF8000001E08DF800506A46BB
:10593000012140F23D7001F007FB600701D5012015
:1059400000E0002000F048F8E00601D5012000E06A
:105950000020FFF719FF104D44F00800688101F0A6
:1059600095F80020A873600601D50620A87314F4EA
:10597000C07F02D0A87B801DA87314F0140F02D042
:10598000A87B1030A873A00702D0A87B001DA873C5
:1059900000203EBD09E3CA02840300200EB54FF487
:1059A000976310B106A107C901E008A207CA8DE8F4
:1059B00007006A460921184601F0C6FA0EBD00002C
:1059C000B8AAB38DB4980D355D000000B8AAAAAA94
:1059D000B088C3C5C700000008B560B1C0208DF80D
:1059E0000000C2208DF80100C4208DF80200C620FE
:1059F0008DF8030004E08B2204216846FAF7D3FBFC
:105A00006A46042140F6982001F09EFA01F03EF823
:105A100008BD0000C8234FF48062024940F6F6300A
:105A200000F016BF8C9000082DE9FF4F89B0174693
:105A3000DDE9165200244C4E884681462C80A24651
:105A4000B07B694600F0B0FF4FF0FF3B18B15846FD
:105A50000DB0BDE8F08F708910F0140F3CD00099A4
:105A600009BA21F0FF039DF803100B433B60019935
:105A70001B1409BA21F0FF029DF807105B430A438B
:105A80007A6002999DF80B4009BA21F0FF01214389
:105A9000B960039C091424BA24F0FF0C9DF80F4050
:105AA00012144CEA040CC7F80CC04FEA2C474943C7
:105AB00002FB023207FB071111441024A1F17061AF
:105AC000B1F1007F04D900F0E1FFA5F800A0BEE726
:105AD000298841F4807129804206694611D50A1946
