:020000040800F2
:100000009820002001010008C32F000805270008E0
:10001000C12F0008110C0008713800080000000012
:100020000000000000000000000000007533000820
:10003000130C000800000000653100087733000849
:100040001B0100081B0100081B0100081B01000820
:100050001B0100081B0100081B0100081B01000810
:10006000150C00081B0100081B0100081B010008FB
:100070001B0100081B0100081B0100081B010008F0
:100080001B0100081B0100081B0100081B010008E0
:100090001B0100081B0100081B0100081B010008D0
:1000A0001B0100081B0100081B0100081B010008C0
:1000B000D93300081B0100081B0100081B010008C0
:1000C0001B0100081B0100081B0100081B010008A0
:1000D0001B010008653800081B0100081B0100080F
:1000E0001B0100081B0100081B010008DFF80CD0F1
:1000F00000F0ECFC004800478150000898200020E8
:100100000648804706480047FEE7FEE7FEE7FEE7B1
:10011000FEE7FEE7FEE7FEE7FEE7FEE7D533000871
:10012000ED0000082DE9F0410024061B254671F181
:10013000000605DA01240027D0EB070067EB010178
:10014000161E73F1000605DA0027D2EB070201251F
:1001500067EB030300F04CFB86460E4617469C46B1
:10016000AC4204D00025D0EB050E65EB010624B1AE
:100170000020D2EB000760EB030C704631463A4694
:100180006346BDE8F081202A04DB203A21FA02F020
:100190000021704721FA02F3D040C2F120029140C1
:1001A000084319467047D2B201E000F8012B491EFE
:1001B000FBD270470022F6E710B513460A46044604
:1001C0001946FFF7F0FF204610BDF0B480EA0102A7
:1001D000D40F4200B2EB410F02D20246084611464C
:1001E0004A0042D0C30DDDB2C1F3C752AD1A202D73
:1001F00035DAC1F3160141F4000204B15242C5F1EF
:10020000200602FA06F12A411044B3EBD05F23D056
:10021000C4B1012DA0EBC35009DCF0BC4FF000428B
:1002200002EAC352DBB200F5000000F03CBB400024
:1002300000F1807000EBC350A0F1807040EAD170F3
:10024000490009E0490841EAC071A0EBC35000F53C
:100250000000400800EBC350F0BC00F01BBB614243
:10026000012202EB4101001BF6E7F0BC704781F070
:100270000041AAE780F00040A7E780EA010210B53C
:1002800002F00043400022D04A001FD0010E01EBD3
:100290001261C0F35600C2F3560240F4000042F46B
:1002A0000002A0FB022000047F39140400D0401C8F
:1002B00050EA124001D44000491EC2B20C0604EBC1
:1002C000D010401C4008802A02D003E0002010BD5E
:1002D00020F00100002900DA0020184310BD30B4DE
:1002E00080EA010202F0004530F0004221F00040B7
:1002F00013D090B1C30DD40DC2F31601C0F3160094
:10030000E41A41F4000140F400027D34914201D32B
:10031000641C00E04900002C02DA30BC0020704769
:100320004FF400000023914201D3891A034340088F
:100330004FEA4101F7D151B1914202D14FF0004152
:1003400005E002D24FF0010101E06FF0010103EB83
:10035000C450284430BC00F09DBA420005D0C0F320
:10036000C7525242914201DC0020704700EBC1505D
:1003700070472DE9FE4F804681EA0300C00F0C460E
:10038000009021F0004123F00045B8EB0200A941A4
:1003900005D24046214690461C460B46024623F0B5
:1003A0000040104347D0270DC7F30A00C3F30A519A
:1003B0000290401A019040286BDAC3F3130040F416
:1003C000801B0098924620B10023D2EB030A63EB16
:1003D0000B0B01985946C0F14002504600F039FA23
:1003E00006460D4650465946019A00F041FA10EB78
:1003F00008006141002487EA115284EAE7731A4336
:1004000040D0009A62B3019A012A4FEA075215DCE4
:10041000001B61EB02014FF0004202EA0752CDE9F6
:100420000042001C41F5801132462B4600F0A7FA2D
:1004300003B0BDE8F08F40462146F9E7001B61EBB1
:100440000201001C41F5801300185B412018A2F541
:10045000001747EB030140EAD570B6196D4111E072
:100460006D084FEA360645EAC0754FEA0752001B91
:1004700061EB0201001C41F5801149084FEA300090
:100480000019514132462B4603B0BDE8F04F00F051
:1004900067BA0098012240000023D0EB020263EB10
:1004A000E073009821464FEAE074B8EB000061EB7E
:1004B0000401E9E783F000435BE781F0004158E77E
:1004C0002DE9FE4F81EA030404F0004421F00041CD
:1004D00000944FF0000B23F0004350EA01045ED07B
:1004E00052EA03045BD0C3F30A54C1F30A552C4407
:1004F000A4F2F3340194A0FB0254C1F3130141F4BC
:100500008011C3F3130343F4801301FB024400FB87
:10051000034E840A970A44EA815447EA8357A4FBAE
:10052000076802958D0A05FB07854FEA932C04FBAB
:100530000C542705029D4FEA065847EA1637B5EBDB
:1005400008056EEB070C870E920E47EA811742EA08
:100550008312A7FB0201B6EB0B0164EB00042B0D29
:1005600043EA0C335E1844EB1C50DA465146E7FB75
:100570000201C5F313044FEA0B3343EA14534FEA65
:100580000432019C43EA0603A4F10C040294009C8B
:10059000CDE900B400F0F3F903B0BDE8F08F00201E
:1005A0000146F9E72DE9F04D81EA030404F0004B20
:1005B00021F0004514464FF0000A23F0004150EAB4
:1005C000050220D054EA01021DD0C5F30A570246A5
:1005D000C5F31303C1F31300C1F30A5640F48015A9
:1005E00043F48013A7EB0608101BD64608F2FD382B
:1005F00073EB050002D308F1010801E092185B419A
:10060000B8F1000F03DA00200146BDE8F08D0020AC
:100610004FF48011064684460EE0171B73EB050766
:1006200005D3121B63EB050306434CEA010C490892
:100630004FEA300092185B4150EA0107EDD152EACF
:10064000030012D082EA040083EA0501084305D0C2
:10065000101BAB4106D20122002306E000224FF01E
:10066000004302E06FF0010253101AEB06004CEB5E
:10067000085110EB0A0041EB0B01BDE8F04D00F012
:100680006FB9C10F80EAE0700844CA0796230021C1
:1006900000F009B996230022114600F004B9F0B425
:1006A000CA17CB0F50405140C61841F100054FEA20
:1006B000C372314628004FF0960303D0B623F0BC36
:1006C00000F0F1B830460021F9E70EB540F23341B1
:1006D00002910021CDE900110A460B4600F04FF9C6
:1006E00003B000BD00F0004220F00040C10DC0F397
:1006F000160040F400007F2901DA00207047962997
:1007000003DCC1F19601C84001E096398840002A17
:10071000F4D04042704720F00040C10DC0F31600F5
:1007200040F400007F2901DA00207047962903DC9D
:10073000C1F19601C840704796398840704700F073
:10074000004230F000400AD0C10D01F56071C0F3E5
:10075000160042EA0151C2084007114370470020C9
:100760000146704701F0004330B421F0004150EAE7
:10077000010206D00A0DA2F56072C1F31301002A2E
:1007800002DC30BC00207047440F44EAC104C100C1
:10079000E01830BC00EBC25000F07CB8002801DB50
:1007A000C0F10040002901DBC1F1004181427047E6
:1007B000002801DBC0F10040002901DBC1F100414C
:1007C0008842704730B50B460146002020220124A4
:1007D00009E021FA02F59D4205D303FA02F5491B0F
:1007E00004FA02F52844151EA2F10102F1DC30BD25
:1007F0002DE9F05F0546002092469B468846064656
:10080000814640241BE02846414647462246FFF7E2
:10081000BAFC53465A46C01A914110D311461846A5
:10082000224600F016F82D1A67EB01084F462246C3
:100830000120002100F00DF817EB00094E41201EA9
:10084000A4F10104DFDC484631462A464346BDE8B0
:10085000F09F202A04DB203A00FA02F100207047C2
:100860009140C2F1200320FA03F3194390407047EE
:10087000202A06DBCB17203A41FA02F043EAE07364
:1008800006E041FA02F3D040C2F120029140084351
:10089000194670470029A8BF7047401C490008BF8F
:1008A00020F00100704710B4B0FA80FC00FA0CF0A0
:1008B00050EA010404BF10BC704749B1CCF12004D8
:1008C00021FA04F411FA0CF118BF01212143084365
:1008D000A3EB0C01CB1D4FEA00614FEA102042BF91
:1008E000002010BC704700EBC35010440029A4BF87
:1008F00010BC7047401C490008BF20F0010010BC2C
:100900007047F0B4002802DCF0BC00207047C0F350
:10091000C751C0F3160040F40000CA0701D14000DF
:10092000491E3F2202EB6105002211464FF40006EA
:1009300026FA01F31344D418844201D8001B1A4646
:100940004000491C1729F3DD5100814202D24FF0CB
:10095000FF3100E0002102EBC550F0BCFFF79ABF69
:1009600010B5141E73F1000408DA401C41F10001B7
:1009700092185B411A4301D120F0010010BD2DE90E
:10098000F04D92469B4611B1B1FA81F202E0B0FA05
:1009900080F220329046FFF75CFF04460F4640EAA3
:1009A0000A0041EA0B0153465A46084313D0114648
:1009B00053EA010019D0C8F140025046FFF7E3FBAB
:1009C00005460E46504659464246FFF742FF084349
:1009D00005D0012004E020463946BDE8F08D002016
:1009E000054346EAE0762C4337430A986305E40A58
:1009F000A0EB08000022FD0A44EA47540A3002D561
:100A000000200146E9E7010510196941DDE90845C3
:100A100000196941BDE8F04DA2E7C1F30A52C1F3E4
:100A2000130140F2FF3341F480119A4202DA0020B0
:100A30000146704740F233439A42A2F2334202DC4D
:100A40005242FFF7A0BBFFF704BF10B500F000440F
:100A500020F00040C20DC0F3160040F400007F2AD1
:100A600007DA7D2A00DA7D22763A00FA02F10020C8
:100A700008E0962A09DCA2F1760100FA01F1C2F140
:100A80009602D040FFF706FF01E0963A9040002C16
:100A900000D0404210BD000030B5041E71F10004CA
:100AA00004DB4FF00044404264EB0101141E73F17B
:100AB000000405DB1C464FF00043524263EB040385
:100AC000994208BF904230BD00207047064C074D48
:100AD00006E0E06840F0010394E80700984710340E
:100AE000AC42F6D3FFF706FBFC5E00081C5F000873
:100AF0002DE9FC47804642480E466B460622F72108
:100B0000807801F001FE9DF800009DF801100003BF
:100B100040EA01109DF802103A4C40EA11179DF886
:100B200003009DF80410000340EA01109DF8051031
:100B3000228840EA1110C110A1EB4201C2EB201043
:100B400063884043A2885943000BC90A504301EB14
:100B5000903505EB8500803025830012FFF791FD6D
:100B6000DFF8A4904946FFF7BAFBC8F80000274811
:100B7000238A00EB650082105243D1125943E38966
:100B8000434301EB4301A389891001EB0343511354
:100B900062895143CA102189414302EB61008014EC
:100BA000E18800F500404143C9130DD0C7F580101E
:100BB000A0EB233040F635425043B0F1004F05D250
:100BC0004000B0FBF1F004E0002016E0B0FBF1F0D3
:100BD0004000C1104943E28A49135143A38A82105D
:100BE0005A430913638A01EB6231194400EB211067
:100BF000FFF747FD4946FFF772FB3060BDE8FC8711
:100C000018000020600200200000C8420006FFFF1C
:100C1000FEE7704710B51D4C0221204600F0AEF9EA
:100C2000002832D000220121204600F0B4F907202C
:100C300002F020FA044680060AD50F2002F062FA7C
:100C40002021272002F03EFAFF21E12002F03AFAAB
:100C5000600608D50E4802F0F3F94021272002F083
:100C600031FA02F081FAE0060AD50F2002F04AFAC2
:100C70001021272002F026FAFF21E12002F022FABB
:100C8000BDE81040082000F0E1B910BD000C0140A3
:100C90002C02002072B6704710B590F82110002287
:100CA000022905D00421816380F82020012010BD95
:100CB00001680B6823F00E030B6001680B6823F0DA
:100CC00001030B6090F84030C46B012101FA03F37B
:100CD000636080F8211080F82020104610BD0000CD
:100CE00010B590F821100024022903D0042181635B
:100CF00001243DE001680A6822F00E020A600168E2
:100D00000A6822F001020A601A4A0168914201D180
:100D1000012121E0174A1432914201D110211BE038
:100D2000144A2832914201D1891515E0114A3C320A
:100D3000914201D189140FE00E4A5032914202D102
:100D40004FF4803108E00B4A6432914202D14FF4F3
:100D5000801101E04FF08071064A083A516001218C
:100D600080F82110002180F82010416B01B18847E4
:100D7000204610BD0800024070B5044600F010F98E
:100D80000546601C02D004480078044400F008F9CD
:100D9000401BA042FAD370BD080000202DE9F84F97
:100DA000DFF8B891002409F1040A0AF1040B234684
:100DB0000F270BF1040EC9E00125A5402A40AA42E5
:100DC0007DD1674ED1F804C0ACEB0608B44532D0F3
:100DD00014DCBCF1030F3AD009DCBCF1000F2AD0BF
:100DE000BCF1010F1CD0BCF1020F31D11DE0BCF1F0
:100DF000110F17D0BCF1120F2AD119E0B8F5881FD6
:100E000019D006DCB8F5803F15D0B8F5801F1FD18A
:100E100011E0B8F5001F0ED0B8F5041F18D10AE094
:100E2000CB6815E0CB681B1D12E0CB6808330FE0E0
:100E3000CB680C330CE08B682BB1012B4FF008030F
:100E400003D0456104E0042302E0056100E00023D3
:100E5000FF2A01D8064601E000F104064FEA8405A6
:100E600001D9A5F12005D6F8008007FA05FC28EA8B
:100E70000C0803FA05F548EA0508C6F800804D6835
:100E8000ED0062D5374DAE6946F00106AE61AD6941
:100E900024F0030605F001050095334D06EB050C23
:100EA000DCF80850A607360F07FA06F825EA080509
:100EB000DFF8B880404503D14FF0000817E044E068
:100EC000DFF8AC80404502D14FF001080FE0DFF8B9
:100ED000A480404502D14FF0020808E0DFF8988076
:100EE000404502D14FF0030801E04FF0040808FA32
:100EF00006F848EA0508CCF808804D68D9F8006083
:100F0000ED034D4601D5164300E096432E604D6833
:100F1000DAF80060AD03554601D5164300E096436C
:100F20002E604D68DBF80060ED025D4601D516438A
:100F300000E096432E604D68DEF80060AD02754615
:100F400001D5164300E096432E60641C0D682A46C6
:100F5000E5407FF431AFBDE8F88F000000040140A8
:100F60000000111000100240000001400008014084
:100F7000000C01400010014000140140806808404E
:100F800000D001207047C26821EA02030A4043EA08
:100F90000241016170470AB1016170470904FBE732
:100FA00001488068704700000800002002488168FE
:100FB000027811448160704708000020074810B58E
:100FC000016841F010010160032000F079F80F2062
:100FD00000F006F800F024F8002010BD00200240C8
:100FE00070B50D4D04464FF47A712878B1FBF0F0DE
:100FF0000A490968B1FBF0F000F0E1FD48B9102C96
:1010000007D200222146501E00F03AF800206C6002
:1010100070BD012070BD00000800002014000020F9
:10102000094808B5816941F001018161816901F0D8
:1010300001010091C16941F08051C161C06900F0B6
:101040008050009008BD000000100240002809DB1D
:1010500000F01F02012191404009800000F1E020D2
:10106000C0F880127047002809DB00F01F02012140
:1010700091404009800000F1E020C0F80011704765
:10108000F0B40E4B1B680C46C3F30223C3F10705F3
:10109000042D00D90425191D072901D2002300E0E1
:1010A000DB1E012606FA05F1491E214099409E40AB
:1010B000761E16403143F0BC02F0FFBB0CED00E0A1
:1010C000064900F0070208684FF6FF03184040EA9F
:1010D0000220034A10430860704700000CED00E056
:1010E0000000FA052DE9F0470F46050061D0434E98
:1010F000306800F00700B84209D2306820F00700DD
:1011000038433060306800F00700B84251D1286899
:101110003B4C810712D5400703D5606840F4E0607E
:1011200060602878000703D5606840F46050606014
:101130006068A96820F0F000084360602878C00764
:1011400028D06868012810D02168022810D08907AB
:1011500000292EDA616821F0030101436160FFF785
:101160001FFF804641F288390DE021688903EFE7CF
:101170008901EDE7FFF714FFA0EB0801494502D90B
:101180000320BDE8F0876068696800F00C00B0EBF0
:10119000810FEFD1306800F00700B8420BD93068FA
:1011A00020F0070038433060306800F00700B84294
:1011B00001D00120E5E72878400705D56068E96897
:1011C00020F4E060084360602878000706D5606876
:1011D000296920F4605040EAC100606000F03EF8E8
:1011E0006168084AC1F30311515CC84006490860B0
:1011F00006480068FFF7F4FE0020C2E70020024026
:1012000000100240A45D0008140000200C00002023
:101210000148006870470000140000200448054998
:1012200000684968044AC1F30221515CC840704714
:101230001400002000100240B45D00080448054975
:1012400000684968044AC1F3C221515CC840704734
:101250001400002000100240B45D000812A185B007
:101260000FC98DE80F0014A0144A0068049051685B
:10127000134801F00C03042B10D0082B0ED1C1F33E
:101280008343C9031DF803000AD5516804AAC1F3BA
:101290004041515C0A4A5043B0FBF1F005B0704741
:1012A00008494843FAE70000020304050607080955
:1012B0000A0B0C0D0E0F101001020000001002406E
:1012C00000127A0000093D002DE9F84F040070D0AB
:1012D0002078C04DC00749D06868C0F3810001285C
:1012E00007D06868C0F38100022809D16868C0038C
:1012F00006D52868800339D560680028E7D035E036
:101300006068B0F5803F0BD010B1B0F5A02F11D0C0
:10131000286820F480302860286820F4802002E0CB
:10132000286840F480302860606890B1FFF738FE8C
:1013300006460AE0286840F480202860F0E700BFF5
:10134000FFF72EFE801B642873D828688003F7D52A
:101350000CE0FFF725FE064605E000BFFFF720FE84
:10136000801B6428F0D828688003F7D420789A4E30
:1013700080074FF001094FF0000839D5686810F078
:101380000C0F07D06868C0F38100022809D1686893
:10139000C00306D42868800714D52069012808D125
:1013A00010E02069B0B1C6F80090FFF7F9FD0746DC
:1013B00005E00AE1FFF7F4FDC01B0228C4D8286845
:1013C0008007F7D52868616920F0F80040EAC1007D
:1013D00028600DE0C6F80080FFF7E2FD074604E054
:1013E000FFF7DEFDC01B022823D828688007F7D44A
:1013F000207800072CD57948A169D9B1C0F80090B0
:10140000FFF7CEFD074604E0FFF7CAFDC01B022828
:101410000FD8686A8007F7D571484FF4FA51006811
:10142000B0FBF1F0009000BF0098411E0091FAD28D
:101430000EE080E0C0F80080FFF7B2FD074604E050
:10144000FFF7AEFDC01B022875D8686A8007F7D485
:101450002078400760D5E8690027C00008D4E86913
:1014600040F08050E861E869012700F0805000906A
:101470005C480168C90513D40168834641F4807152
:101480000160FFF78DFD824606E000BFFFF788FD93
:10149000A0EB0A0064284ED8DBF80000C005F5D5A3
:1014A000E06801280AD008B1052813D0286A20F086
:1014B00001002862286A20F0040002E0286A40F057
:1014C00001002862E06841F2883B98B1FFF768FDAF
:1014D00082460BE0286A40F004002862EEE700BF75
:1014E000FFF75EFDA0EB0A0159455AD8286A80072C
:1014F000F6D50CE0FFF754FD824605E0FFF750FDFE
:10150000A0EB0A0159454CD8286A8007F6D41FB1D0
:10151000E86920F08050E861E06988B36968C1F348
:101520008101022944D00228C6F8608004D0FFF768
:1015300037FD044638E034E0FFF732FD074604E0AB
:10154000FFF72EFDC01B02282BD828688001F7D496
:10155000206AB0F5803F05D16868A16820F40030AA
:1015600008436860D4E908010843696821F47411EC
:1015700008436860C6F86090FFF712FD044606E075
:1015800025E000BFFFF70CFD001B022809D82868E2
:101590008001F7D51BE000BFFFF702FD001B02280A
:1015A00002D90320BDE8F88F28688001F4D40EE04A
:1015B0000128F7D06868226A00F48031914204D192
:1015C000616A00F47010884201D00120EAE700202F
:1015D000E8E700000010024000004242800442425E
:1015E000140000200070004070B5040009D0606A4B
:1015F000002540B125616561A56294F8510040B1B4
:101600000CE0012070BD6068B0F5827FF4D0E56128
:10161000F2E784F85050204600F040F8022084F8A9
:1016200051002068016821F040010160A0882189F3
:1016300000F4827001F404410843A18901F40061BF
:101640000843217C01F002010843217D01F00101E2
:101650000843218B01F400710843217F01F0380118
:10166000084394F8201001F080010843218D01F413
:101670000051084321680860A069042101EA104074
:10168000216848602068C16921F40061C161656515
:10169000012084F85100002070BD000030B585B0F5
:1016A0000024009401940294039400681549884230
:1016B00026D115A002F0DEF81648816941F4805168
:1016C0008161816901F480510491816941F00401D3
:1016D00081618069104D00F004000490A02000900A
:1016E000022001900320039069462846FFF756FB2D
:1016F0004020CDE90004694628460294FFF74EFBDE
:1017000005B030BD0030014073706920696E6974A6
:101710000000000000100240000801402DE9F84FD1
:10172000044640680025984616460F464FF0040BC5
:10173000B0F5827F01D1A06888B194F850000128EB
:1017400018D0012084F85000FFF72AFC814694F855
:1017500051004FF0000A01280ED0022582E084F8E3
:1017600051B013460A462046CDF8008000F036F905
:10177000BDE8F88F0220FBE7002F72D0002E70D05A
:1017800084F851B0C4F854A0A763A687E687C4F8CC
:1017900030A0A4F834A0A4F836A0C4F840A0C4F83F
:1017A00044A0A068B0F5004F09D12068016821F07D
:1017B000400101602068016821F4804101602068D7
:1017C0000168490603D4016841F040010160E06806
:1017D000D8B139E020688168C90709D0007BA16BC6
:1017E0000870A06B401CA063E08F401EE0870CE0F7
:1017F000FFF7D6FBA0EB0901414503D3B8F1FF3F4A
:1018000003D036E0B8F1000F33D0E08F0028E1D1EB
:101810001DE020688168C90709D0C068A16B0880F5
:10182000A06B801CA063E08F401EE0870CE0FFF7F8
:10183000B7FBA0EB0901414503D3B8F1FF3F03D04B
:1018400017E0B8F1000F14D0E08F0028E1D14A462C
:101850004146204601F0F4FC08B120206065606D2F
:1018600000B10125012084F8510084F850A02846D9
:101870007EE70325F6E72DE9F84F044690F850007F
:1018800000271D461646894601280DD04FF0010B52
:1018900084F850B0FFF784FB804694F85100BA46B4
:1018A000012804D0022793E00220BDE8F88FB9F1A7
:1018B000000F73D0002E71D0032084F85100C4F8BB
:1018C00054A0C4F83090A686E686C4F838A0A4F8E0
:1018D0003CA0A4F83EA0C4F844A0C4F840A0A0686E
:1018E000B0F5004F09D12068016821F04001016086
:1018F0002068016841F48041016020680168490660
:1019000003D4016841F040010160E068B0F5006F68
:10191000606803D030B3012E24D041E008B1012E1D
:101920001CD1206B21680088C86006E020688168AF
:10193000890709D5216B0988C160206B801C206351
:10194000E08E401EE08609E0FFF72AFBA0EB0800CE
:10195000A84202D3681C01D031E07DB3E08E00289C
:10196000E4D120E0206B21680078087306E020684D
:101970008168890709D5216B09780173206B401CA8
:101980002063E08E401EE0860AE0FFF709FBA0EB33
:101990000800A84203D3681C02D010E017E06DB124
:1019A000E08E0028E3D142462946204601F076FC2D
:1019B00008B120206065A06818B106E0FFE70327A2
:1019C00006E02068C16880680090606D00B1012762
:1019D00084F851B084F850A0384666E72DE9F84FF6
:1019E000044690F8500000270A9E1D4692468B46FA
:1019F0004FF0010901280ED0012084F85000FFF7B4
:101A0000CFFA804694F85100616801280CD0B1F5F6
:101A1000827F07D102E00220BDE8F88FA16809B9F2
:101A2000042801D00227C2E0BBF1000F27D0BAF191
:101A3000000F24D01DB394F85100042802D00520D3
:101A400084F8510000206065C4F838A0E587A587B8
:101A5000C4F830B0E586A58620646064206801681B
:101A6000490603D4016841F040010160E068B0F527
:101A7000006F606805D0E8B3012D46D07FE00127F4
:101A800095E008B1012D39D1206B21680088C8602C
:101A9000206B801C2063E08E401EE0862EE02068D4
:101AA000816889070FD5E18E69B1B9F1010F0AD1BB
:101AB000216B0988C160206B801C2063E08E401E72
:101AC000E0864FF0000920688168C9070CD0E18FDB
:101AD00051B1C068A16B0880A06B801CA063E08F2F
:101AE000401EE0874FF00109FFF75AFAA0EB08000B
:101AF000B04200E009E001D3701C50D1E08E002814
:101B0000CDD1E08F0028CAD13FE0206B216800785A
:101B10000873206B401C2063E08E401EE0862EE0A0
:101B20002068816889070FD5E18E69B1B9F1010F8D
:101B30000AD1216B09780173206B401C2063E08E71
:101B4000401EE0864FF0000920688168C9070CD06C
:101B5000E18F51B1C068A16B0870A06B401CA063FD
:101B6000E08F401EE0874FF00109FFF719FAA0EB64
:101B70000800B04202D3701C01D010E07EB1E08EAC
:101B80000028CDD1E08F0028CAD1424631462046F8
:101B900001F084FB28B101272020606507E00327BE
:101BA00005E0A06818B92068C1688068009001202D
:101BB00084F85100002084F8500038462CE710B516
:101BC000401EB0F1807F01D3012010BD4FF0E02412
:101BD00060610F21601701F070FE0020A0610720F6
:101BE0002061002010BD7047704710B590F83C2070
:101BF000012A22D0012280F83C20CA688C6822F495
:101C0000407222434C6822F4806222430C6822F422
:101C1000006222430C6922F4805222434C6922F470
:101C200000522243C969002322F480420A4301681A
:101C30004A6480F83C30002010BD022010BD000036
:101C400070B590F83C20012A26D0012480F83C4051
:101C5000022280F83D2003685A689D6822F07006D1
:101C60000A6832435A600D4B02689A4208D0B2F1BA
:101C7000804F05D00A4B9A4202D00A4B9A4204D1B7
:101C8000496825F080031943916080F83D400021A8
:101C900080F83C10084670BD022070BD002C014049
:101CA000000400400008004010B5040003D094F880
:101CB0003D0010B107E0012010BD002084F83C0079
:101CC000204600F01FF8022084F83D00211D206806
:101CD00001F088FB012084F8460084F83E0084F877
:101CE0003F0084F8400084F8410084F8420084F802
:101CF000430084F8440084F8450084F83D00002047
:101D000010BD000038B5054600680E4CB0F1804F9C
:101D10000FD1E06940F00100E061E069002200F0CD
:101D20000100009011461C20FFF7AAF91C20FFF7C4
:101D30009AF905492868884203D1A06920F4006017
:101D4000A06138BD00100240002C014090F83D1009
:101D5000012901D001207047022180F83D10006860
:101D60000B49884208D0B0F1804F05D0094988421C
:101D700002D00949884204D1816801F0070106298F
:101D800003D0016841F001010160002070470000AC
:101D9000002C0140000400400008004090F83D1075
:101DA000012901D001207047022180F83D1001680F
:101DB000CA6842F00102CA6000680B49884208D034
:101DC000B0F1804F05D00949884202D008498842C5
:101DD00004D1816801F00701062903D0016841F0B0
:101DE0000101016000207047002C01400004004008
:101DF0000008004070B5044690F83C00012817D058
:101E0000012584F83C50022084F83D002068826857
:101E100022F0770222F47F4282600868502830D096
:101E20000DDC20284DD005DC98B310283BD148E0CC
:101E3000022070BD302844D0402834D139E06028D9
:101E400028D0702806D0B0F5805F2CD0B0F5005FA8
:101E500029D10AE0CB68D1E90121206801F005FB16
:101E60002068816841F0770109E0CB68D1E9012160
:101E7000206801F0FAFA2068816841F480418160AD
:101E800011E0CA684968206801F0A4FB502120686D
:101E900007E016E0CA684968206801F0ACFB6021E1
:101EA000206801F0ECFA84F83D50002084F83C00F2
:101EB00070BDCA684968206801F08CFB4021206829
:101EC000EFE7226801461046EBE7704770B504461D
:101ED000006801694FF00005C943890715D4C1683E
:101EE000C943890711D4E91E0161012020772068C8
:101EF00080698007204602D0FFF7E7FF04E000F08A
:101F0000CDF8204600F05CF9257720680169C943C7
:101F1000490717D4C168C943490713D46FF00401B6
:101F20000161022020772068806910F4407F2046FC
:101F300002D0FFF7CAFF04E000F0B0F8204600F03E
:101F40003FF9257720680169C943090716D4C1689C
:101F5000C943090712D46FF00801016104202077FA
:101F60002068C0698007204602D0FFF7AEFF04E07A
:101F700000F094F8204600F023F9257720680169E5
:101F8000C943C90617D4C168C943C90613D46FF041
:101F900010010161082020772068C06910F4407F9B
:101FA000204602D0FFF791FF04E000F077F82046CA
:101FB00000F006F9257720680169C943C90708D1EF
:101FC000C168C943C90704D1891E0161204600F0D8
:101FD00047F920680169C943090609D4C168C943A2
:101FE000090605D46FF0800101612046FFF7FBFD73
:101FF00020680169C943490609D4C168C943490633
:1020000005D46FF040010161204600F043F92068DB
:102010000169C94389060BD4C168C943890607D43D
:102020006FF0200101612046BDE87040FFF7DCBD84
:1020300070BD000010B586B00021009101910291A1
:102040000391134C0368134902221348A3420AD197
:102050008B6943F004038B61896901F004010491E9
:102060004FF440710BE0B3F1804F0ED18B6943F018
:1020700004038B61896901F0040104910C21CDE90D
:10208000001269460392FEF789FE06B010BD0000FB
:10209000002C01400010024000080140704770B55C
:1020A000044690F83C000D4601280AD0012084F82F
:1020B0003C0042B1042A18D0082A2AD00C2A4DD15B
:1020C00039E0022070BD206801F0E2F920688169E2
:1020D00041F0080181612068816921F0040181617A
:1020E000206881692A69114311E0206801F0F8F93C
:1020F0002068816941F4006181612068816921F46F
:1021000080618161206881692A6941EA02218161D7
:1021100024E0206801F010FA2068C16941F008014C
:10212000C1612068C16921F00401C1612068C169F1
:102130002A69114311E0206801F02AFA2068C16978
:1021400041F40061C1612068C16921F48061C1610D
:102150002068C1692A6941EA0221C161002084F82E
:102160003C0070BD10B5040003D094F83D0010B1E0
:1021700007E0012010BD002084F83C00204600F05C
:102180001EF8022084F83D00211D206801F02AF984
:10219000012084F8460084F83E0084F83F0084F86B
:1021A000400084F8410084F8420084F8430084F839
:1021B000440084F8450084F83D00002010BD7047BD
:1021C0007047000010B50446022249B104290ED020
:1021D000082913D094F84100012816D0012010BD21
:1021E00094F83E000128F9D184F83E200FE094F8DD
:1021F0003F000128F2D184F83F2008E094F8400025
:102200000128EBD184F8402001E084F8412001222C
:10221000206801F01DF90F492068884203D1426C03
:1022200042F4004242642068884208D0B0F1804FF6
:1022300005D00949884202D00849884204D1816802
:1022400001F00701062903D0016841F00101016096
:10225000002010BD002C0140000400400008004098
:102260000068B0F1804F12D109480168491C016033
:102270004168491C41608168491C8160C168491CF2
:10228000C1600169491C01614169491C4161704794
:102290008800002070477047704710F83D1F407855
:1022A00008437047F8B5026804461068D16853695E
:1022B00010F00F0F4FF0000553D003F0010601F4AA
:1022C000907737435FD0C20705D0CA0503D5226C8B
:1022D00042F001022264420705D5DA0703D0226CDE
:1022E00042F002022264820705D5DA0703D0226C8D
:1022F00042F004022264020707D501F020023243B3
:1023000003D0226C42F008022264226C002A34D0EE
:10231000800604D5880602D5204601F09EF9206883
:102320004069216CC0F38010090700D430B3204607
:1023300001F07BF92068416949061BD5416921F00C
:1023400040014161A06BA8B158494163A06BFEF701
:10235000C7FC002811D0A06B416B01B0BDE8F04074
:10236000084783060FD58B060DD52046BDE8F840FB
:1023700001F073B92046FFF78FFFF8BD2046FFF745
:102380008BFF2564F8BD266B2023012E52D1C60693
:1023900050D5CE064ED51068506800905069400662
:1023A0002AD5A16B086840680004000CEAD0A68D0D
:1023B0008642E7D9E0858869202818D0D06820F4C3
:1023C0008070D0602068416921F00101416120687E
:1023D000416921F04001416184F83E302563206865
:1023E000C16821F01001C160A06BFEF755FCA08D03
:1023F000E18D401A81B219E0A08DE18D401A81B2C1
:10240000E08D0028BED00029BCD0D06820F49070A8
:10241000D0602068426922F00102426184F83E30B7
:1024200025632068C26822F01002C2602046FFF7D0
:1024300032FFF8BD05062BD50D0629D594F83D00D1
:102440002128F6D1A068B0F5805F01D12069B0B134
:10245000206A411C2162216800784860E08C401E9F
:102460000004000CE084E4D12068C16821F0800100
:10247000C1602068C16841F04001C160F8BD206AB8
:102480000088C0F308005060206A801C2062E5E7E5
:102490004006F3D54806F1D5D168204621F0400129
:1024A000D16084F83D3000F02CF9F8BD1B360008EF
:1024B00070B5040004D094F83D00002510B106E08A
:1024C000012070BD84F83C50204600F023F8242001
:1024D00084F83D002068C16821F40051C1602046A5
:1024E00001F016F92068016921F49041016120682A
:1024F000416921F02A0141612068C16841F400511D
:10250000C1602564202084F83D0084F83E0000204E
:1025100070BD000030B585B0002400940194029491
:10252000039400681B49884231D11B48816941F4FA
:1025300080418161816901F480410491816941F0A8
:10254000040181618069154D00F0040004904FF48E
:1025500000700090022001900320039069462846F5
:10256000FEF71CFC2815CDE90004694628460294B4
:10257000FEF714FC002211462520FEF781FD2520E0
:10258000FEF771FD01220649064800F00DF805B07E
:1025900030BD00000038014000100240000801403A
:1025A000020000207001002090F83E30202B0ED158
:1025B00059B152B190F83C30012B08D0012380F87A
:1025C0003C300023036301F0FFB801207047022074
:1025D0007047000070B5194C00254FF6FF73207846
:1025E000FF2806D325700A2215A1184800F030F8FC
:1025F0001CE01249491C0A781449C8390A54401C85
:10260000C2B28818227010F8011C0A290ED110F8E5
:10261000020C0D280AD10D490C48C83900F018F8F1
:102620000A48FFF73AFE2128FAD02570BDE870402D
:1026300002490122491C0548FFF7B6BF01000020EE
:10264000CAFDBEDDD2E7B3F6000000007001002035
:102650002DE9F843044690F83D001F4616460D4606
:1026600020284CD1C5B1BEB194F83C00012846D019
:10267000012084F83C004FF00008C4F8408021207D
:1026800084F83D00FEF78CFCA6848146E684A068B1
:10269000B0F5805F03D004E00120BDE8F883206935
:1026A00028B12E465FF0000584F83C800EE000263D
:1026B000FAE78021204601F0A2F8A0B9AEB116F8E1
:1026C000010B21684860E08C401EE084E08C4B46A2
:1026D0004FF0000200970028EBD14FF04001204658
:1026E00001F08DF830B10320D7E735F8020BC0F3C5
:1026F0000800E6E7202084F83D000020CDE7022016
:10270000CBE77047FEE700002DE9F0411D46144677
:102710000F46064600F02CF97006000E00F0FAF89D
:1027200000F072F920B100F04BF90120BDE8F08112
:10273000384600F0EFF800F067F900F019F90120D1
:1027400000EB4600C0B200F0E5F800F05DF909E0EA
:10275000012C0DD05FF0010000F0ACF8641E05F80C
:10276000010BE4B2002CF3D100F02AF90020DDE7E0
:102770000020F1E72DE9F0411E4615460F460446BC
:1027800000F0F6F86006000E00F0C4F800F03CF926
:1027900060B9384600F0BEF800F036F900240CE0CD
:1027A000305D00F0B7F800F02FF920B100F008F923
:1027B0000120BDE8F081641CE4B2AC42F0D300F02B
:1027C000FFF80020F5E77CB514460D4606466B463B
:1027D00006223B21682000F0BBF900280BD1BDF890
:1027E000001049BA3180BDF8021049BA2980BDF8FD
:1027F000041049BA21807CBD7CB514460D460646BE
:102800006B4606224321682000F0A2F900280BD174
:10281000BDF8001049BA3180BDF8021049BA2980CC
:10282000BDF8041049BA21807CBD000010B50F4CE2
:10283000002240212046FEF7AEFB00F0F1FC002212
:1028400080212046FEF7A7FB022002F01FF901229B
:1028500040212046FEF79FFB022002F017F9204698
:102860000022BDE810404021FEF795BB000C01405E
:1028700010B50F4C002240212046FEF78CFB00F0E3
:10288000CFFC012280212046FEF785FB022002F0CA
:10289000FDF8012240212046FEF77DFB022002F0D8
:1028A000F5F820460022BDE810404021FEF773BB3A
:1028B000000C01402DE9F0410746002400F0A0FC87
:1028C000134E0025002240213046FEF764FB022013
:1028D00002F0DCF8012240213046FEF75CFB600686
:1028E000040E80213046FEF749FB08B1641CE4B2B7
:1028F000022002F0CBF86D1CEDB2082DE2D327B117
:10290000FFF794FF2046BDE8F081FFF7B1FFF9E73C
:10291000000C014070B5054600F082FC134E002209
:1029200040213046FEF737FB0024280601D501225E
:1029300000E0002280213046FEF72DFB6806050EE0
:10294000012240213046FEF726FB022002F09EF8CD
:10295000002240213046FEF71EFB022002F096F8CE
:10296000641CE4B2082CE0D370BD0000000C0140F0
:1029700010B500F055FC00F033FC104C0122802112
:102980002046FEF708FB012240212046FEF703FB0C
:10299000022002F07BF8002280212046FEF7FBFA9D
:1029A000022002F073F8002240212046FEF7F3FADD
:1029B000BDE81040022002F069B80000000C0140A0
:1029C00010B500F02DFC00F00BFC0E4C0022402155
:1029D0002046FEF7E0FA002280212046FEF7DBFACF
:1029E000022002F053F8012240212046FEF7D3FADC
:1029F000012280212046FEF7CEFABDE810400220D9
:102A000002F044B8000C014070B5002400F0F8FB5F
:102A1000124D012280212846FEF7BDFA022002F065
:102A200035F8012240212846FEF7B5FA022002F0CF
:102A30002DF880212846FEF7A1FA012806D00022B1
:102A400040212846FEF7A7FA002070BD641CE4B2BE
:102A5000FA2CFBD9FFF7B4FF012070BD000C014038
:102A600010B500F0DDFB00F0BBFB80216B2000F017
:102A7000DEF86420FEF780F900216B2000F0D7F823
:102A8000032000F0A0F8002000F098F8322000F0B9
:102A9000B7F80021382000F0CAF800216A2000F0C1
:102AA000C6F80021232000F0C2F88021372000F072
:102AB000BEF8752000F02EF8044601460BA000F089
:102AC000D9FE682C01D0012010BD01216B2000F03F
:102AD000AEF800216C2000F0AAF8C82000F090F8B1
:102AE00006A000F0C7FE002010BD00006D7075202C
:102AF00069642069732025752E2E2E00736574205D
:102B00007261746520666F72206D70752069732024
:102B10003230300010B50446FFF72AFFD020FFF70F
:102B2000F9FEFFF771FF2046FFF7F4FEFFF76CFF99
:102B3000FFF71EFFD120FFF7EDFEFFF765FF002036
:102B4000FFF7B8FE0446FFF73BFF204610BD00002C
:102B50002DE9F0411D4614460F460646FFF708FFD3
:102B60007006000EFFF7D6FEFFF74EFF20B1FFF70D
:102B700027FF0120BDE8F0813846FFF7CBFEFFF7C5
:102B800043FFFFF7F5FE012000EB4600C0B2FFF760
:102B9000C1FEFFF739FF09E0012C0DD05FF0010005
:102BA000FFF788FE641E05F8010BE4B2002CF3D198
:102BB000FFF706FF0020DDE70020F1E7C006010E69
:102BC0001C2000F034B8C006010E1B2000F02FB806
:102BD000BC2801D3012110E0622801D302210CE0BE
:102BE0002A2801D3032108E0142801D3042104E09A
:102BF0000A2801D3052100E006211A2000F017B8A9
:102C000010B504464FF47A70844201D9044602E0BC
:102C1000042C00D20424B0FBF4F0401EC1B21920F1
:102C200000F005F86008BDE81040FFF7D1BF70B5AF
:102C30000C460546FFF79CFED020FFF76BFEFFF722
:102C4000E3FE50B92846FFF765FEFFF7DDFE20469C
:102C5000FFF760FEFFF7D8FE18B1FFF7B1FE0120C5
:102C600070BDFFF7ADFE002070BD00002DE9F04300
:102C7000344885B0816941F008018161816901F0C2
:102C800008010491816941F010018161816901F0BD
:102C900010010491816941F020018161816901F095
:102CA00020010491816941F0040181618069DFF8AC
:102CB000988000F004000122049011464046FEF77F
:102CC0006AF90122DFF88490D70239464846FEF7B8
:102CD00062F90124032500260094694640460194C8
:102CE000CDE90245FEF75AF8CDE900746946484639
:102CF000CDE90245FEF752F8012210214046FEF7C9
:102D00004AF9012211464846FEF745F9102003957D
:102D10008DE8510069464046FEF740F8039500945F
:102D2000CDE9014669464846FEF738F80220CDE96C
:102D30000006694602944846FEF730F805B0BDE843
:102D4000F08300000010024000080140000C014028
:102D5000124810B5104901604FF4827141600021A2
:102D60008160C1604FF400720161C0E90512282240
:102D7000C0E90721416281620A21C162FEF734FC89
:102D800020B107A000F076FDFDF784FFBDE81040FC
:102D900008A000F06FBD000000300140B401002029
:102DA00073706920696E6974206572726F72200D8C
:102DB0000A00000073706920696E6974207375637E
:102DC00063657373200D0A0010B596B000240F944C
:102DD00010941194129413941C2168461494FDF7D6
:102DE000E9F9202107A8FDF7E5F9354833490160E5
:102DF0004721C0E9011440F2E731C0E90314802102
:102E0000C0E90541FEF750FF08B1FDF743FF4FF45D
:102E100080500F900FA92A48FEF7ECFF08B1FDF78C
:102E200039FF2748FFF79EF908B1FDF733FF1394E8
:102E300013A923481494FEF703FF08B1FDF72AFFF6
:102E4000602000904FF44870CDE90104039404948D
:102E50000594002269461A480694FFF720F908B144
:102E6000FDF718FF042269461548FFF718F908B165
:102E7000FDF710FF0794089409944FF400500A944A
:102E8000CDE90B4007A90E480E94FEF7AEFE08B13F
:102E9000FDF700FF0A48FFF7CDF809484830FEF774
:102EA00055FF074800214830FFF78CF904480421FA
:102EB0004830FFF787F916B010BD0000002C014024
:102EC000041C002010B58EB00024079408940994C7
:102ED0000A940B941C2168460C94FDF76BF9264864
:102EE0004FF0804101604721C0E9011440F2E73111
:102EF000C0E9031480218161FEF7D6FE08B1FDF719
:102F0000C9FE4FF48050079007A91B48FEF772FFD7
:102F100008B1FDF7BFFE0B940BA917480C94FEF700
:102F20008FFE08B1FDF7B6FE602000904FF44870A8
:102F3000CDE90104082269460F480494FFF7AFF871
:102F400008B1FDF7A7FE0C2269460B48FFF7A7F86A
:102F500008B1FDF79FFE0848FFF76CF80648FEF73A
:102F60001DFF08210448FFF72DF90C210248FFF747
:102F700029F90EB010BD00004C1C00200E4810B501
:102F80000C4901604FF4E1314160002181600C2265
:102F9000C160C0E904128161C161FFF789FA08B11B
:102FA000FDF778FEBDE81040012204490248FFF712
:102FB000FBBA000000380140700100200200002030
:102FC000FEE7FEE72DE9F743DFF8589016468846FE
:102FD000002210214846FDF7DEFF4FF0FF373B4649
:102FE000012269461048FEF746FC054600240EE023
:102FF0003B46012241460C48FEF790FB050003D0FA
:103000000AA000F037FC04E008F10108641CB44297
:10301000EEDB012210214846FDF7BDFF2846BDE842
:10302000FE83000000080140B401002048414C5FCD
:103030004F4B206E6F74207375636365737320004C
:1030400070B50B4D0446002201212846FDF7A3FF71
:10305000202221466120FFF7B5FFFF21E22000F08A
:1030600031F82846BDE8704001221146FDF793BFB4
:10307000000C014031B5114D84B0002210212846CA
:10308000FDF789FFFF208DF804004FF0FF34234641
:10309000012204A90A48FEF7EEFB012302AA01A9B6
:1030A00007480094FEF79AFC012210212846FDF7FC
:1030B00072FF9DF8080005B030BD00000008014017
:1030C000B401002073B50D4C002210212046FDF7FD
:1030D00062FF4FF0FF352B46012269460848FEF794
:1030E000CAFB2B46012201A90548FEF7C4FB0122B9
:1030F00010212046FDF74FFF30467CBD00080140FF
:10310000B401002010B5164C0E284FF000024FF00D
:103110000101204613D0FDF73EFF0F212020FFF7CD
:10312000D1FF7E212720FFF7CDFF01221146204647
:10313000FDF731FFBDE81040C82001F0A7BCFDF746
:103140002AFF0E212020FFF7BDFF7E212720FFF759
:10315000B9FF20460122BDE810401146FDF71BBF14
:10316000000C01407047000010B51B481B4C017853
:1031700004F8021B417804F8011C81782170C178A1
:1031800061700179A1704079E0700621124801F068
:1031900001FC60600A21104801F0FCFBA0600E21D8
:1031A0000D4801F0F7FBE06012210B4801F0F2FB43
:1031B00020611621084801F0EDFB60611A210648E4
:1031C00001F0E8FBA0611E21034801F0E3FBFDF7DD
:1031D000A2FA207710BD00002C020020AC020020D3
:1031E0001FB5402000900120019002900220039022
:1031F00069460248FDF7D2FD1FBD0000000C0140EA
:103200001FB5802000900020019001200290022034
:10321000039069460148FDF7C1FD1FBD000C014048
:103220001FB58020009001200190029002200390A1
:1032300069460248FDF7B2FD1FBD0000000C0140C9
:10324000F8B5044640684FF48273984217D1A068DD
:103250004FF48065B0F5004F01D0A8420FD120682F
:10326000066826F0400606606068984207D1A068AC
:10327000A84204D100920B460022012103E00092F3
:103280000B4600228021204600F018F8002804D0C8
:10329000606D40F0200060650320F8BD38B50B4636
:1032A000009204460022802100F008F8002804D093
:1032B000606D40F020006065032038BD2DE9F843C3
:1032C0001E46914688460446089DFDF769FE401B50
:1032D000351AFDF765FE074625480068C0F3CB3078
:1032E000684338E0701C37D0FDF75AFEC01BA84277
:1032F00003D215B1009860B32CE02068416821F03A
:10330000E00141606068B0F5827F0BD1A068B0F544
:10331000004F02D0B0F5806F04D12068016821F021
:1033200040010160A06AB0F5005F09D12068016822
:1033300021F4005101602068016841F400510160EE
:10334000012084F85100002084F850000320BDE8DB
:10335000F8830025401E00902068816838EA01004B
:1033600004D000214945BDD10020F0E70121F9E753
:10337000140000207047FDF719BE30B58FB028212A
:103380006846FCF717FF14210AA8FCF713FF012178
:103390000804CDE900100024029402250491CDE92F
:1033A00007504FF4E01009906846FDF78DFF00B11B
:1033B00072B60F20CDE90A054FF48060CDE90C40CC
:1033C00002210AA80E94FDF78DFE002800D072B6E7
:1033D0000FB030BD704700000148FEF777BD000018
:1033E0004C1C0020F0B50268164B174C174D4FF0DF
:1033F0008047984205D0B84203D0A04201D0A842ED
:1034000003D122F070064A683243984205D0B84290
:1034100003D0A04201D0A84203D122F44074CA686C
:1034200022434C6922F08002224302608A68C26211
:103430000A688262984201D10969016301214161F0
:10344000F0BD0000002C01400004004000080040D6
:1034500010B501F01F030121046A99408C430462F6
:10346000016A9A401143016210BD10B5846842EAB6
:10347000032224F47F440A432243826010BD826801
:1034800022F070020A4342F0070181607047000099
:1034900030B5026A22F001020262026A436884695E
:1034A00024F073050C682C4322F002058A682A4335
:1034B0000A4DA8420BD122F00805CA6823F44073D4
:1034C0002A434D6922F004021D438B692B4343605C
:1034D000846149684163026230BD0000002C0140F4
:1034E00030B5026A22F010020262026A43688469FF
:1034F0000D6824F4E64444EA05248D6822F0200295
:1035000042EA05120B4DA8420ED1CD6822F080028E
:1035100042EA05124D6923F4406343EA85038D694D
:1035200022F0400243EA8503436084614968816375
:10353000026230BD002C014030B5026A22F4807274
:103540000262036A4268C46923F4007324F07305BD
:103550000C682C438D6843EA05230C4DA8420ED11C
:10356000CD6823F4006343EA05234D6922F44052F9
:1035700042EA05128D6923F4806342EA0512426033
:10358000C4614968C163036230BD0000002C014082
:1035900030B5026A22F480520262046A4268C3694A
:1035A0000D6823F4E64343EA05238D6824F40054B0
:1035B00044EA0534064DA84204D14D6922F4804204
:1035C00042EA85124260C36149680164046230BD09
:1035D000002C014010B5036A046A24F0010404625F
:1035E000846924F0F00444EA021423F00A020A4336
:1035F0008461026210BD10B5036A23F010030362F8
:103600008369046A23F4704343EA023224F0A0037E
:1036100043EA01118261016210BD10B5406A0021C8
:10362000C185C184FEF738FE10BD0168CA6822F466
:103630009072CA6001684A6922F001024A61016B16
:10364000012904D10168CA6822F01002CA60202151
:1036500080F83E1000210163704708B590F83E10D5
:10366000222901D0022008BD82684FF480539A427B
:1036700001D1016921B1816A9A421BD04AB10AE0A5
:103680000268816A5268C2F308020A80816A891C52
:1036900008E0026972B10268526802F07F020A70A3
:1036A000816A491C8162C18D491E0904090CC185CA
:1036B00003D019E002685268F1E70168CA6822F095
:1036C0002002CA600168CA6822F48072CA60016878
:1036D0004A6922F001024A61202180F83E10016B04
:1036E000012903D0FEF776FF002008BD0021016309
:1036F0000168CA6822F01002CA6001680A68D2062E
:1037000002D50A6849680091818DFEF7C4FDEBE798
:1037100070B5044600680169E26821F44051114324
:1037200001612169A0680843616908432168CA688A
:1037300041F20C639A430243CA6020684169A2695E
:1037400021F44071114341611E492068884202D131
:10375000FDF774FD01E0FDF761FD00EBC00101EB39
:103760000012606864218000B2FBF0F3B3FBF1F358
:103770006FF018067343B2FBF0F5B2FBF0F605EB01
:103780008305322303EB0515B5FBF1F5B6FBF1F626
:1037900005F0F00505EB0615B2FBF0F6B2FBF0F014
:1037A000B0FBF1F06FF01802504306EB800003EB22
:1037B0000010B0FBF1F0216800F00F002844886091
:1037C00070BD00000038014081628285C285002101
:1037D0000164222280F83E2080F83C100168CA680B
:1037E00042F48072CA6001684A6942F001024A618B
:1037F0000068C16841F02001C160002070472DE9D8
:10380000F041984617460E460446069D1DE0681C8A
:103810001BD02DB1FDF7C4FBA0EB0800A84214D9C2
:103820002068C16821F4D071C1602068416921F02D
:1038300001014161202084F83D0084F83E00002011
:1038400084F83C000320BDE8F0812068006836EA77
:10385000000004D00020B842D9D00020F3E70120B6
:10386000F9E700000148FEF71DBD000070010020CF
:10387000FEE700000FB4054B10B503A9044A0298F7
:1038800000F01AF910BC5DF814FB0000A54A00080E
:10389000A00000204100080218BF04200A0E18BF33
:1038A00040F001004FF07F4232EA010108BF40F0D2
:1038B0000200012808BF052070470907090E0028EB
:1038C00004DB00F1E02080F80014704700F00F00E6
:1038D00000F1E02080F8141D704700214FF07E5069
:1038E000FCF7FDBC0121FCF738BDFCF76EBC0021E4
:1038F0000846FCF7F4BC61214FF0E040FCF72DBD19
:103900006FF05E010807FCF728BD02E008C8121F2F
:1039100008C1002AFAD170477047002001E001C1B8
:10392000121F002AFBD17047014908607047000050
:10393000A40000202DE9FF5F82B00021DDE9043002
:10394000020DDDF840B0034318D044F61050A2F247
:10395000FF3242431514119801281FD0A5EB0B002C
:10396000401C5FEA000A4FF000064E4FDFF8389126
:10397000B046504615D5CAF1000413E01198012451
:103980004AA3012801D16FEA0B010298119AC0E9FC
:103990000031C0E9024206B0BDE8F09FCBF1000063
:1039A000DFE704460021404A491842EB0450CDE9C4
:1039B000001012E0E00707D032463B464046494639
:1039C000FCF77EFD8046894632463B461046194646
:1039D000FCF776FD06460F466410002CEAD1DDE9BF
:1039E0000401DDE90023BAF1000F06DAFCF768FDF7
:1039F00042464B46FCF764FD05E0FCF7D3FD42462A
:103A00004B46FCF7CFFD04460E460022284BFDF73F
:103A100043F803D84FF0FF30014607E00022254B62
:103A200020463146FCF7A5FCFCF7F7FF102409E01F
:103A3000002C0ADB0A220023FCF7DAFE039B30325B
:103A40001A55641E50EA0102F2D1641C039AC4F1B3
:103A500011031444119A012A03D0012208430DD105
:103A60000AE0084304D000204FF0110B119072E7D8
:103A7000A3EB0B056D1E0DE05B4504DD4FF000026E
:103A800005F1010504E003DA4FF00002A5F101059C
:103A9000002AECD002981199C0E90231C0E9004532
:103AA00079E70000000014400000F03F3000000003
:103AB0000000F0430000E03F2DE9FF4F95B09B462A
:103AC0008946064600250FE2252877D1002427469F
:103AD000F84A0121059400E0044316F8013F203B19
:103AE00001FA03F01042F7D130782A2811D06FF094
:103AF0002F033078A0F13002092A16D8059A44F035
:103B0000020402EB820203EB42021044761C059091
:103B1000EFE759F8042B0592002A03DA504244F4E7
:103B20000054059044F00204761C30782E2816D1FB
:103B300016F8010F44F004042A280DD06FF02F026C
:103B40003078A0F13003092B09D807EB870302EB8B
:103B50004303C718761CF3E759F8047B761C3078CA
:103B60006C280FD006DC4C2817D068280DD06A28A6
:103B700014D104E0742810D07A280FD10DE044F459
:103B800000140AE044F4801401E044F44014727814
:103B9000824202D104F58014761C761C30786628A7
:103BA0000BD013DC582877D009DC002875D04528C5
:103BB000F6D04628F4D047281AD19DE118E06328B2
:103BC00035D0642879D0652812D195E1702873D05A
:103BD00008DC6728F1D069286FD06E280DD06F28D7
:103BE00006D1B5E073282CD0752875D0782874D00C
:103BF0005A46179990476D1C75E1C4F3025002288C
:103C000009D003280DD0D9F8001004280DD00D607C
:103C100009F1040967E1D9F80010EA17C1E9005277
:103C2000F6E7D9F800100D80F2E70D70F0E719F80B
:103C3000041B8DF8001000208DF80100EA460120D9
:103C400003E059F804AB4FF0FF3061074FF000017B
:103C500002D40DE008F101018846B9420FDA80452F
:103C6000F8DB1AF808100029F4D108E008F1010186
:103C700088468142FADB1AF808100029F6D1059827
:103C80005B46A0EB080721463846179A00F094FAE5
:103C9000284400EB080507E04DE029E10DE01AF8A3
:103CA000010B5A4617999047B8F10108F7D25B46C5
:103CB00021463846179A13E142E00A220092C4F3E3
:103CC00002524FF0000A022A08D059F804CB032A06
:103CD0004FEAEC710AD00DE029E02AE009F1070172
:103CE00021F00702F2E802C1914609E00FFA8CFCCC
:103CF0004FEAEC71042A03D14FFA8CFC4FEAEC71C5
:103D0000002907DA0A460021DCF1000C61EB020110
:103D10002D2202E0220504D52B228DF80420012259
:103D200003E0E20701D02022F7E7904659E00A219C
:103D300002E010220DE010214FF0000A00910BE08C
:103D400010224FF0000A44F004040827009203E018
:103D500008224FF0000A0092C4F30252022A05D052
:103D600059F804CB0021032A08D009E009F1070122
:103D700021F00702F2E802C1914605E01FFA8CFC2F
:103D8000042A01D10CF0FF0C4FF00008220728D5BF
:103D9000702806D0009B83F0100353EA0A0305D075
:103DA0000EE040228DF80420012208E05CEA0102C6
:103DB00006D030228DF804208DF8050002229046AE
:103DC000009B83F0080353EA0A030AD15CEA01026C
:103DD00001D1620705D530228DF804204FF001088B
:103DE0007F1E582804D034A003900EA802900DE046
:103DF00036A0F9E753466046009AFCF7F9FC844682
:103E00000398825C0298401E029002705CEA0100F6
:103E1000F0D1029806A9081A00F1200A600702D51D
:103E200024F4803400E00127574502DDA7EB0A00A7
:103E300000E0002000EB0A01009005984144401A80
:103E40000590E00306D45B462146179A059800F0DA
:103E5000B3F90544002706E001A85A46C05D17994A
:103E600090476D1C7F1C4745F6DBE0030CD55B4695
:103E70002146179A059800F09FF9054404E0302088
:103E80005A46179990476D1C0099481E00900029CA
:103E9000F5DC08E0029802995A460078491C029124
:103EA000179990476D1CBAF10001AAF1010AF1DCE3
:103EB00065E10000092801003031323334353637EE
:103EC0003839616263646566000000003031323366
:103ED0003435363738394142434445460000000006
:103EE00000F058F90544761C307800287FF4ECADDA
:103EF00019B02846BDE8F08F620700D4062709F103
:103F0000070222F0070CFCE80223E14603F0004818
:103F10005FEA080C02D00FF2702C0DE05FEA045C3F
:103F200002D50FF2682C07E05FEAC47C02D00FF2E2
:103F3000602C01E0AFF2700C4FF0FF3823F000432B
:103F4000CDF850C065280CD006DC452809D046289D
:103F50001DD047283DD13DE0662818D067287ED186
:103F600038E00021112F01DB112000E0781CCDE9A1
:103F7000000106A90EA8FFF7DDFCDDE90F010E9A8E
:103F800003910021009207F1010A04914DE04FF0E6
:103F900000400097CDE9011006A90EA8FFF7CAFC62
:103FA000DDE90F0203920E9B11990022DDF80CA0AF
:103FB0000093049211B9791C00EB010AB7EB0A00D7
:103FC00004D4C0F1FF3007F1010A0490AAEB070006
:103FD000019044E0012F00DA01270021112F01DDBB
:103FE000112000E03846CDE9000106A90EA8FFF730
:103FF000A1FCDDE90F010E9A0391002104910092CA
:10400000BA4621070CD40399514500DA8A46BAF121
:10401000010F05DD009AAAF10101515C302908D099
:10402000B84202DA10F1040F06DA0121CDE90110DD
:1040300015E0AAF10101E9E7002805DC0499014433
:104040000491AAEB000102E0411C514500DD8A46C3
:104050000499401A401C01904FF000400290200744
:1040600004D40198504501DBCDF8048000208DF880
:104070004F0002980DF14F07B0F1004F25D02B20D3
:104080000E9002984FF0020800280CDA404202908D
:104090002D200E9007E00A210298FCF793FB3031A7
:1040A000029007F8011DB8F10001A8F10108F2DC47
:1040B00002980028EFD1791E0E980870307800F031
:1040C000200040F0450007F8020D12A8C01B00F1C7
:1040D00007081498007800B1012000EB0A0101984C
:1040E00001EBE07105984144401A401E0590E00341
:1040F00006D45B462146179A059800F05DF8054402
:104100001498007818B15A46179990476D1CE0032F
:1041100024D55B462146179A059800F04DF80544D2
:104120001CE00498002807DBDDE90301884203DD79
:104130000098405C179901E0179930205A46904743
:10414000049805F10105401C04900198401E01905F
:1041500004D12E205A46179990476D1CBAF10001E0
:10416000AAF1010ADDDC05E017F8010B5A461799A0
:1041700090476D1CB8F10001A8F10108F4DC5B4622
:104180002146179A0598ABE62D0000002B00000091
:10419000200000002DE9F041044600251E46174688
:1041A000880404D405E039462020B0476D1C641E05
:1041B000F9D52846BDE8F0812DE9F04104460025F7
:1041C0001E469046C80301D5302700E0202788040A
:1041D00004D505E041463846B0476D1C641EF9D54C
:1041E0002846BDE8F08100002DE9F04104464FF07B
:1041F0000E4000EB4400B0F1506F204655D84FF010
:10420000FC41B1EB440F1CD224F000404FF07E5132
:10421000FCF730F84FF0FF31FCF79FF8054601F04E
:104220009DFD14F0004F1DBF2F4F304E80F0004019
:104230002F4F08BF2F4E4FF04041FCF71EF80446A9
:1042400005E000273E460146FCF717F805462A49D7
:104250002846FCF712F82949FBF7B7FF2946FCF777
:104260000CF82749FBF7B1FF2946FCF706F825496A
:10427000FBF7ABFF2946FCF700F82349FBF7A5FF46
:10428000804629462046FBF7F8FF4146FBF7F5FF3D
:10429000054631462046FBF798FF2946FBF795FF78
:1042A0003946BDE8F041FBF790BF4FF0E441B1EB78
:1042B000440F08D9FFF7EEFA042808BFFFF720FBE8
:1042C0002046BDE8F0814FF07F41B1EB440F03D2AF
:1042D000BDE8F041FFF706BB0120FFF725FBBDE875
:1042E000F041FFF704BB00000000C9BF22AAFDB9DE
:1042F0000000C93F22AAFD3924FE1C3DC78AD83CD4
:104300001E67383D1B93993DAFAA2A3E2DE9F04721
:104310004FF0684202EB40030C460546B3F1654F8F
:104320003CBF02EB4102B2F1654F7CD2C0F3C753F0
:10433000C1F3C7529A1A1B2A06DD10F0004F14BFB2
:1043400076487748BDE8F08712F11A0F17DA11F0B6
:10435000004F06D010F0004F0CBF72487248BDE805
:10436000F08721462846FBF7BAFF0446FFF792FA8A
:10437000042808BFFFF7C4FA2046BDE8F0874200D2
:10438000B2EB410F25D910F0004F19BF674F684EAF
:10439000684F694E224685F0004415460A4680F073
:1043A000004110460A1A5200B2F1807F40D24840C4
:1043B0006249DFF88CA110F0004F18D04FF03F4851
:1043C0003846FBF754FF074651463046FBF74FFF90
:1043D00017E011F0004F04BF00263746E2D010F07E
:1043E000004F19BF574F584E584F594EDAE74FF00C
:1043F0007C583846FBF7E9FE074651463046FBF746
:10440000E4FE064641462846FBF737FF2146FBF708
:10441000DCFE824621464046FBF72FFF2946FBF78C
:1044200029FF514600E037E0FBF759FF044604E05E
:1044300021462846FBF753FF04460146FBF71DFFC4
:1044400080464449FBF719FF4349FBF7BEFE41464E
:10445000FBF713FF4149FBF7B8FE4146FBF70DFFA1
:104460003F49FBF7B2FE4146FBF707FF3D49FBF72B
:10447000ACFE054641462046FBF7FFFE2946FBF70A
:10448000FCFE3146FBF7A1FE2146FBF79EFE3946B6
:10449000BDE8F047FBF799BE4FF07F42B2EB400F0B
:1044A00028BFB2EB410F03D2BDE8F047FFF71DBABA
:1044B00040EA01035B0008BF44F0FF410AD0B2EBC1
:1044C000400F08BFB2EB410F06D125F0804024F029
:1044D000804105460C4629E7B2EB400F12BF5FEA68
:1044E000410245F0FF4004F000413FF41FAF4A0095
:1044F00092EA40033FF51AAF002AACBF4FF09F4647
:104500004FF03E563146FBF7B8FE05463146204691
:10451000FBF7B3FE04462846214607E7DB0FC9BF79
:10452000DB0FC93FDB0F4940DB0F49C00000C9BFAB
:1045300022AAFDB90000C93F22AAFD390060ED3E64
:10454000C30ACE37000049C022AA7DBA0000494004
:1045500022AA7D3A2DAD65BD8FB8D53D0FB511BEF0
:1045600061C84C3EA8AAAABE2DE9F05F494D83461A
:104570004949288B00244018A0FB008244F1FF31F8
:1045800001FB002200FB012C2A8AEB89A8FB02A672
:104590000CFB0262A3FB006704FB007703FB0173C3
:1045A0005F0447EAD63708FB0422760416EB0A03B9
:1045B0005741AA89D60014EB03096A897E41A8FBFA
:1045C00002370CFB02721F0A08FB04222B8947EA00
:1045D0000267A3FB00C804FB008003FB010000038B
:1045E0004FEA0C3140EA1C50791840EB2222091C9A
:1045F000E88842F50042A1FB007302FB003001FB9A
:1046000004004210C31752EA030041D0CBF58010DA
:104610004108C707B7EB090740F6354CA7FB0C0864
:1046200061EB060101FB0C81002607FB0611FBF77D
:1046300079FDEB8A420B42EAC142A3FB027C04FBF8
:1046400002CC4E1303FB06C3A7FB02C803FB028286
:1046500007FB06234FEA5C6242EAC3125E16AB8A8E
:10466000A3FB007C04FB00C403FB0144FB0C80188B
:1046700043EA44337141C01841EBE4414FEA102052
:1046800040EA0160698A4FEA01114018BDE8F09FD5
:104690000020FBE760020020000CFEFF0B4910B574
:1046A0000A88C308A3EB4203C2EB10104C884043B6
:1046B0008A886343000BDB0A504303EB903080B2DF
:1046C000088300EB80008030000A10BD60020020EB
:1046D0002DE9F04116460F46054600F02FF8144C20
:1046E000A068FFF7DBFFFBF7F0FF0022114BFBF7A1
:1046F00059FFFCF737F8E0606068FFF735FFFBF71C
:10470000E4FF00220C4BFBF74DFFFCF72BF8206178
:10471000294604F1100001F0E1F8E06838602069F2
:104720002860284600F01AF93060BDE8F0810000EA
:1047300018000020000059400000D9401CB5104C62
:104740006B460622F721A078FDF7DEFF9DF80000FA
:104750009DF80110000340EA01109DF8021040EAA4
:10476000111060609DF803009DF80410000340EAFA
:1047700001109DF8051040EA1110A0601CBD00005A
:10478000180000203EB53A4D7620A8703220FCF784
:10479000F3FA2B460122D021A878FDF7B5FF29783E
:1047A000582901D001203EBD32A0FFF763F8364BF7
:1047B00018228821A878FDF7A7FF334C33A0218861
:1047C000FFF758F8618835A0FFF754F8A18837A0A3
:1047D000FFF750F8E18839A0FFF74CF821893BA09A
:1047E000FFF748F861893DA0FFF744F8A1893FA091
:1047F000FFF740F8E18941A0FFF73CF8218A43A088
:10480000FFF738F8618A45A0FFF734F8A18A47A07E
:10481000FFF730F8E18A49A0FFF72CF8B6208DF8B1
:1048200000006B460122E021A878FDF7A3FF6B464C
:104830000122E021A878FDF767FF218B43A0FFF755
:1048400019F86420FCF798FAFF208DF8040001ABFA
:104850000122F421A878FDF78DFF0C208DF80800C7
:1048600002AB0122F521A878FDF784FF00203EBDB0
:1048700018000020424D503238302049442049531E
:104880003A20307825580A00600200206469675F8A
:104890005431203D2025640A000000006469675FF0
:1048A0005432203D2025640A000000006469675FDF
:1048B0005433203D2025640A000000006469675FCE
:1048C0005031203D2025640A000000006469675FC4
:1048D0005032203D2025640A000000006469675FB3
:1048E0005033203D2025640A000000006469675FA2
:1048F0005034203D2025640A000000006469675F91
:104900005035203D2025640A000000006469675F7F
:104910005036203D2025640A000000006469675F6E
:104920005037203D2025640A000000006469675F5D
:104930005038203D2025640A000000006469675F4C
:104940005039203D2025640A00000000745F66692C
:104950006E65203D2025640A0000000010B5016846
:10496000B1F5000F0EDB0848FBF7B9FC074900F072
:10497000A5FC4FF07E51FBF77AFCBDE810400449DE
:10498000FBF77BBC002010BDCDEC7D44B1DC423E8A
:10499000002A2D4718B56B4600228C18045D9C54E4
:1049A000521C042AF9D3009818BD00002DE9F047E5
:1049B000294D0746002600BF57F8261055F8260057
:1049C000FBF703FC45F82600761CF6B2234C032EB9
:1049D000F2D3B868E16AFBF7E1FE01D2B868E062A1
:1049E000B868216BFBF7E4FE01D2B86820636088E9
:1049F000401C80B26080B0F5AF7F2BD3002767806A
:104A0000D4E90B10FBF733FC4FF07F51C4E90A01E6
:104A10004FF07C5121631249884213DADFF83C8061
:104A2000DFF84090002608F1340800BF55F8260052
:104A30004946FBF754FC48F82600761CF6B2032ED4
:104A4000F4D327705FF0000045F82070401CC0B21E
:104A50000328F9D3BDE8F0877C0200202C00002059
:104A60008FC2753C0000AF434FF0E02081690648DB
:104A7000006800EB4002C2EBC012C1EBC201B1FB07
:104A8000F0F0FCF78DBA00000400002070B5054678
:104A9000FFF7EAFF4FEA0004FFF7E6FF001BA8421A
:104AA000FAD870BD13B54FF6FF7301226946054869
:104AB000FDF7CEFD0348FDF7F0FB2128FAD0009862
:104AC0001CBD0000700100202DE9FF5F444CE1692E
:104AD0000F463846FBF7D1FB0390216A0091084648
:104AE000FBF7CBFB616A05468B465846FBF7C5FBD7
:104AF0000646A06939460446FBF7BFFB02902046F4
:104B00000099FBF7BAFB814659462046FBF7B5FBF7
:104B1000804638460099FBF7B0FB82465946384636
:104B2000FBF7ABFB019059460098FBF7A6FB8346C9
:104B300001213046FBF711FC07463C46012128467F
:104B4000FBF70BFC4FF07E5605463146FBF792FB18
:104B50002146FBF78CFB234C414620605046FBF777
:104B600086FB0121FBF7F9FB606049460198FBF7E2
:104B70002CFB0121FBF7F1FBA06041465046FBF7FF
:104B800024FB0121FBF7E9FBE06001210398FBF71F
:104B9000E4FB3146FBF76EFB06463946FBF767FB45
:104BA000206158460299FBF762FB0121FBF7D5FB18
:104BB000606149460198FBF75AFB0121FBF7CDFBE9
:104BC000A06158460299FBF700FB0121FBF7C5FBEA
:104BD000E06129463046FBF74AFB2062BDE8FF9FB3
:104BE0002C000020880200202DE9F04F93B0804671
:104BF000DDE91C7589461E4614464FF0FF311F98AB
:104C0000FBF7ABFB009000201090DFF8C4A3CDE9C8
:104C10000A9411901290CDF8248030465146FBF74B
:104C20002CFB064638465146FBF727FB074628462D
:104C30005146FBF722FB054618F0FF4F05D119F04E
:104C4000FF4F02D114F0FF4F7ED021460846FBF7FC
:104C500014FB834649460846FBF70FFB8246414654
:104C60000846FBF70AFB5146FBF7AFFA5946FBF73C
:104C7000ACFA00F0B7F9019040460199FBF7FDFA54
:104C8000834648460199FBF7F8FA82462046019987
:104C9000FBF7F3FACF4C8146216A0491A069059095
:104CA000FBF7EBFA616A80460391E0690290FBF73B
:104CB000E4FA4146FBF7DBFA0121FBF74EFBDFF894
:104CC0001883C8F81800019002990598FBF7D5FAE7
:104CD0000590DDE90310FBF7D0FA0599FBF775FAAB
:104CE0000121FBF73AFBC8F81C000390012104984E
:104CF000FBF733FB0499FBF7C0FA049001210298FB
:104D0000FBF72BFB0299FBF7B8FA4FF07E51FBF74C
:104D1000B1FA0499FBF7ABFAC8F820008046484680
:104D20000399FBF7AAFA049050464146FBF7A5FA0F
:104D30000499FBF79CFA079058464146FBF79DFA09
:104D400080464846019900E059E0FBF796FA414653
:104D5000FBF78DFA029050460199FBF78EFA8046D8
:104D600058460399FBF789FA4146FBF780FA8346D8
:104D7000A06807998246FBF780FA1F99FBF77DFA36
:104D8000E168FBF722FAE060814650460299FBF7A2
:104D900074FA1F99FBF771FA2169FBF716FA80463E
:104DA000206159465046FBF768FA1F99FBF765FAF0
:104DB0006169FBF70AFA82466061606807990446F8
:104DC000FBF75BFA4946FBF700FA3146FBF7FDF9C2
:104DD000064620460299FBF750FA4146FBF7F5F9E3
:104DE0003946FBF7F2F9074659462046FBF745FAE4
:104DF0005146FBF7EAF92946FBF7E7F90546754CFA
:104E00002946A06903908246D4E907800690029063
:104E1000606A05908146FBF730FA0E903946029899
:104E2000FBF72BFA834688F000403146FBF725FA62
:104E30005946FBF71CFA0E99FBF719FA0099FBF794
:104E40001CFA5146FBF7C1F98346A0613946484632
:104E5000FBF713FA089029460298FBF70EFA8246F0
:104E600031460398FBF709FA5146FBF7AEF908996A
:104E7000FBF7FDF90099FBF700FA4146FBF7A5F9AE
:104E80008246E06131464846FBF7F7F90190294632
:104E90004046FBF7F2F9814639460398FBF7EDF9F6
:104EA0004946FBF7E4F90199FBF78FF90099FBF705
:104EB000E4F90699FBF789F98146206231460298A8
:104EC000FBF7DBF9019039464046FBF7D6F9064679
:104ED00029460398FBF7D1F93146FBF776F901999A
:104EE000FBF7C5F90099FBF7C8F90599FBF76DF9D0
:104EF00001466062FBF7C1F9074649460846FBF7E1
:104F0000BCF9054651460846FBF7B7F9064659462F
:104F10000846FBF7B2F93146FBF757F92946FBF78C
:104F200054F93946FBF751F900F05CF805460146A3
:104F3000A069FBF7A2F9A0612946E069FBF79DF99A
:104F4000E0612946206AFBF798F920622946606AE9
:104F5000FBF793F96062FFF7B7FD1F4DA869FFF7F4
:104F600043F91E49FBF789F91E990861D5E9070144
:104F7000FFF7CCF91A4E3146FBF77FF91E994861CD
:104F80002968E868FFF7C2F93146FBF776F91E9900
:104F900088612078002817D1296A0B98FBF76DF9F2
:104FA0000646E9690A98FBF768F90446A969099871
:104FB000FBF763F92146FBF708F93146FBF705F9E2
:104FC000129010A8FFF7F2FC13B0BDE8F08F0000BC
:104FD00035FA8E3C2C00002088020020E12E65C2AC
:104FE000E12E654210B504464FF0FF31FBF7B5F9ED
:104FF0000849A1EB64042146FBF73FF92146FBF782
:105000003CF94FF07F51FBF735F92146BDE81040E0
:10501000FBF733B9DF59375F2DE9F04188468769DF
:10502000044641683846FBF728F96669054630466C
:105030002168FBF722F94146FBF71CF92946FBF7EB
:1050400016F905466FEAD55010F0FF0F00D145461E
:1050500038462169FBF711F980463046E168FBF7D5
:105060000CF907462846A168FBF707F93946FBF714
:10507000ACF84146FBF7A9F8C4E90556BDE8F08154
:1050800090B0FBF79BFFFEF778F9FDF7EFFDFDF71A
:1050900075FF0122654DD40221462846FBF77BFFB0
:1050A0004FF4FA763046FBF767FE00222146284689
:1050B000FBF771FF3046FBF75FFEFDF785FEFDF75E
:1050C00001FF00F061FEFDF743FE02E058A0FEF78D
:1050D000D1FBFDF7C5FC0028F8D159A0FEF7CAFBAB
:1050E000FFF750FB5A48DFF86C914FF00008017849
:1050F00041F00401017000BF4FF47A70FBF73CFEF1
:105100000DA90EA8FBF7F4FC0DA8FFF727FC0A90E9
:10511000FBF715FB06460F460E98FBF710FB0446FF
:105120000D460D98FBF70BFB8DE8F00002460B4691
:1051300049A0FEF79FFB5348016802293AD3C0F803
:10514000008000F063FD504C6069FBF7F8FA83467D
:1051500009912069FBF7F3FA07468A46E068FBF7F6
:10516000EEFA06460591A068FBF7E9FACDE90201DF
:105170006068FBF7E4FA00900D462068FBF7DFFA61
:105180000B4606A90496019581E8800C02463FA0D3
:10519000FEF770FBD9F80000FBF77CFA4349CDE934
:1051A00002102046D0E90410CDE9001094E80F0069
:1051B000FFF71AFDD9F80010052906D30AAA0EA98F
:1051C0000DA8C9F80080FFF783FA394801680A2959
:1051D00001D3C0F8008037480168142901D3C0F812
:1051E000008035480168322986D3C0F800800AAAB9
:1051F0000EA90DA8FFF76CFA0A98FBF7A0FA06466D
:105200000F460E98FBF79BFA04460D460D98FBF7E8
:1052100096FA8DE8F00002460B460FA0FEF72AFB37
:105220004FF400610148FBF7AEFE65E7000C01405A
:105230007374617274206D7075206572726F720084
:1052400073656E64206461746120737461727400AC
:10525000000000209000002020707265737375724A
:1052600065202069732025662074656D7020697340
:1052700020256620616E642061736C20697320258F
:10528000660A00008C0000202C1B00206D707564E5
:105290006174612025662C25662C25662C25662CDC
:1052A00025662C2566200D0A00000000CC02002097
:1052B00094000020980000209C0000202DE9F04D73
:1052C0000E460023A0F5000C4FF00071354684B067
:1052D00002464FF07E5401EB45014FF07F48BCF190
:1052E000FE4F80F09F81B1F1804FC0F0DB81FE491D
:1052F0000144B1F5005F40F2A78200F58021C90C9E
:1053000001F00F07C1F307117F39A2EBC15501EB83
:10531000030B3846FBF7B5F96FF00301FBF71DF8F7
:105320004FF07E51FAF751FF014602902846FAF7F6
:105330009EFF019028460299FAF747FF00F5006AA0
:105340006FF30B0A009051460298FAF790FF294636
:10535000FAF73BFF02904FF07E500099FAF7BFFF3B
:10536000014600900198FAF788FF00F500656FF399
:105370000B0528460299FAF780FF0290514628460D
:10538000FAF77BFF0199FAF775FF0299FAF76FFFB9
:105390000099FAF772FF014601902846FAF715FFC7
:1053A00001460290FAF769FF8246D049FAF765FF95
:1053B000CF49FAF70AFF5146FAF75FFF824600210C
:1053C0002846FAF7CAFF009051460298FAF755FFAF
:1053D000054600210198FAF7C0FF2946FAF7F5FEC5
:1053E000824601460098FAF7F0FE00F500656FF37B
:1053F0000B0529460098FAF73AFF5146FAF7E5FE01
:105400008246BC492846FAF738FF0090BA49504610
:10541000FAF733FF8246B9492846FAF72EFF51467C
:10542000FAF7D3FE824601460098FAF7CEFE00F561
:1054300000656FF30B0529460098FAF718FF5146EF
:10544000FAF7C3FE8246AE48784450F8371000EBB6
:10545000C700019147684FEA0B10FBF712F9009063
:1054600039465046FAF7B1FE2946FAF7AEFE0199E1
:10547000FAF7ABFE0099FAF7A8FE00F5006B6FF3A0
:105480000B0B58460099FAF7F2FE0199FAF7EFFE76
:105490002946FAF7ECFE3946FAF7E9FE5146FAF7E3
:1054A000E9FE06F5006782466FF30B073946304682
:1054B000FAF7DDFE002100900846FBF705FB00F03F
:1054C0000C0639465846FAF7D8FE054620F000404B
:1054D000B0F18B4F0ADDB8EB400F07D34FF08B4094
:1054E00060F31E052F464FF0000A1FE03846009972
:1054F000FAF76BFE5146FAF7C0FE07465846009988
:10550000FAF7BBFE3946FAF760FE824601462846A6
:10551000FAF75BFE00F500676FF30B073946284684
:10552000FAF7A5FE5146FAF750FE824631460C20A6
:10553000FBF7CAFA51463846FAF747FEFBF785FAF9
:1055400006460511FBF79DF83946FAF793FE5146DA
:10555000FAF73BFE07466B49FAF78FFE6A49FAF7FE
:1055600034FE3946FAF789FE6849FAF72EFE3946C5
:10557000FAF783FE0146664806F00F06784450F8B5
:105580002600FAF77AFE6349794451F82610FAF7B3
:105590001CFE6149794451F82610FAF716FE05F110
:1055A0007D01FC2908D22946FAF7D7FE04B021462E
:1055B000BDE8F04DFAF761BE05F1BF01B1F5BF7F5F
:1055C00016D82946FAF7C9FE2146FAF756FE0546CF
:1055D000B8EB450F1AD068000CD02846FEF75AF9F0
:1055E000042808BFFEF78CF9284604B0BDE8F08D0A
:1055F000002D0BDA0220FEF797F9FEF781F901463C
:10560000204604B061F31E00BDE8F08D0220FEF7D5
:105610008BF9FEF770F90146204604B061F31E00D5
:10562000BDE8F08DB1F1804F3CD300BF00F1FF41E8
:10563000B1F1FE4F21D200BF20F00042C5F3C751A7
:1056400010467F290DDB9729BFF651AEC1F19601B7
:105650004FF0010C0CFA01F1A1F1010C1CEA050F4D
:1056600007D00120FEF760F904B0BDE8F04DFEF769
:105670003EB9294218BF294C39E641001CBF4FF002
:105680008071B1EB400F09D91B21FAF766FE024683
:105690006FF01A0310F0004FCED128E6BCF1FE4F98
:1056A00018D224E6B1F1007F0ED336F0004105D0C8
:1056B00006F0004141F0FC552E46B7E7410018BF07
:1056C000B8EB400F78D8B1E7B1F1807F38BFA5F5CE
:1056D0000006ABD320F000416FF0FF4C104C01EB03
:1056E0000C03A3422FD31DE0001080C07EE24C3E8D
:1056F000ABAAAA3E00B038423BAA3842D49AB8BB03
:1057000070090000FC596337C9FF753A1872313DC2
:105710003C090000F0080000A4080000000080BF61
:10572000FFFF3F0025F000439C44A4450BD3B0F19C
:105730007E5F18BF5FEA450C3ED0B1F1FF4F98BFC6
:10574000B3F1FF4F05D904B03146BDE8F04DFEF787
:10575000CCB8B0F1FF4F0FD0C5F3C7517F2909DB9B
:10576000972911DAC1F19601012202FA01F14A1ECC
:105770002A4205D0002108E015F0004F55D128E05D
:10578000294218BF012100D1022110F5000F14D0C9
:1057900020B3B0F1004F27D010F1814F4ED04FF021
:1057A000FE41B1EB400F94BF01200020012101EB2D
:1057B000E571884239D10CE040E015F0004F02D08D
:1057C000012936D031E0012902BF3F4804B0BDE8CD
:1057D000F08D4FF0FF4004B0BDE8F08D15F00040B3
:1057E0000ED104B0BDE8F08DB5F1FF4F1DD015F519
:1057F000000F05D015F0004F14D009B1012907D0D2
:105800000220FEF791F804B0BDE8F04DFEF765B850
:105810000220FEF789F8FEF760F804B080F000403F
:10582000BDE8F08D09B1012903D004B00020BDE826
:10583000F08D04B04FF00040BDE8F08D04B04FF0A3
:105840007E50BDE8F08D00BF4FF07E51FAF70FFD9E
:1058500005466FF00101FAF780FD1C49FAF70AFDD1
:105860002946FAF70AFD4FF07C51FAF703FD074687
:1058700029460846FAF701FD80F000403946FAF75C
:10588000FCFC824612492846FAF7F7FC0746114904
:105890005046FAF7F2FC82460F492846FAF7EDFC2B
:1058A0005146FAF792FC054601463846FAF78DFC58
:1058B00000F5006B6FF30B0B59463846FAF7D7FC2F
:1058C0002946FAF782FCECE5000080FFABAAAA3E6D
:1058D00000B0B8413BAAB841D49A38BB2DE9F05F7B
:1058E0008B4601462A48DFF8A48000254478D1F889
:1058F00000902E4658F824202F4612F0FF4F04F156
:10590000010202F0FF0A05D094B108EB840050F8C0
:10591000041C0FE048F824900A68CBF8002080F8B7
:1059200001A0BAF1050F01D300214170BDE8F09F3D
:10593000D8F810104846FAF79AFC164920F00040B3
:10594000884209DA124848F82490BAF1050F80F825
:1059500001A001D3002141704FEA080454F8270048
:10596000FAF7EDFE2A463346FAF703FD7F1CFFB235
:1059700005460E46052FF1D30022074BFAF712FE1B
:10598000FAF7F0FECBF80000D0E700004C02002050
:1059900018000020CDCCCC3D000014402DE9F04192
:1059A0001B4C80460D46607870BB1046FAF769FEC6
:1059B0004FF080473946FFF781FC06462846FAF744
:1059C00060FE3946FFF77AFC05464046FAF759FE75
:1059D0003946FFF773FC2946FAF7F7FB3146FAF729
:1059E000F4FB00F0BBF96168FAF7EFFB0246606078
:1059F000E068401CE060C82806D106491046FAF766
:105A00006EFCA060012060706078BDE8F08100004D
:105A10006C00002000004843F0B51F4C1D4687B0C5
:105A200023690126188020694180206941F614010C
:105A3000214482802069801D2061884203D304F1C3
:105A4000140020616673144F387BD8B93C46607BE4
:105A5000C0B16A4603A9204600F022F80F48039916
:105A600081420DDA049981420ADA0599814207DA06
:105A700000982060019860600298A060267301E0A1
:105A8000002060733868286078686860B868A8602B
:105A9000387B07B0F0BD00000C03002000007A4501
:105AA000F0B58DB00D460646144618216846FAF743
:105AB00081FB182106A8FAF77DFB00214FF48067CF
:105AC00001EB410006EB4000DDE900E2B0F91430E3
:105AD0004FEAE37C1EEB030342EB0C02CDE90032FC
