:020000040800F2
:10000000400700208901000877110008351000081A
:1000100075110008E7020008B11200080000000096
:100020000000000000000000000000007B1100083C
:10003000E902000800000000791100087D110008A5
:10004000A3010008A3010008A3010008A301000800
:10005000A3010008A3010008A3010008A3010008F0
:10006000A3010008A3010008A3010008A3010008E0
:10007000A3010008A3010008A3010008A3010008D0
:10008000A3010008A3010008A3010008A3010008C0
:10009000A3010008A3010008A3010008A3010008B0
:1000A000A3010008A3010008A3010008A3010008A0
:1000B000A3010008A3010008A3010008A301000890
:1000C000A3010008A3010008A3010008A301000880
:1000D000A3010008A3010008A3010008A301000870
:1000E000A3010008A3010008A301000800F002F822
:1000F00000F03AF80AA090E8000C82448344AAF188
:100100000107DA4501D100F02FF8AFF2090EBAE885
:100110000F0013F0010F18BFFB1A43F0010318473B
:10012000F811000018120000103A24BF78C878C1F6
:10013000FAD8520724BF30C830C144BF04680C60ED
:10014000704700000023002400250026103A28BF35
:1001500078C1FBD8520728BF30C148BF0B60704739
:100160001FB51FBD10B510BD00F058F81146FFF7C0
:10017000F7FF01F0AEF800F076F803B4FFF7F2FFF6
:1001800003BC00F07DF8000009488047094800479B
:10019000FEE7FEE7FEE7FEE7FEE7FEE7FEE7FEE737
:1001A000FEE7FEE704480549054A064B7047000094
:1001B000F7110008ED000008400100204007002072
:1001C00040030020400300204FF0000200B513461A
:1001D00094469646203922BFA0E80C50A0E80C5067
:1001E000B1F12001BFF4F7AF090728BFA0E80C5018
:1001F00048BF0CC05DF804EB890028BF40F8042B11
:1002000008BF704748BF20F8022B11F0804F18BF7D
:1002100000F8012B7047704770477047754600F033
:100220002BF8AE4605006946534620F00700854688
:1002300018B020B5FFF7B6FFBDE820404FF000062C
:100240004FF000074FF000084FF0000B21F00701BE
:10025000AC46ACE8C009ACE8C009ACE8C009ACE801
:10026000C0098D46704710B50446AFF300802046A4
:10027000BDE81040FFF781BF00487047E000002054
:1002800001491820ABBEFEE72600020070470000BF
:1002900070B5044600688168C943C90717D18168F1
:1002A00021F00101816000F04BFA05460AE000BF31
:1002B00000F046FA401B022804D920688068C04339
:1002C000C00706D020688068C043C007F0D0002077
:1002D00070BDA06A40F01000A062E06A40F001002A
:1002E000E062012070BDFEE7704772B6FEE70000D5
:1002F000F8B50024009490F824202546012A12D055
:10030000012280F824204A681F23072A0DD206689C
:10031000776B521E02EB820293409F430B6893401F
:100320001F43776319E00220F8BD06680D2A0AD240
:10033000376BD21F02EB820293409F430B689340BE
:100340001F43376309E0F76A0D3A02EB82029340DC
:100350009F430B6893401F43F7620A6807230668B0
:100360000A2A0AD3F7680A3A02EB420293409F43F3
:100370008B6893401F43F76008E0376902EB420245
:1003800093409F438B6893401F4337610A68102A4C
:1003900001D0112A20D1124B02689A4217D19368DA
:1003A0001B0219D4936843F4000393600968102971
:1003B00012D10C490C4A0968B1FBF2F101EB810141
:1003C000490000E0491E00910029FBD104E0816A48
:1003D00041F020018162012480F824502046F8BDBC
:1003E000002401400C00002040420F002DE9F041A4
:1003F0004FF0000704003D467ED0A06A002628B9D1
:10040000E66284F82460204600F07EF82046FFF77C
:100410003FFFA16AC90600D420B1A06A40F01000D5
:10042000A06269E0A16A21F4885141F00201A16251
:100430006268E169237B0A4347EA43010A43A168F2
:100440004FF48077B94209D0012907D05FF000014D
:1004500094F814C0BCF1010F02D00AE03946F7E766
:10046000F3B1A36A43F02003A362E36A43F00103FC
:10047000E3622368D3F804C02CF4694C4CEA010C05
:10048000C3F804C021688B68DFF870C003EA0C036E
:1004900013438B60A168B9420BD0012909D00CE04D
:1004A000DFF85CC0A3690CEB43330B4343F40061FA
:1004B000DFE7218A0D05A5F580152168CB6A23F4B5
:1004C00070032B43CB62216889680E4B194091421F
:1004D00008D1E662A16A21F0020141F00101A162A6
:1004E000BDE8F081A06A20F0020040F01000A06298
:1004F000E06A40F00100E0620120F1E7FDF7E1FF72
:1005000000E0FFFFFE0E1FFF00B585B00021009147
:1005100001910291039100680E49884218D10E485A
:10052000816941F400718161816901F40071049174
:10053000816941F0040181618069694600F004002D
:1005400004900F20009003200190044800F008F868
:1005500005B000BD00240140001002400008014029
:100560002DE9F84FDFF8B8910024A9F1040B2346D8
:100570000F2709F1040AABF1040EC9E00125A540DB
:100580002A40AA427DD1674ED1F804C0ACEB0608E0
:10059000B44532D014DCBCF1030F3AD009DCBCF115
:1005A000000F2AD0BCF1010F1CD0BCF1020F31D1D9
:1005B0001DE0BCF1110F17D0BCF1120F2AD119E0C8
:1005C000B8F5881F19D006DCB8F5803F15D0B8F50E
:1005D000801F1FD111E0B8F5001F0ED0B8F5041F21
:1005E00018D10AE0CB6815E0CB681B1D12E0CB6880
:1005F00008330FE0CB680C330CE08B682BB1012B78
:100600004FF0080303D0456104E0042302E00561D4
:1006100000E00023FF2A01D8064601E000F10406AD
:100620004FEA840501D9A5F12005D6F8008007FA24
:1006300005FC28EA0C0803FA05F548EA0508C6F89F
:1006400000804D68ED0062D5374DAE6946F0010679
:10065000AE61AD6924F0030605F001050095334D48
:1006600006EB050CDCF80850A607360F07FA06F86B
:1006700025EA0805DFF8B880404503D14FF00008AF
:1006800017E044E0DFF8AC80404502D14FF00108AC
:100690000FE0DFF8A480404502D14FF0020808E0E7
:1006A000DFF89880404502D14FF0030801E04FF099
:1006B000040808FA06F848EA0508CCF808804D68EE
:1006C000D9F80060ED024D4601D5164300E096438F
:1006D0002E604D68DAF80060AD02554601D516432C
:1006E00000E096432E604D68DBF80060AD035D4688
:1006F00001D5164300E096432E604D68DEF8006099
:10070000ED03754601D5164300E096432E60641C48
:100710000D682A46E5407FF431AFBDE8F88F000050
:1007200008040140000011100010024000000140C8
:1007300000080140000C014000100140001401407D
:10074000014880687047000000000020024881686E
:10075000027811448160704700000020074810B5FE
:10076000016841F010010160032000F05FF80F20E4
:1007700000F006F800F024F8002010BD0020024030
:1007800070B50D4D04464FF47A712878B1FBF0F046
:100790000A490968B1FBF0F000F0CEFB48B9102C13
:1007A00007D200222146501E00F020F800206C6085
:1007B00070BD012070BD0000000000200C00002072
:1007C000094808B5816941F001018161816901F041
:1007D00001010091C16941F08051C161C06900F01F
:1007E0008050009008BD000000100240F0B40E4B95
:1007F0001B680C46C3F30223C3F10705042D00D97F
:100800000425191D072901D2002300E0DB1E012663
:1008100006FA05F1491E214099409E40761E164079
:100820003143F0BC00F045BD0CED00E0064900F09E
:10083000070208684FF6FF03184040EA0220034A07
:1008400010430860704700000CED00E00000FA055E
:100850002DE9F84305460078354CC00754D0E069CF
:100860000026C00008D4E06940F08050E061E069F3
:10087000012600F0805000902E480168C90512D46E
:100880000168804641F480710160FFF759FF074617
:1008900005E000BFFFF754FFC01B642823D8D8F839
:1008A0000000C005F6D5206A10F4407021D0A98858
:1008B00001F4407181421CD0206A1F49012220F4BA
:1008C00040700A6000220A602062C00711D0FFF762
:1008D00037FF074641F2883808E000BFFFF730FFD6
:1008E000C11B414502D90320BDE8F883206A800777
:1008F000F4D5206A696820F44070084320621EB174
:10090000E06920F08050E0612878800705D56068B4
:10091000A96820F44040084360602878C00605D5E7
:100920006068E96820F48000084360600020DBE72D
:100930000010024000700040400442422DE9F047A0
:100940000F46050061D0434E306800F00700B84202
:1009500009D2306820F0070038433060306800F07A
:100960000700B84251D128683B4C810712D5400797
:1009700003D5606840F4E06060602878000703D524
:10098000606840F4605060606068A96820F0F00022
:10099000084360602878C00728D06868012810D014
:1009A0002168022810D0890700292EDA616821F019
:1009B000030101436160FFF7C3FE804641F28839BD
:1009C0000DE021688903EFE78901EDE7FFF7B8FE45
:1009D000A0EB0801494502D90320BDE8F087606813
:1009E000696800F00C00B0EB810FEFD1306800F0C7
:1009F0000700B8420BD9306820F007003843306058
:100A0000306800F00700B84201D00120E5E72878FF
:100A1000400705D56068E96820F4E060084360603D
:100A20002878000706D56068296920F4605040EAFC
:100A3000C100606000F038F86168084AC1F3031132
:100A4000515CC8400649086006480068FFF798FEF8
:100A50000020C2E70020024000100240FE12000801
:100A60000C00002004000020044805490068496883
:100A7000044AC1F30221515CC84070470C000020B9
:100A8000001002400E130008044805490068496838
:100A9000044AC1F3C221515CC84070470C000020D9
:100AA000001002400E1300080E4A51680E4801F073
:100AB0000C03042B11D0082B0FD10C48C1F3834336
:100AC000C903C05C0AD55168084AC1F34041921E6F
:100AD000515C054A5043B0FBF1F07047044948436C
:100AE000704700000010024000127A00EE12000869
:100AF00000093D002DE9F84F040070D02078C04D6A
:100B0000C00749D06868C0F38100012807D0686831
:100B1000C0F38100022809D16868C00306D528689F
:100B2000800339D560680028E7D035E06068B0F50B
:100B3000803F0BD010B1B0F5A02F11D0286820F461
:100B400080302860286820F4802002E0286840F483
:100B500080302860606890B1FFF7F2FD06460AE039
:100B6000286840F480202860F0E700BFFFF7E8FD28
:100B7000801B642873D828688003F7D50CE0FFF742
:100B8000DFFD064605E000BFFFF7DAFD801B6428A5
:100B9000F0D828688003F7D420789A4E80074FF069
:100BA00001094FF0000839D5686810F00C0F07D024
:100BB0006868C0F38100022809D16868C00306D4C0
:100BC0002868800714D52069012808D110E0206921
:100BD000B0B1C6F80090FFF7B3FD074605E00AE1A3
:100BE000FFF7AEFDC01B0228C4D828688007F7D5E0
:100BF0002868616920F0F80040EAC10028600DE033
:100C0000C6F80080FFF79CFD074604E0FFF798FD5B
:100C1000C01B022823D828688007F7D42078000753
:100C20002CD57948A169D9B1C0F80090FFF788FDAB
:100C3000074604E0FFF784FDC01B02280FD8686A4E
:100C40008007F7D571484FF4FA510068B0FBF1F016
:100C5000009000BF0098411E0091FAD20EE080E0A3
:100C6000C0F80080FFF76CFD074604E0FFF768FD61
:100C7000C01B022875D8686A8007F7D4207840071F
:100C800060D5E8690027C00008D4E86940F08050CA
:100C9000E861E869012700F0805000905C48016835
:100CA000C90513D40168834641F480710160FFF7E0
:100CB00047FD824606E000BFFFF742FDA0EB0A00B9
:100CC00064284ED8DBF80000C005F5D5E06801289F
:100CD0000AD008B1052813D0286A20F00100286244
:100CE000286A20F0040002E0286A40F0010028622F
:100CF000E06841F2883B98B1FFF722FD82460BE0A5
:100D0000286A40F004002862EEE700BFFFF718FDF4
:100D1000A0EB0A0159455AD8286A8007F6D50CE09D
:100D2000FFF70EFD824605E0FFF70AFDA0EB0A0182
:100D300059454CD8286A8007F6D41FB1E86920F0DD
:100D40008050E861E06988B36968C1F381010229D4
:100D500044D00228C6F8608004D0FFF7F1FC0446B6
:100D600038E034E0FFF7ECFC074604E0FFF7E8FC6E
:100D7000C01B02282BD828688001F7D4206AB0F560
:100D8000803F05D16868A16820F40030084368609E
:100D9000D4E908010843696821F4741108436860C4
:100DA000C6F86090FFF7CCFC044606E025E000BFE3
:100DB000FFF7C6FC001B022809D828688001F7D578
:100DC0001BE000BFFFF7BCFC001B022802D9032078
:100DD000BDE8F88F28688001F4D40EE00128F7D030
:100DE0006868226A00F48031914204D1616A00F49B
:100DF0007010884201D00120EAE70020E8E70000F7
:100E00000010024000004242800442420C000020D8
:100E10000070004070B5040009D0606A002540B140
:100E200025616561A56294F8510040B10CE0012094
:100E300070BD6068B0F5827FF4D0E561F2E784F8B8
:100E40005050204600F040F8022084F851002068FD
:100E5000016821F040010160A088218900F48270BE
:100E600001F404410843A18901F400610843217C95
:100E700001F002010843217D01F001010843218BAB
:100E800001F400710843217F01F03801084394F810
:100E9000201001F080010843218D01F40051084326
:100EA00021680860A069042101EA104021684860B7
:100EB0002068C16921F40061C1616565012084F881
:100EC0005100002070BD000030B585B000240094B2
:100ED00001940294039400681449884223D1144871
:100EE000816941F480518161816901F480510491EB
:100EF000816941F00401816180690E4D00F00400B8
:100F00000490A020009002200190032003906946E5
:100F10002846FFF725FB4020CDE900046946284616
:100F20000294FFF71DFB05B030BD0000003001400A
:100F3000001002400008014010B5401EB0F1807F53
:100F400001D3012010BD4FF0E02460610F21601734
:100F500000F0AFF90020A06107202061002010BD43
:100F600070B5040004D094F84100002510B106E0EB
:100F7000012070BD84F84050204600F023F8242062
:100F800084F841002068C16821F40051C160204606
:100F900000F032F92068016921F490410161206874
:100FA000416921F02A0141612068C16841F4005182
:100FB000C1606564202084F8410084F842006563C4
:100FC000002070BD30B585B00024009401940294D7
:100FD000039400681449884224D11448816941F47B
:100FE00080418161816901F480410491816941F00E
:100FF0000401816180690E4D00F0040004904FF4FB
:10100000007000900220019003200390694628465A
:10101000FFF7A6FA2815CDE9000469462846029490
:10102000FFF79EFA05B030BD0038014000100240C5
:1010300000080140FEE700003EB50024104800947F
:10104000019402940D4984600160047304750125C4
:1010500005614FF460214460C161FFF7C7F908B131
:10106000FFF743F9CDE90045694605480294FFF7CB
:101070003FF9002801D0FFF738F93EBD00240140B8
:101080001000002000B585B000200390164881694B
:1010900041F010018161816901F0100104918169C1
:1010A00041F020018161816901F020010491816991
:1010B00041F004018161816901F0040104918169B9
:1010C00041F0080181618069694600F008000490E0
:1010D0004FF47040009005480190012002900448B0
:1010E000FFF73EFA05B000BD0010024000002110DD
:1010F000000C0140104810B50E4901604FF4827198
:10110000416000218160C1604FF400720161C0E95B
:1011100005122822C0E90721416281620A21C162C9
:10112000FFF778FE002803D0BDE81040FFF7DDB8D8
:1011300010BD000000300140400000200C4810B5F8
:101140000A4901604FF4E1314160002181600C22C5
:10115000C160C0E904128161C161FFF701FF00288D
:1011600003D0BDE81040FFF7C0B810BD0038014003
:1011700098000020FEE7FEE770477047FFF7E6BAE9
:1011800030B593B028216846FFF71EF814210AA84D
:10119000FFF71AF8002401210F9410940804CDE9F8
:1011A000001011941294029402250491CDE9075085
:1011B0004FF4E01009906846FFF79CFC08B172B646
:1011C000FEE70F20CDE90A054FF48060CDE90C4021
:1011D00002210AA80E94FFF7B1FB08B172B6FEE730
:1011E0000FA80F951194FFF733FB002801D072B6BA
:1011F000FEE713B030BD704770B504460068016962
:10120000E26821F44051114301612169A06808435B
:10121000616908432168CA6841F20C639A4302433A
:10122000CA6020684169A26921F44071114341619B
:101230001E492068884202D1FFF726FC01E0FFF733
:1012400013FC00EBC00101EB001260686421800018
:10125000B2FBF0F3B3FBF1F36FF018067343B2FB8C
:10126000F0F5B2FBF0F605EB8305322303EB051531
:10127000B5FBF1F5B6FBF1F605F0F00505EB06154B
:10128000B2FBF0F6B2FBF0F0B0FBF1F06FF0180239
:10129000504306EB800003EB0010B0FBF1F0216837
:1012A00000F00F002844886070BD00000038014045
:1012B000FEE70907090E002804DB00F1E02080F8B2
:1012C0000014704700F00F0000F1E02080F8141DBA
:1012D0007047FFF743FAFFF753FFFFF7D3FEFFF71F
:1012E000ABFEFFF707FFFFF729FFFEE7010202034E
:1012F0000405060708090A0B0C0D0E0F101000005C
:1013000000000000000001020304060708090000B5
:101310000000010203040000381300080000002050
:1013200010000000280100084813000810000020E9
:101330003007000044010008010000001000000018
:08134000000000000024F4008D
:04000005080000ED02
:00000001FF
